{
	"MintNFT.sol": {
		"MintNFT": {
			"abi": [
				{
					"inputs": [
						{
							"internalType": "string",
							"name": "_name",
							"type": "string"
						},
						{
							"internalType": "string",
							"name": "_symbol",
							"type": "string"
						},
						{
							"internalType": "string",
							"name": "_metadataURI",
							"type": "string"
						},
						{
							"internalType": "uint256",
							"name": "_maxSupply",
							"type": "uint256"
						}
					],
					"stateMutability": "nonpayable",
					"type": "constructor"
				},
				{
					"inputs": [
						{
							"internalType": "address",
							"name": "sender",
							"type": "address"
						},
						{
							"internalType": "uint256",
							"name": "balance",
							"type": "uint256"
						},
						{
							"internalType": "uint256",
							"name": "needed",
							"type": "uint256"
						},
						{
							"internalType": "uint256",
							"name": "tokenId",
							"type": "uint256"
						}
					],
					"name": "ERC1155InsufficientBalance",
					"type": "error"
				},
				{
					"inputs": [
						{
							"internalType": "address",
							"name": "approver",
							"type": "address"
						}
					],
					"name": "ERC1155InvalidApprover",
					"type": "error"
				},
				{
					"inputs": [
						{
							"internalType": "uint256",
							"name": "idsLength",
							"type": "uint256"
						},
						{
							"internalType": "uint256",
							"name": "valuesLength",
							"type": "uint256"
						}
					],
					"name": "ERC1155InvalidArrayLength",
					"type": "error"
				},
				{
					"inputs": [
						{
							"internalType": "address",
							"name": "operator",
							"type": "address"
						}
					],
					"name": "ERC1155InvalidOperator",
					"type": "error"
				},
				{
					"inputs": [
						{
							"internalType": "address",
							"name": "receiver",
							"type": "address"
						}
					],
					"name": "ERC1155InvalidReceiver",
					"type": "error"
				},
				{
					"inputs": [
						{
							"internalType": "address",
							"name": "sender",
							"type": "address"
						}
					],
					"name": "ERC1155InvalidSender",
					"type": "error"
				},
				{
					"inputs": [
						{
							"internalType": "address",
							"name": "operator",
							"type": "address"
						},
						{
							"internalType": "address",
							"name": "owner",
							"type": "address"
						}
					],
					"name": "ERC1155MissingApprovalForAll",
					"type": "error"
				},
				{
					"anonymous": false,
					"inputs": [
						{
							"indexed": true,
							"internalType": "address",
							"name": "account",
							"type": "address"
						},
						{
							"indexed": true,
							"internalType": "address",
							"name": "operator",
							"type": "address"
						},
						{
							"indexed": false,
							"internalType": "bool",
							"name": "approved",
							"type": "bool"
						}
					],
					"name": "ApprovalForAll",
					"type": "event"
				},
				{
					"anonymous": false,
					"inputs": [
						{
							"indexed": true,
							"internalType": "address",
							"name": "operator",
							"type": "address"
						},
						{
							"indexed": true,
							"internalType": "address",
							"name": "from",
							"type": "address"
						},
						{
							"indexed": true,
							"internalType": "address",
							"name": "to",
							"type": "address"
						},
						{
							"indexed": false,
							"internalType": "uint256[]",
							"name": "ids",
							"type": "uint256[]"
						},
						{
							"indexed": false,
							"internalType": "uint256[]",
							"name": "values",
							"type": "uint256[]"
						}
					],
					"name": "TransferBatch",
					"type": "event"
				},
				{
					"anonymous": false,
					"inputs": [
						{
							"indexed": true,
							"internalType": "address",
							"name": "operator",
							"type": "address"
						},
						{
							"indexed": true,
							"internalType": "address",
							"name": "from",
							"type": "address"
						},
						{
							"indexed": true,
							"internalType": "address",
							"name": "to",
							"type": "address"
						},
						{
							"indexed": false,
							"internalType": "uint256",
							"name": "id",
							"type": "uint256"
						},
						{
							"indexed": false,
							"internalType": "uint256",
							"name": "value",
							"type": "uint256"
						}
					],
					"name": "TransferSingle",
					"type": "event"
				},
				{
					"anonymous": false,
					"inputs": [
						{
							"indexed": false,
							"internalType": "string",
							"name": "value",
							"type": "string"
						},
						{
							"indexed": true,
							"internalType": "uint256",
							"name": "id",
							"type": "uint256"
						}
					],
					"name": "URI",
					"type": "event"
				},
				{
					"inputs": [
						{
							"internalType": "address",
							"name": "account",
							"type": "address"
						},
						{
							"internalType": "uint256",
							"name": "id",
							"type": "uint256"
						}
					],
					"name": "balanceOf",
					"outputs": [
						{
							"internalType": "uint256",
							"name": "",
							"type": "uint256"
						}
					],
					"stateMutability": "view",
					"type": "function"
				},
				{
					"inputs": [
						{
							"internalType": "address[]",
							"name": "accounts",
							"type": "address[]"
						},
						{
							"internalType": "uint256[]",
							"name": "ids",
							"type": "uint256[]"
						}
					],
					"name": "balanceOfBatch",
					"outputs": [
						{
							"internalType": "uint256[]",
							"name": "",
							"type": "uint256[]"
						}
					],
					"stateMutability": "view",
					"type": "function"
				},
				{
					"inputs": [
						{
							"internalType": "address",
							"name": "account",
							"type": "address"
						},
						{
							"internalType": "address",
							"name": "operator",
							"type": "address"
						}
					],
					"name": "isApprovedForAll",
					"outputs": [
						{
							"internalType": "bool",
							"name": "",
							"type": "bool"
						}
					],
					"stateMutability": "view",
					"type": "function"
				},
				{
					"inputs": [],
					"name": "name",
					"outputs": [
						{
							"internalType": "string",
							"name": "",
							"type": "string"
						}
					],
					"stateMutability": "view",
					"type": "function"
				},
				{
					"inputs": [
						{
							"internalType": "address",
							"name": "from",
							"type": "address"
						},
						{
							"internalType": "address",
							"name": "to",
							"type": "address"
						},
						{
							"internalType": "uint256[]",
							"name": "ids",
							"type": "uint256[]"
						},
						{
							"internalType": "uint256[]",
							"name": "values",
							"type": "uint256[]"
						},
						{
							"internalType": "bytes",
							"name": "data",
							"type": "bytes"
						}
					],
					"name": "safeBatchTransferFrom",
					"outputs": [],
					"stateMutability": "nonpayable",
					"type": "function"
				},
				{
					"inputs": [
						{
							"internalType": "address",
							"name": "from",
							"type": "address"
						},
						{
							"internalType": "address",
							"name": "to",
							"type": "address"
						},
						{
							"internalType": "uint256",
							"name": "id",
							"type": "uint256"
						},
						{
							"internalType": "uint256",
							"name": "value",
							"type": "uint256"
						},
						{
							"internalType": "bytes",
							"name": "data",
							"type": "bytes"
						}
					],
					"name": "safeTransferFrom",
					"outputs": [],
					"stateMutability": "nonpayable",
					"type": "function"
				},
				{
					"inputs": [
						{
							"internalType": "address",
							"name": "operator",
							"type": "address"
						},
						{
							"internalType": "bool",
							"name": "approved",
							"type": "bool"
						}
					],
					"name": "setApprovalForAll",
					"outputs": [],
					"stateMutability": "nonpayable",
					"type": "function"
				},
				{
					"inputs": [
						{
							"internalType": "bytes4",
							"name": "interfaceId",
							"type": "bytes4"
						}
					],
					"name": "supportsInterface",
					"outputs": [
						{
							"internalType": "bool",
							"name": "",
							"type": "bool"
						}
					],
					"stateMutability": "view",
					"type": "function"
				},
				{
					"inputs": [],
					"name": "symbol",
					"outputs": [
						{
							"internalType": "string",
							"name": "",
							"type": "string"
						}
					],
					"stateMutability": "view",
					"type": "function"
				},
				{
					"inputs": [
						{
							"internalType": "uint256",
							"name": "",
							"type": "uint256"
						}
					],
					"name": "uri",
					"outputs": [
						{
							"internalType": "string",
							"name": "",
							"type": "string"
						}
					],
					"stateMutability": "view",
					"type": "function"
				}
			],
			"devdoc": {
				"errors": {
					"ERC1155InsufficientBalance(address,uint256,uint256,uint256)": [
						{
							"details": "Indicates an error related to the current `balance` of a `sender`. Used in transfers.",
							"params": {
								"balance": "Current balance for the interacting account.",
								"needed": "Minimum amount required to perform a transfer.",
								"sender": "Address whose tokens are being transferred.",
								"tokenId": "Identifier number of a token."
							}
						}
					],
					"ERC1155InvalidApprover(address)": [
						{
							"details": "Indicates a failure with the `approver` of a token to be approved. Used in approvals.",
							"params": {
								"approver": "Address initiating an approval operation."
							}
						}
					],
					"ERC1155InvalidArrayLength(uint256,uint256)": [
						{
							"details": "Indicates an array length mismatch between ids and values in a safeBatchTransferFrom operation. Used in batch transfers.",
							"params": {
								"idsLength": "Length of the array of token identifiers",
								"valuesLength": "Length of the array of token amounts"
							}
						}
					],
					"ERC1155InvalidOperator(address)": [
						{
							"details": "Indicates a failure with the `operator` to be approved. Used in approvals.",
							"params": {
								"operator": "Address that may be allowed to operate on tokens without being their owner."
							}
						}
					],
					"ERC1155InvalidReceiver(address)": [
						{
							"details": "Indicates a failure with the token `receiver`. Used in transfers.",
							"params": {
								"receiver": "Address to which tokens are being transferred."
							}
						}
					],
					"ERC1155InvalidSender(address)": [
						{
							"details": "Indicates a failure with the token `sender`. Used in transfers.",
							"params": {
								"sender": "Address whose tokens are being transferred."
							}
						}
					],
					"ERC1155MissingApprovalForAll(address,address)": [
						{
							"details": "Indicates a failure with the `operator`’s approval. Used in transfers.",
							"params": {
								"operator": "Address that may be allowed to operate on tokens without being their owner.",
								"owner": "Address of the current owner of a token."
							}
						}
					]
				},
				"events": {
					"ApprovalForAll(address,address,bool)": {
						"details": "Emitted when `account` grants or revokes permission to `operator` to transfer their tokens, according to `approved`."
					},
					"TransferBatch(address,address,address,uint256[],uint256[])": {
						"details": "Equivalent to multiple {TransferSingle} events, where `operator`, `from` and `to` are the same for all transfers."
					},
					"TransferSingle(address,address,address,uint256,uint256)": {
						"details": "Emitted when `value` amount of tokens of type `id` are transferred from `from` to `to` by `operator`."
					},
					"URI(string,uint256)": {
						"details": "Emitted when the URI for token type `id` changes to `value`, if it is a non-programmatic URI. If an {URI} event was emitted for `id`, the standard https://eips.ethereum.org/EIPS/eip-1155#metadata-extensions[guarantees] that `value` will equal the value returned by {IERC1155MetadataURI-uri}."
					}
				},
				"kind": "dev",
				"methods": {
					"balanceOf(address,uint256)": {
						"details": "See {IERC1155-balanceOf}."
					},
					"balanceOfBatch(address[],uint256[])": {
						"details": "See {IERC1155-balanceOfBatch}. Requirements: - `accounts` and `ids` must have the same length."
					},
					"isApprovedForAll(address,address)": {
						"details": "See {IERC1155-isApprovedForAll}."
					},
					"safeBatchTransferFrom(address,address,uint256[],uint256[],bytes)": {
						"details": "See {IERC1155-safeBatchTransferFrom}."
					},
					"safeTransferFrom(address,address,uint256,uint256,bytes)": {
						"details": "See {IERC1155-safeTransferFrom}."
					},
					"setApprovalForAll(address,bool)": {
						"details": "See {IERC1155-setApprovalForAll}."
					},
					"supportsInterface(bytes4)": {
						"details": "See {IERC165-supportsInterface}."
					},
					"uri(uint256)": {
						"details": "See {IERC1155MetadataURI-uri}. This implementation returns the same URI for *all* token types. It relies on the token type ID substitution mechanism https://eips.ethereum.org/EIPS/eip-1155#metadata[defined in the EIP]. Clients calling this function must replace the `\\{id\\}` substring with the actual token type ID."
					}
				},
				"version": 1
			},
			"evm": {
				"assembly": "    /* \"MintNFT.sol\":126:504  contract MintNFT is ERC1155 {... */\n  mstore(0x40, 0x80)\n    /* \"MintNFT.sol\":261:501  constructor(string memory _name, string memory _symbol, string memory _metadataURI, uint _maxSupply) ERC1155(\"\") {... */\n  callvalue\n  dup1\n  iszero\n  tag_1\n  jumpi\n  0x00\n  dup1\n  revert\ntag_1:\n  pop\n  mload(0x40)\n  sub(codesize, bytecodeSize)\n  dup1\n  bytecodeSize\n  dup4\n  codecopy\n  dup2\n  dup2\n  add\n  0x40\n  mstore\n  dup2\n  add\n  swap1\n  tag_2\n  swap2\n  swap1\n  tag_3\n  jump\t// in\ntag_2:\n    /* \"@openzeppelin/contracts/token/ERC1155/ERC1155.sol\":1251:1313  constructor(string memory uri_) {... */\n  mload(0x40)\n  dup1\n  0x20\n  add\n  0x40\n  mstore\n  dup1\n  0x00\n  dup2\n  mstore\n  pop\n    /* \"@openzeppelin/contracts/token/ERC1155/ERC1155.sol\":1293:1306  _setURI(uri_) */\n  tag_7\n    /* \"@openzeppelin/contracts/token/ERC1155/ERC1155.sol\":1301:1305  uri_ */\n  dup2\n    /* \"@openzeppelin/contracts/token/ERC1155/ERC1155.sol\":1293:1300  _setURI */\n  shl(0x20, tag_8)\n    /* \"@openzeppelin/contracts/token/ERC1155/ERC1155.sol\":1293:1306  _setURI(uri_) */\n  0x20\n  shr\n  jump\t// in\ntag_7:\n    /* \"@openzeppelin/contracts/token/ERC1155/ERC1155.sol\":1251:1313  constructor(string memory uri_) {... */\n  pop\n    /* \"MintNFT.sol\":392:397  _name */\n  dup4\n    /* \"MintNFT.sol\":385:389  name */\n  0x03\n    /* \"MintNFT.sol\":385:397  name = _name */\n  swap1\n  dup2\n  tag_10\n  swap2\n  swap1\n  tag_11\n  jump\t// in\ntag_10:\n  pop\n    /* \"MintNFT.sol\":417:424  _symbol */\n  dup3\n    /* \"MintNFT.sol\":408:414  symbol */\n  0x04\n    /* \"MintNFT.sol\":408:424  symbol = _symbol */\n  swap1\n  dup2\n  tag_12\n  swap2\n  swap1\n  tag_11\n  jump\t// in\ntag_12:\n  pop\n    /* \"MintNFT.sol\":448:460  _metadataURI */\n  dup2\n    /* \"MintNFT.sol\":435:446  metadataURI */\n  0x05\n    /* \"MintNFT.sol\":435:460  metadataURI= _metadataURI */\n  swap1\n  dup2\n  tag_13\n  swap2\n  swap1\n  tag_11\n  jump\t// in\ntag_13:\n  pop\n    /* \"MintNFT.sol\":483:493  _maxSupply */\n  dup1\n    /* \"MintNFT.sol\":471:480  maxSupply */\n  0x06\n    /* \"MintNFT.sol\":471:493  maxSupply = _maxSupply */\n  dup2\n  swap1\n  sstore\n  pop\n    /* \"MintNFT.sol\":261:501  constructor(string memory _name, string memory _symbol, string memory _metadataURI, uint _maxSupply) ERC1155(\"\") {... */\n  pop\n  pop\n  pop\n  pop\n    /* \"MintNFT.sol\":126:504  contract MintNFT is ERC1155 {... */\n  jump(tag_14)\n    /* \"@openzeppelin/contracts/token/ERC1155/ERC1155.sol\":10282:10368  function _setURI(string memory newuri) internal virtual {... */\ntag_8:\n    /* \"@openzeppelin/contracts/token/ERC1155/ERC1155.sol\":10355:10361  newuri */\n  dup1\n    /* \"@openzeppelin/contracts/token/ERC1155/ERC1155.sol\":10348:10352  _uri */\n  0x02\n    /* \"@openzeppelin/contracts/token/ERC1155/ERC1155.sol\":10348:10361  _uri = newuri */\n  swap1\n  dup2\n  tag_16\n  swap2\n  swap1\n  tag_11\n  jump\t// in\ntag_16:\n  pop\n    /* \"@openzeppelin/contracts/token/ERC1155/ERC1155.sol\":10282:10368  function _setURI(string memory newuri) internal virtual {... */\n  pop\n  jump\t// out\n    /* \"#utility.yul\":7:82   */\ntag_17:\n    /* \"#utility.yul\":40:46   */\n  0x00\n    /* \"#utility.yul\":73:75   */\n  0x40\n    /* \"#utility.yul\":67:76   */\n  mload\n    /* \"#utility.yul\":57:76   */\n  swap1\n  pop\n    /* \"#utility.yul\":7:82   */\n  swap1\n  jump\t// out\n    /* \"#utility.yul\":88:205   */\ntag_18:\n    /* \"#utility.yul\":197:198   */\n  0x00\n    /* \"#utility.yul\":194:195   */\n  dup1\n    /* \"#utility.yul\":187:199   */\n  revert\n    /* \"#utility.yul\":211:328   */\ntag_19:\n    /* \"#utility.yul\":320:321   */\n  0x00\n    /* \"#utility.yul\":317:318   */\n  dup1\n    /* \"#utility.yul\":310:322   */\n  revert\n    /* \"#utility.yul\":334:451   */\ntag_20:\n    /* \"#utility.yul\":443:444   */\n  0x00\n    /* \"#utility.yul\":440:441   */\n  dup1\n    /* \"#utility.yul\":433:445   */\n  revert\n    /* \"#utility.yul\":457:574   */\ntag_21:\n    /* \"#utility.yul\":566:567   */\n  0x00\n    /* \"#utility.yul\":563:564   */\n  dup1\n    /* \"#utility.yul\":556:568   */\n  revert\n    /* \"#utility.yul\":580:682   */\ntag_22:\n    /* \"#utility.yul\":621:627   */\n  0x00\n    /* \"#utility.yul\":672:674   */\n  0x1f\n    /* \"#utility.yul\":668:675   */\n  not\n    /* \"#utility.yul\":663:665   */\n  0x1f\n    /* \"#utility.yul\":656:661   */\n  dup4\n    /* \"#utility.yul\":652:666   */\n  add\n    /* \"#utility.yul\":648:676   */\n  and\n    /* \"#utility.yul\":638:676   */\n  swap1\n  pop\n    /* \"#utility.yul\":580:682   */\n  swap2\n  swap1\n  pop\n  jump\t// out\n    /* \"#utility.yul\":688:868   */\ntag_23:\n    /* \"#utility.yul\":736:813   */\n  0x4e487b7100000000000000000000000000000000000000000000000000000000\n    /* \"#utility.yul\":733:734   */\n  0x00\n    /* \"#utility.yul\":726:814   */\n  mstore\n    /* \"#utility.yul\":833:837   */\n  0x41\n    /* \"#utility.yul\":830:831   */\n  0x04\n    /* \"#utility.yul\":823:838   */\n  mstore\n    /* \"#utility.yul\":857:861   */\n  0x24\n    /* \"#utility.yul\":854:855   */\n  0x00\n    /* \"#utility.yul\":847:862   */\n  revert\n    /* \"#utility.yul\":874:1155   */\ntag_24:\n    /* \"#utility.yul\":957:984   */\n  tag_60\n    /* \"#utility.yul\":979:983   */\n  dup3\n    /* \"#utility.yul\":957:984   */\n  tag_22\n  jump\t// in\ntag_60:\n    /* \"#utility.yul\":949:955   */\n  dup2\n    /* \"#utility.yul\":945:985   */\n  add\n    /* \"#utility.yul\":1087:1093   */\n  dup2\n    /* \"#utility.yul\":1075:1085   */\n  dup2\n    /* \"#utility.yul\":1072:1094   */\n  lt\n    /* \"#utility.yul\":1051:1069   */\n  0xffffffffffffffff\n    /* \"#utility.yul\":1039:1049   */\n  dup3\n    /* \"#utility.yul\":1036:1070   */\n  gt\n    /* \"#utility.yul\":1033:1095   */\n  or\n    /* \"#utility.yul\":1030:1118   */\n  iszero\n  tag_61\n  jumpi\n    /* \"#utility.yul\":1098:1116   */\n  tag_62\n  tag_23\n  jump\t// in\ntag_62:\n    /* \"#utility.yul\":1030:1118   */\ntag_61:\n    /* \"#utility.yul\":1138:1148   */\n  dup1\n    /* \"#utility.yul\":1134:1136   */\n  0x40\n    /* \"#utility.yul\":1127:1149   */\n  mstore\n    /* \"#utility.yul\":917:1155   */\n  pop\n    /* \"#utility.yul\":874:1155   */\n  pop\n  pop\n  jump\t// out\n    /* \"#utility.yul\":1161:1290   */\ntag_25:\n    /* \"#utility.yul\":1195:1201   */\n  0x00\n    /* \"#utility.yul\":1222:1242   */\n  tag_64\n  tag_17\n  jump\t// in\ntag_64:\n    /* \"#utility.yul\":1212:1242   */\n  swap1\n  pop\n    /* \"#utility.yul\":1251:1284   */\n  tag_65\n    /* \"#utility.yul\":1279:1283   */\n  dup3\n    /* \"#utility.yul\":1271:1277   */\n  dup3\n    /* \"#utility.yul\":1251:1284   */\n  tag_24\n  jump\t// in\ntag_65:\n    /* \"#utility.yul\":1161:1290   */\n  swap2\n  swap1\n  pop\n  jump\t// out\n    /* \"#utility.yul\":1296:1604   */\ntag_26:\n    /* \"#utility.yul\":1358:1362   */\n  0x00\n    /* \"#utility.yul\":1448:1466   */\n  0xffffffffffffffff\n    /* \"#utility.yul\":1440:1446   */\n  dup3\n    /* \"#utility.yul\":1437:1467   */\n  gt\n    /* \"#utility.yul\":1434:1490   */\n  iszero\n  tag_67\n  jumpi\n    /* \"#utility.yul\":1470:1488   */\n  tag_68\n  tag_23\n  jump\t// in\ntag_68:\n    /* \"#utility.yul\":1434:1490   */\ntag_67:\n    /* \"#utility.yul\":1508:1537   */\n  tag_69\n    /* \"#utility.yul\":1530:1536   */\n  dup3\n    /* \"#utility.yul\":1508:1537   */\n  tag_22\n  jump\t// in\ntag_69:\n    /* \"#utility.yul\":1500:1537   */\n  swap1\n  pop\n    /* \"#utility.yul\":1592:1596   */\n  0x20\n    /* \"#utility.yul\":1586:1590   */\n  dup2\n    /* \"#utility.yul\":1582:1597   */\n  add\n    /* \"#utility.yul\":1574:1597   */\n  swap1\n  pop\n    /* \"#utility.yul\":1296:1604   */\n  swap2\n  swap1\n  pop\n  jump\t// out\n    /* \"#utility.yul\":1610:1856   */\ntag_27:\n    /* \"#utility.yul\":1691:1692   */\n  0x00\n    /* \"#utility.yul\":1701:1814   */\ntag_71:\n    /* \"#utility.yul\":1715:1721   */\n  dup4\n    /* \"#utility.yul\":1712:1713   */\n  dup2\n    /* \"#utility.yul\":1709:1722   */\n  lt\n    /* \"#utility.yul\":1701:1814   */\n  iszero\n  tag_73\n  jumpi\n    /* \"#utility.yul\":1800:1801   */\n  dup1\n    /* \"#utility.yul\":1795:1798   */\n  dup3\n    /* \"#utility.yul\":1791:1802   */\n  add\n    /* \"#utility.yul\":1785:1803   */\n  mload\n    /* \"#utility.yul\":1781:1782   */\n  dup2\n    /* \"#utility.yul\":1776:1779   */\n  dup5\n    /* \"#utility.yul\":1772:1783   */\n  add\n    /* \"#utility.yul\":1765:1804   */\n  mstore\n    /* \"#utility.yul\":1737:1739   */\n  0x20\n    /* \"#utility.yul\":1734:1735   */\n  dup2\n    /* \"#utility.yul\":1730:1740   */\n  add\n    /* \"#utility.yul\":1725:1740   */\n  swap1\n  pop\n    /* \"#utility.yul\":1701:1814   */\n  jump(tag_71)\ntag_73:\n    /* \"#utility.yul\":1848:1849   */\n  0x00\n    /* \"#utility.yul\":1839:1845   */\n  dup5\n    /* \"#utility.yul\":1834:1837   */\n  dup5\n    /* \"#utility.yul\":1830:1846   */\n  add\n    /* \"#utility.yul\":1823:1850   */\n  mstore\n    /* \"#utility.yul\":1672:1856   */\n  pop\n    /* \"#utility.yul\":1610:1856   */\n  pop\n  pop\n  pop\n  jump\t// out\n    /* \"#utility.yul\":1862:2296   */\ntag_28:\n    /* \"#utility.yul\":1951:1956   */\n  0x00\n    /* \"#utility.yul\":1976:2042   */\n  tag_75\n    /* \"#utility.yul\":1992:2041   */\n  tag_76\n    /* \"#utility.yul\":2034:2040   */\n  dup5\n    /* \"#utility.yul\":1992:2041   */\n  tag_26\n  jump\t// in\ntag_76:\n    /* \"#utility.yul\":1976:2042   */\n  tag_25\n  jump\t// in\ntag_75:\n    /* \"#utility.yul\":1967:2042   */\n  swap1\n  pop\n    /* \"#utility.yul\":2065:2071   */\n  dup3\n    /* \"#utility.yul\":2058:2063   */\n  dup2\n    /* \"#utility.yul\":2051:2072   */\n  mstore\n    /* \"#utility.yul\":2103:2107   */\n  0x20\n    /* \"#utility.yul\":2096:2101   */\n  dup2\n    /* \"#utility.yul\":2092:2108   */\n  add\n    /* \"#utility.yul\":2141:2144   */\n  dup5\n    /* \"#utility.yul\":2132:2138   */\n  dup5\n    /* \"#utility.yul\":2127:2130   */\n  dup5\n    /* \"#utility.yul\":2123:2139   */\n  add\n    /* \"#utility.yul\":2120:2145   */\n  gt\n    /* \"#utility.yul\":2117:2229   */\n  iszero\n  tag_77\n  jumpi\n    /* \"#utility.yul\":2148:2227   */\n  tag_78\n  tag_21\n  jump\t// in\ntag_78:\n    /* \"#utility.yul\":2117:2229   */\ntag_77:\n    /* \"#utility.yul\":2238:2290   */\n  tag_79\n    /* \"#utility.yul\":2283:2289   */\n  dup5\n    /* \"#utility.yul\":2278:2281   */\n  dup3\n    /* \"#utility.yul\":2273:2276   */\n  dup6\n    /* \"#utility.yul\":2238:2290   */\n  tag_27\n  jump\t// in\ntag_79:\n    /* \"#utility.yul\":1957:2296   */\n  pop\n    /* \"#utility.yul\":1862:2296   */\n  swap4\n  swap3\n  pop\n  pop\n  pop\n  jump\t// out\n    /* \"#utility.yul\":2316:2671   */\ntag_29:\n    /* \"#utility.yul\":2383:2388   */\n  0x00\n    /* \"#utility.yul\":2432:2435   */\n  dup3\n    /* \"#utility.yul\":2425:2429   */\n  0x1f\n    /* \"#utility.yul\":2417:2423   */\n  dup4\n    /* \"#utility.yul\":2413:2430   */\n  add\n    /* \"#utility.yul\":2409:2436   */\n  slt\n    /* \"#utility.yul\":2399:2521   */\n  tag_81\n  jumpi\n    /* \"#utility.yul\":2440:2519   */\n  tag_82\n  tag_20\n  jump\t// in\ntag_82:\n    /* \"#utility.yul\":2399:2521   */\ntag_81:\n    /* \"#utility.yul\":2550:2556   */\n  dup2\n    /* \"#utility.yul\":2544:2557   */\n  mload\n    /* \"#utility.yul\":2575:2665   */\n  tag_83\n    /* \"#utility.yul\":2661:2664   */\n  dup5\n    /* \"#utility.yul\":2653:2659   */\n  dup3\n    /* \"#utility.yul\":2646:2650   */\n  0x20\n    /* \"#utility.yul\":2638:2644   */\n  dup7\n    /* \"#utility.yul\":2634:2651   */\n  add\n    /* \"#utility.yul\":2575:2665   */\n  tag_28\n  jump\t// in\ntag_83:\n    /* \"#utility.yul\":2566:2665   */\n  swap2\n  pop\n    /* \"#utility.yul\":2389:2671   */\n  pop\n    /* \"#utility.yul\":2316:2671   */\n  swap3\n  swap2\n  pop\n  pop\n  jump\t// out\n    /* \"#utility.yul\":2677:2754   */\ntag_30:\n    /* \"#utility.yul\":2714:2721   */\n  0x00\n    /* \"#utility.yul\":2743:2748   */\n  dup2\n    /* \"#utility.yul\":2732:2748   */\n  swap1\n  pop\n    /* \"#utility.yul\":2677:2754   */\n  swap2\n  swap1\n  pop\n  jump\t// out\n    /* \"#utility.yul\":2760:2882   */\ntag_31:\n    /* \"#utility.yul\":2833:2857   */\n  tag_86\n    /* \"#utility.yul\":2851:2856   */\n  dup2\n    /* \"#utility.yul\":2833:2857   */\n  tag_30\n  jump\t// in\ntag_86:\n    /* \"#utility.yul\":2826:2831   */\n  dup2\n    /* \"#utility.yul\":2823:2858   */\n  eq\n    /* \"#utility.yul\":2813:2876   */\n  tag_87\n  jumpi\n    /* \"#utility.yul\":2872:2873   */\n  0x00\n    /* \"#utility.yul\":2869:2870   */\n  dup1\n    /* \"#utility.yul\":2862:2874   */\n  revert\n    /* \"#utility.yul\":2813:2876   */\ntag_87:\n    /* \"#utility.yul\":2760:2882   */\n  pop\n  jump\t// out\n    /* \"#utility.yul\":2888:3031   */\ntag_32:\n    /* \"#utility.yul\":2945:2950   */\n  0x00\n    /* \"#utility.yul\":2976:2982   */\n  dup2\n    /* \"#utility.yul\":2970:2983   */\n  mload\n    /* \"#utility.yul\":2961:2983   */\n  swap1\n  pop\n    /* \"#utility.yul\":2992:3025   */\n  tag_89\n    /* \"#utility.yul\":3019:3024   */\n  dup2\n    /* \"#utility.yul\":2992:3025   */\n  tag_31\n  jump\t// in\ntag_89:\n    /* \"#utility.yul\":2888:3031   */\n  swap3\n  swap2\n  pop\n  pop\n  jump\t// out\n    /* \"#utility.yul\":3037:4376   */\ntag_3:\n    /* \"#utility.yul\":3164:3170   */\n  0x00\n    /* \"#utility.yul\":3172:3178   */\n  dup1\n    /* \"#utility.yul\":3180:3186   */\n  0x00\n    /* \"#utility.yul\":3188:3194   */\n  dup1\n    /* \"#utility.yul\":3237:3240   */\n  0x80\n    /* \"#utility.yul\":3225:3234   */\n  dup6\n    /* \"#utility.yul\":3216:3223   */\n  dup8\n    /* \"#utility.yul\":3212:3235   */\n  sub\n    /* \"#utility.yul\":3208:3241   */\n  slt\n    /* \"#utility.yul\":3205:3325   */\n  iszero\n  tag_91\n  jumpi\n    /* \"#utility.yul\":3244:3323   */\n  tag_92\n  tag_18\n  jump\t// in\ntag_92:\n    /* \"#utility.yul\":3205:3325   */\ntag_91:\n    /* \"#utility.yul\":3385:3386   */\n  0x00\n    /* \"#utility.yul\":3374:3383   */\n  dup6\n    /* \"#utility.yul\":3370:3387   */\n  add\n    /* \"#utility.yul\":3364:3388   */\n  mload\n    /* \"#utility.yul\":3415:3433   */\n  0xffffffffffffffff\n    /* \"#utility.yul\":3407:3413   */\n  dup2\n    /* \"#utility.yul\":3404:3434   */\n  gt\n    /* \"#utility.yul\":3401:3518   */\n  iszero\n  tag_93\n  jumpi\n    /* \"#utility.yul\":3437:3516   */\n  tag_94\n  tag_19\n  jump\t// in\ntag_94:\n    /* \"#utility.yul\":3401:3518   */\ntag_93:\n    /* \"#utility.yul\":3542:3616   */\n  tag_95\n    /* \"#utility.yul\":3608:3615   */\n  dup8\n    /* \"#utility.yul\":3599:3605   */\n  dup3\n    /* \"#utility.yul\":3588:3597   */\n  dup9\n    /* \"#utility.yul\":3584:3606   */\n  add\n    /* \"#utility.yul\":3542:3616   */\n  tag_29\n  jump\t// in\ntag_95:\n    /* \"#utility.yul\":3532:3616   */\n  swap5\n  pop\n    /* \"#utility.yul\":3335:3626   */\n  pop\n    /* \"#utility.yul\":3686:3688   */\n  0x20\n    /* \"#utility.yul\":3675:3684   */\n  dup6\n    /* \"#utility.yul\":3671:3689   */\n  add\n    /* \"#utility.yul\":3665:3690   */\n  mload\n    /* \"#utility.yul\":3717:3735   */\n  0xffffffffffffffff\n    /* \"#utility.yul\":3709:3715   */\n  dup2\n    /* \"#utility.yul\":3706:3736   */\n  gt\n    /* \"#utility.yul\":3703:3820   */\n  iszero\n  tag_96\n  jumpi\n    /* \"#utility.yul\":3739:3818   */\n  tag_97\n  tag_19\n  jump\t// in\ntag_97:\n    /* \"#utility.yul\":3703:3820   */\ntag_96:\n    /* \"#utility.yul\":3844:3918   */\n  tag_98\n    /* \"#utility.yul\":3910:3917   */\n  dup8\n    /* \"#utility.yul\":3901:3907   */\n  dup3\n    /* \"#utility.yul\":3890:3899   */\n  dup9\n    /* \"#utility.yul\":3886:3908   */\n  add\n    /* \"#utility.yul\":3844:3918   */\n  tag_29\n  jump\t// in\ntag_98:\n    /* \"#utility.yul\":3834:3918   */\n  swap4\n  pop\n    /* \"#utility.yul\":3636:3928   */\n  pop\n    /* \"#utility.yul\":3988:3990   */\n  0x40\n    /* \"#utility.yul\":3977:3986   */\n  dup6\n    /* \"#utility.yul\":3973:3991   */\n  add\n    /* \"#utility.yul\":3967:3992   */\n  mload\n    /* \"#utility.yul\":4019:4037   */\n  0xffffffffffffffff\n    /* \"#utility.yul\":4011:4017   */\n  dup2\n    /* \"#utility.yul\":4008:4038   */\n  gt\n    /* \"#utility.yul\":4005:4122   */\n  iszero\n  tag_99\n  jumpi\n    /* \"#utility.yul\":4041:4120   */\n  tag_100\n  tag_19\n  jump\t// in\ntag_100:\n    /* \"#utility.yul\":4005:4122   */\ntag_99:\n    /* \"#utility.yul\":4146:4220   */\n  tag_101\n    /* \"#utility.yul\":4212:4219   */\n  dup8\n    /* \"#utility.yul\":4203:4209   */\n  dup3\n    /* \"#utility.yul\":4192:4201   */\n  dup9\n    /* \"#utility.yul\":4188:4210   */\n  add\n    /* \"#utility.yul\":4146:4220   */\n  tag_29\n  jump\t// in\ntag_101:\n    /* \"#utility.yul\":4136:4220   */\n  swap3\n  pop\n    /* \"#utility.yul\":3938:4230   */\n  pop\n    /* \"#utility.yul\":4269:4271   */\n  0x60\n    /* \"#utility.yul\":4295:4359   */\n  tag_102\n    /* \"#utility.yul\":4351:4358   */\n  dup8\n    /* \"#utility.yul\":4342:4348   */\n  dup3\n    /* \"#utility.yul\":4331:4340   */\n  dup9\n    /* \"#utility.yul\":4327:4349   */\n  add\n    /* \"#utility.yul\":4295:4359   */\n  tag_32\n  jump\t// in\ntag_102:\n    /* \"#utility.yul\":4285:4359   */\n  swap2\n  pop\n    /* \"#utility.yul\":4240:4369   */\n  pop\n    /* \"#utility.yul\":3037:4376   */\n  swap3\n  swap6\n  swap2\n  swap5\n  pop\n  swap3\n  pop\n  jump\t// out\n    /* \"#utility.yul\":4382:4481   */\ntag_33:\n    /* \"#utility.yul\":4434:4440   */\n  0x00\n    /* \"#utility.yul\":4468:4473   */\n  dup2\n    /* \"#utility.yul\":4462:4474   */\n  mload\n    /* \"#utility.yul\":4452:4474   */\n  swap1\n  pop\n    /* \"#utility.yul\":4382:4481   */\n  swap2\n  swap1\n  pop\n  jump\t// out\n    /* \"#utility.yul\":4487:4667   */\ntag_34:\n    /* \"#utility.yul\":4535:4612   */\n  0x4e487b7100000000000000000000000000000000000000000000000000000000\n    /* \"#utility.yul\":4532:4533   */\n  0x00\n    /* \"#utility.yul\":4525:4613   */\n  mstore\n    /* \"#utility.yul\":4632:4636   */\n  0x22\n    /* \"#utility.yul\":4629:4630   */\n  0x04\n    /* \"#utility.yul\":4622:4637   */\n  mstore\n    /* \"#utility.yul\":4656:4660   */\n  0x24\n    /* \"#utility.yul\":4653:4654   */\n  0x00\n    /* \"#utility.yul\":4646:4661   */\n  revert\n    /* \"#utility.yul\":4673:4993   */\ntag_35:\n    /* \"#utility.yul\":4717:4723   */\n  0x00\n    /* \"#utility.yul\":4754:4755   */\n  0x02\n    /* \"#utility.yul\":4748:4752   */\n  dup3\n    /* \"#utility.yul\":4744:4756   */\n  div\n    /* \"#utility.yul\":4734:4756   */\n  swap1\n  pop\n    /* \"#utility.yul\":4801:4802   */\n  0x01\n    /* \"#utility.yul\":4795:4799   */\n  dup3\n    /* \"#utility.yul\":4791:4803   */\n  and\n    /* \"#utility.yul\":4822:4840   */\n  dup1\n    /* \"#utility.yul\":4812:4893   */\n  tag_106\n  jumpi\n    /* \"#utility.yul\":4878:4882   */\n  0x7f\n    /* \"#utility.yul\":4870:4876   */\n  dup3\n    /* \"#utility.yul\":4866:4883   */\n  and\n    /* \"#utility.yul\":4856:4883   */\n  swap2\n  pop\n    /* \"#utility.yul\":4812:4893   */\ntag_106:\n    /* \"#utility.yul\":4940:4942   */\n  0x20\n    /* \"#utility.yul\":4932:4938   */\n  dup3\n    /* \"#utility.yul\":4929:4943   */\n  lt\n    /* \"#utility.yul\":4909:4927   */\n  dup2\n    /* \"#utility.yul\":4906:4944   */\n  sub\n    /* \"#utility.yul\":4903:4987   */\n  tag_107\n  jumpi\n    /* \"#utility.yul\":4959:4977   */\n  tag_108\n  tag_34\n  jump\t// in\ntag_108:\n    /* \"#utility.yul\":4903:4987   */\ntag_107:\n    /* \"#utility.yul\":4724:4993   */\n  pop\n    /* \"#utility.yul\":4673:4993   */\n  swap2\n  swap1\n  pop\n  jump\t// out\n    /* \"#utility.yul\":4999:5140   */\ntag_36:\n    /* \"#utility.yul\":5048:5052   */\n  0x00\n    /* \"#utility.yul\":5071:5074   */\n  dup2\n    /* \"#utility.yul\":5063:5074   */\n  swap1\n  pop\n    /* \"#utility.yul\":5094:5097   */\n  dup2\n    /* \"#utility.yul\":5091:5092   */\n  0x00\n    /* \"#utility.yul\":5084:5098   */\n  mstore\n    /* \"#utility.yul\":5128:5132   */\n  0x20\n    /* \"#utility.yul\":5125:5126   */\n  0x00\n    /* \"#utility.yul\":5115:5133   */\n  keccak256\n    /* \"#utility.yul\":5107:5133   */\n  swap1\n  pop\n    /* \"#utility.yul\":4999:5140   */\n  swap2\n  swap1\n  pop\n  jump\t// out\n    /* \"#utility.yul\":5146:5239   */\ntag_37:\n    /* \"#utility.yul\":5183:5189   */\n  0x00\n    /* \"#utility.yul\":5230:5232   */\n  0x20\n    /* \"#utility.yul\":5225:5227   */\n  0x1f\n    /* \"#utility.yul\":5218:5223   */\n  dup4\n    /* \"#utility.yul\":5214:5228   */\n  add\n    /* \"#utility.yul\":5210:5233   */\n  div\n    /* \"#utility.yul\":5200:5233   */\n  swap1\n  pop\n    /* \"#utility.yul\":5146:5239   */\n  swap2\n  swap1\n  pop\n  jump\t// out\n    /* \"#utility.yul\":5245:5352   */\ntag_38:\n    /* \"#utility.yul\":5289:5297   */\n  0x00\n    /* \"#utility.yul\":5339:5344   */\n  dup3\n    /* \"#utility.yul\":5333:5337   */\n  dup3\n    /* \"#utility.yul\":5329:5345   */\n  shl\n    /* \"#utility.yul\":5308:5345   */\n  swap1\n  pop\n    /* \"#utility.yul\":5245:5352   */\n  swap3\n  swap2\n  pop\n  pop\n  jump\t// out\n    /* \"#utility.yul\":5358:5751   */\ntag_39:\n    /* \"#utility.yul\":5427:5433   */\n  0x00\n    /* \"#utility.yul\":5477:5478   */\n  0x08\n    /* \"#utility.yul\":5465:5475   */\n  dup4\n    /* \"#utility.yul\":5461:5479   */\n  mul\n    /* \"#utility.yul\":5500:5597   */\n  tag_113\n    /* \"#utility.yul\":5530:5596   */\n  0xffffffffffffffffffffffffffffffffffffffffffffffffffffffffffffffff\n    /* \"#utility.yul\":5519:5528   */\n  dup3\n    /* \"#utility.yul\":5500:5597   */\n  tag_38\n  jump\t// in\ntag_113:\n    /* \"#utility.yul\":5618:5657   */\n  tag_114\n    /* \"#utility.yul\":5648:5656   */\n  dup7\n    /* \"#utility.yul\":5637:5646   */\n  dup4\n    /* \"#utility.yul\":5618:5657   */\n  tag_38\n  jump\t// in\ntag_114:\n    /* \"#utility.yul\":5606:5657   */\n  swap6\n  pop\n    /* \"#utility.yul\":5690:5694   */\n  dup1\n    /* \"#utility.yul\":5686:5695   */\n  not\n    /* \"#utility.yul\":5679:5684   */\n  dup5\n    /* \"#utility.yul\":5675:5696   */\n  and\n    /* \"#utility.yul\":5666:5696   */\n  swap4\n  pop\n    /* \"#utility.yul\":5739:5743   */\n  dup1\n    /* \"#utility.yul\":5729:5737   */\n  dup7\n    /* \"#utility.yul\":5725:5744   */\n  and\n    /* \"#utility.yul\":5718:5723   */\n  dup5\n    /* \"#utility.yul\":5715:5745   */\n  or\n    /* \"#utility.yul\":5705:5745   */\n  swap3\n  pop\n    /* \"#utility.yul\":5434:5751   */\n  pop\n  pop\n    /* \"#utility.yul\":5358:5751   */\n  swap4\n  swap3\n  pop\n  pop\n  pop\n  jump\t// out\n    /* \"#utility.yul\":5757:5817   */\ntag_40:\n    /* \"#utility.yul\":5785:5788   */\n  0x00\n    /* \"#utility.yul\":5806:5811   */\n  dup2\n    /* \"#utility.yul\":5799:5811   */\n  swap1\n  pop\n    /* \"#utility.yul\":5757:5817   */\n  swap2\n  swap1\n  pop\n  jump\t// out\n    /* \"#utility.yul\":5823:5965   */\ntag_41:\n    /* \"#utility.yul\":5873:5882   */\n  0x00\n    /* \"#utility.yul\":5906:5959   */\n  tag_117\n    /* \"#utility.yul\":5924:5958   */\n  tag_118\n    /* \"#utility.yul\":5933:5957   */\n  tag_119\n    /* \"#utility.yul\":5951:5956   */\n  dup5\n    /* \"#utility.yul\":5933:5957   */\n  tag_30\n  jump\t// in\ntag_119:\n    /* \"#utility.yul\":5924:5958   */\n  tag_40\n  jump\t// in\ntag_118:\n    /* \"#utility.yul\":5906:5959   */\n  tag_30\n  jump\t// in\ntag_117:\n    /* \"#utility.yul\":5893:5959   */\n  swap1\n  pop\n    /* \"#utility.yul\":5823:5965   */\n  swap2\n  swap1\n  pop\n  jump\t// out\n    /* \"#utility.yul\":5971:6046   */\ntag_42:\n    /* \"#utility.yul\":6014:6017   */\n  0x00\n    /* \"#utility.yul\":6035:6040   */\n  dup2\n    /* \"#utility.yul\":6028:6040   */\n  swap1\n  pop\n    /* \"#utility.yul\":5971:6046   */\n  swap2\n  swap1\n  pop\n  jump\t// out\n    /* \"#utility.yul\":6052:6321   */\ntag_43:\n    /* \"#utility.yul\":6162:6201   */\n  tag_122\n    /* \"#utility.yul\":6193:6200   */\n  dup4\n    /* \"#utility.yul\":6162:6201   */\n  tag_41\n  jump\t// in\ntag_122:\n    /* \"#utility.yul\":6223:6314   */\n  tag_123\n    /* \"#utility.yul\":6272:6313   */\n  tag_124\n    /* \"#utility.yul\":6296:6312   */\n  dup3\n    /* \"#utility.yul\":6272:6313   */\n  tag_42\n  jump\t// in\ntag_124:\n    /* \"#utility.yul\":6264:6270   */\n  dup5\n    /* \"#utility.yul\":6257:6261   */\n  dup5\n    /* \"#utility.yul\":6251:6262   */\n  sload\n    /* \"#utility.yul\":6223:6314   */\n  tag_39\n  jump\t// in\ntag_123:\n    /* \"#utility.yul\":6217:6221   */\n  dup3\n    /* \"#utility.yul\":6210:6315   */\n  sstore\n    /* \"#utility.yul\":6128:6321   */\n  pop\n    /* \"#utility.yul\":6052:6321   */\n  pop\n  pop\n  pop\n  jump\t// out\n    /* \"#utility.yul\":6327:6400   */\ntag_44:\n    /* \"#utility.yul\":6372:6375   */\n  0x00\n    /* \"#utility.yul\":6327:6400   */\n  swap1\n  jump\t// out\n    /* \"#utility.yul\":6406:6595   */\ntag_45:\n    /* \"#utility.yul\":6483:6515   */\n  tag_127\n  tag_44\n  jump\t// in\ntag_127:\n    /* \"#utility.yul\":6524:6589   */\n  tag_128\n    /* \"#utility.yul\":6582:6588   */\n  dup2\n    /* \"#utility.yul\":6574:6580   */\n  dup5\n    /* \"#utility.yul\":6568:6572   */\n  dup5\n    /* \"#utility.yul\":6524:6589   */\n  tag_43\n  jump\t// in\ntag_128:\n    /* \"#utility.yul\":6459:6595   */\n  pop\n    /* \"#utility.yul\":6406:6595   */\n  pop\n  pop\n  jump\t// out\n    /* \"#utility.yul\":6601:6787   */\ntag_46:\n    /* \"#utility.yul\":6661:6781   */\ntag_130:\n    /* \"#utility.yul\":6678:6681   */\n  dup2\n    /* \"#utility.yul\":6671:6676   */\n  dup2\n    /* \"#utility.yul\":6668:6682   */\n  lt\n    /* \"#utility.yul\":6661:6781   */\n  iszero\n  tag_132\n  jumpi\n    /* \"#utility.yul\":6732:6771   */\n  tag_133\n    /* \"#utility.yul\":6769:6770   */\n  0x00\n    /* \"#utility.yul\":6762:6767   */\n  dup3\n    /* \"#utility.yul\":6732:6771   */\n  tag_45\n  jump\t// in\ntag_133:\n    /* \"#utility.yul\":6705:6706   */\n  0x01\n    /* \"#utility.yul\":6698:6703   */\n  dup2\n    /* \"#utility.yul\":6694:6707   */\n  add\n    /* \"#utility.yul\":6685:6707   */\n  swap1\n  pop\n    /* \"#utility.yul\":6661:6781   */\n  jump(tag_130)\ntag_132:\n    /* \"#utility.yul\":6601:6787   */\n  pop\n  pop\n  jump\t// out\n    /* \"#utility.yul\":6793:7336   */\ntag_47:\n    /* \"#utility.yul\":6894:6896   */\n  0x1f\n    /* \"#utility.yul\":6889:6892   */\n  dup3\n    /* \"#utility.yul\":6886:6897   */\n  gt\n    /* \"#utility.yul\":6883:7329   */\n  iszero\n  tag_135\n  jumpi\n    /* \"#utility.yul\":6928:6966   */\n  tag_136\n    /* \"#utility.yul\":6960:6965   */\n  dup2\n    /* \"#utility.yul\":6928:6966   */\n  tag_36\n  jump\t// in\ntag_136:\n    /* \"#utility.yul\":7012:7041   */\n  tag_137\n    /* \"#utility.yul\":7030:7040   */\n  dup5\n    /* \"#utility.yul\":7012:7041   */\n  tag_37\n  jump\t// in\ntag_137:\n    /* \"#utility.yul\":7002:7010   */\n  dup2\n    /* \"#utility.yul\":6998:7042   */\n  add\n    /* \"#utility.yul\":7195:7197   */\n  0x20\n    /* \"#utility.yul\":7183:7193   */\n  dup6\n    /* \"#utility.yul\":7180:7198   */\n  lt\n    /* \"#utility.yul\":7177:7226   */\n  iszero\n  tag_138\n  jumpi\n    /* \"#utility.yul\":7216:7224   */\n  dup2\n    /* \"#utility.yul\":7201:7224   */\n  swap1\n  pop\n    /* \"#utility.yul\":7177:7226   */\ntag_138:\n    /* \"#utility.yul\":7239:7319   */\n  tag_139\n    /* \"#utility.yul\":7295:7317   */\n  tag_140\n    /* \"#utility.yul\":7313:7316   */\n  dup6\n    /* \"#utility.yul\":7295:7317   */\n  tag_37\n  jump\t// in\ntag_140:\n    /* \"#utility.yul\":7285:7293   */\n  dup4\n    /* \"#utility.yul\":7281:7318   */\n  add\n    /* \"#utility.yul\":7268:7279   */\n  dup3\n    /* \"#utility.yul\":7239:7319   */\n  tag_46\n  jump\t// in\ntag_139:\n    /* \"#utility.yul\":6898:7329   */\n  pop\n  pop\n    /* \"#utility.yul\":6883:7329   */\ntag_135:\n    /* \"#utility.yul\":6793:7336   */\n  pop\n  pop\n  pop\n  jump\t// out\n    /* \"#utility.yul\":7342:7459   */\ntag_48:\n    /* \"#utility.yul\":7396:7404   */\n  0x00\n    /* \"#utility.yul\":7446:7451   */\n  dup3\n    /* \"#utility.yul\":7440:7444   */\n  dup3\n    /* \"#utility.yul\":7436:7452   */\n  shr\n    /* \"#utility.yul\":7415:7452   */\n  swap1\n  pop\n    /* \"#utility.yul\":7342:7459   */\n  swap3\n  swap2\n  pop\n  pop\n  jump\t// out\n    /* \"#utility.yul\":7465:7634   */\ntag_49:\n    /* \"#utility.yul\":7509:7515   */\n  0x00\n    /* \"#utility.yul\":7542:7593   */\n  tag_143\n    /* \"#utility.yul\":7590:7591   */\n  0x00\n    /* \"#utility.yul\":7586:7592   */\n  not\n    /* \"#utility.yul\":7578:7583   */\n  dup5\n    /* \"#utility.yul\":7575:7576   */\n  0x08\n    /* \"#utility.yul\":7571:7584   */\n  mul\n    /* \"#utility.yul\":7542:7593   */\n  tag_48\n  jump\t// in\ntag_143:\n    /* \"#utility.yul\":7538:7594   */\n  not\n    /* \"#utility.yul\":7623:7627   */\n  dup1\n    /* \"#utility.yul\":7617:7621   */\n  dup4\n    /* \"#utility.yul\":7613:7628   */\n  and\n    /* \"#utility.yul\":7603:7628   */\n  swap2\n  pop\n    /* \"#utility.yul\":7516:7634   */\n  pop\n    /* \"#utility.yul\":7465:7634   */\n  swap3\n  swap2\n  pop\n  pop\n  jump\t// out\n    /* \"#utility.yul\":7639:7934   */\ntag_50:\n    /* \"#utility.yul\":7715:7719   */\n  0x00\n    /* \"#utility.yul\":7861:7890   */\n  tag_145\n    /* \"#utility.yul\":7886:7889   */\n  dup4\n    /* \"#utility.yul\":7880:7884   */\n  dup4\n    /* \"#utility.yul\":7861:7890   */\n  tag_49\n  jump\t// in\ntag_145:\n    /* \"#utility.yul\":7853:7890   */\n  swap2\n  pop\n    /* \"#utility.yul\":7923:7926   */\n  dup3\n    /* \"#utility.yul\":7920:7921   */\n  0x02\n    /* \"#utility.yul\":7916:7927   */\n  mul\n    /* \"#utility.yul\":7910:7914   */\n  dup3\n    /* \"#utility.yul\":7907:7928   */\n  or\n    /* \"#utility.yul\":7899:7928   */\n  swap1\n  pop\n    /* \"#utility.yul\":7639:7934   */\n  swap3\n  swap2\n  pop\n  pop\n  jump\t// out\n    /* \"#utility.yul\":7939:9334   */\ntag_11:\n    /* \"#utility.yul\":8056:8093   */\n  tag_147\n    /* \"#utility.yul\":8089:8092   */\n  dup3\n    /* \"#utility.yul\":8056:8093   */\n  tag_33\n  jump\t// in\ntag_147:\n    /* \"#utility.yul\":8158:8176   */\n  0xffffffffffffffff\n    /* \"#utility.yul\":8150:8156   */\n  dup2\n    /* \"#utility.yul\":8147:8177   */\n  gt\n    /* \"#utility.yul\":8144:8200   */\n  iszero\n  tag_148\n  jumpi\n    /* \"#utility.yul\":8180:8198   */\n  tag_149\n  tag_23\n  jump\t// in\ntag_149:\n    /* \"#utility.yul\":8144:8200   */\ntag_148:\n    /* \"#utility.yul\":8224:8262   */\n  tag_150\n    /* \"#utility.yul\":8256:8260   */\n  dup3\n    /* \"#utility.yul\":8250:8261   */\n  sload\n    /* \"#utility.yul\":8224:8262   */\n  tag_35\n  jump\t// in\ntag_150:\n    /* \"#utility.yul\":8309:8376   */\n  tag_151\n    /* \"#utility.yul\":8369:8375   */\n  dup3\n    /* \"#utility.yul\":8361:8367   */\n  dup3\n    /* \"#utility.yul\":8355:8359   */\n  dup6\n    /* \"#utility.yul\":8309:8376   */\n  tag_47\n  jump\t// in\ntag_151:\n    /* \"#utility.yul\":8403:8404   */\n  0x00\n    /* \"#utility.yul\":8427:8431   */\n  0x20\n    /* \"#utility.yul\":8414:8431   */\n  swap1\n  pop\n    /* \"#utility.yul\":8459:8461   */\n  0x1f\n    /* \"#utility.yul\":8451:8457   */\n  dup4\n    /* \"#utility.yul\":8448:8462   */\n  gt\n    /* \"#utility.yul\":8476:8477   */\n  0x01\n    /* \"#utility.yul\":8471:9089   */\n  dup2\n  eq\n  tag_153\n  jumpi\n    /* \"#utility.yul\":9133:9134   */\n  0x00\n    /* \"#utility.yul\":9150:9156   */\n  dup5\n    /* \"#utility.yul\":9147:9224   */\n  iszero\n  tag_154\n  jumpi\n    /* \"#utility.yul\":9199:9208   */\n  dup3\n    /* \"#utility.yul\":9194:9197   */\n  dup8\n    /* \"#utility.yul\":9190:9209   */\n  add\n    /* \"#utility.yul\":9184:9210   */\n  mload\n    /* \"#utility.yul\":9175:9210   */\n  swap1\n  pop\n    /* \"#utility.yul\":9147:9224   */\ntag_154:\n    /* \"#utility.yul\":9250:9317   */\n  tag_155\n    /* \"#utility.yul\":9310:9316   */\n  dup6\n    /* \"#utility.yul\":9303:9308   */\n  dup3\n    /* \"#utility.yul\":9250:9317   */\n  tag_50\n  jump\t// in\ntag_155:\n    /* \"#utility.yul\":9244:9248   */\n  dup7\n    /* \"#utility.yul\":9237:9318   */\n  sstore\n    /* \"#utility.yul\":9106:9328   */\n  pop\n    /* \"#utility.yul\":8441:9328   */\n  jump(tag_152)\n    /* \"#utility.yul\":8471:9089   */\ntag_153:\n    /* \"#utility.yul\":8523:8527   */\n  0x1f\n    /* \"#utility.yul\":8519:8528   */\n  not\n    /* \"#utility.yul\":8511:8517   */\n  dup5\n    /* \"#utility.yul\":8507:8529   */\n  and\n    /* \"#utility.yul\":8557:8594   */\n  tag_156\n    /* \"#utility.yul\":8589:8593   */\n  dup7\n    /* \"#utility.yul\":8557:8594   */\n  tag_36\n  jump\t// in\ntag_156:\n    /* \"#utility.yul\":8616:8617   */\n  0x00\n    /* \"#utility.yul\":8630:8838   */\ntag_157:\n    /* \"#utility.yul\":8644:8651   */\n  dup3\n    /* \"#utility.yul\":8641:8642   */\n  dup2\n    /* \"#utility.yul\":8638:8652   */\n  lt\n    /* \"#utility.yul\":8630:8838   */\n  iszero\n  tag_159\n  jumpi\n    /* \"#utility.yul\":8723:8732   */\n  dup5\n    /* \"#utility.yul\":8718:8721   */\n  dup10\n    /* \"#utility.yul\":8714:8733   */\n  add\n    /* \"#utility.yul\":8708:8734   */\n  mload\n    /* \"#utility.yul\":8700:8706   */\n  dup3\n    /* \"#utility.yul\":8693:8735   */\n  sstore\n    /* \"#utility.yul\":8774:8775   */\n  0x01\n    /* \"#utility.yul\":8766:8772   */\n  dup3\n    /* \"#utility.yul\":8762:8776   */\n  add\n    /* \"#utility.yul\":8752:8776   */\n  swap2\n  pop\n    /* \"#utility.yul\":8821:8823   */\n  0x20\n    /* \"#utility.yul\":8810:8819   */\n  dup6\n    /* \"#utility.yul\":8806:8824   */\n  add\n    /* \"#utility.yul\":8793:8824   */\n  swap5\n  pop\n    /* \"#utility.yul\":8667:8671   */\n  0x20\n    /* \"#utility.yul\":8664:8665   */\n  dup2\n    /* \"#utility.yul\":8660:8672   */\n  add\n    /* \"#utility.yul\":8655:8672   */\n  swap1\n  pop\n    /* \"#utility.yul\":8630:8838   */\n  jump(tag_157)\ntag_159:\n    /* \"#utility.yul\":8866:8872   */\n  dup7\n    /* \"#utility.yul\":8857:8864   */\n  dup4\n    /* \"#utility.yul\":8854:8873   */\n  lt\n    /* \"#utility.yul\":8851:9030   */\n  iszero\n  tag_160\n  jumpi\n    /* \"#utility.yul\":8924:8933   */\n  dup5\n    /* \"#utility.yul\":8919:8922   */\n  dup10\n    /* \"#utility.yul\":8915:8934   */\n  add\n    /* \"#utility.yul\":8909:8935   */\n  mload\n    /* \"#utility.yul\":8967:9015   */\n  tag_161\n    /* \"#utility.yul\":9009:9013   */\n  0x1f\n    /* \"#utility.yul\":9001:9007   */\n  dup10\n    /* \"#utility.yul\":8997:9014   */\n  and\n    /* \"#utility.yul\":8986:8995   */\n  dup3\n    /* \"#utility.yul\":8967:9015   */\n  tag_49\n  jump\t// in\ntag_161:\n    /* \"#utility.yul\":8959:8965   */\n  dup4\n    /* \"#utility.yul\":8952:9016   */\n  sstore\n    /* \"#utility.yul\":8874:9030   */\n  pop\n    /* \"#utility.yul\":8851:9030   */\ntag_160:\n    /* \"#utility.yul\":9076:9077   */\n  0x01\n    /* \"#utility.yul\":9072:9073   */\n  0x02\n    /* \"#utility.yul\":9064:9070   */\n  dup9\n    /* \"#utility.yul\":9060:9074   */\n  mul\n    /* \"#utility.yul\":9056:9078   */\n  add\n    /* \"#utility.yul\":9050:9054   */\n  dup9\n    /* \"#utility.yul\":9043:9079   */\n  sstore\n    /* \"#utility.yul\":8478:9089   */\n  pop\n  pop\n  pop\n    /* \"#utility.yul\":8441:9328   */\ntag_152:\n  pop\n    /* \"#utility.yul\":8031:9334   */\n  pop\n  pop\n  pop\n    /* \"#utility.yul\":7939:9334   */\n  pop\n  pop\n  jump\t// out\n    /* \"MintNFT.sol\":126:504  contract MintNFT is ERC1155 {... */\ntag_14:\n  dataSize(sub_0)\n  dup1\n  dataOffset(sub_0)\n  0x00\n  codecopy\n  0x00\n  return\nstop\n\nsub_0: assembly {\n        /* \"MintNFT.sol\":126:504  contract MintNFT is ERC1155 {... */\n      mstore(0x40, 0x80)\n      callvalue\n      dup1\n      iszero\n      tag_1\n      jumpi\n      0x00\n      dup1\n      revert\n    tag_1:\n      pop\n      jumpi(tag_2, lt(calldatasize, 0x04))\n      shr(0xe0, calldataload(0x00))\n      dup1\n      0x4e1273f4\n      gt\n      tag_13\n      jumpi\n      dup1\n      0x4e1273f4\n      eq\n      tag_8\n      jumpi\n      dup1\n      0x95d89b41\n      eq\n      tag_9\n      jumpi\n      dup1\n      0xa22cb465\n      eq\n      tag_10\n      jumpi\n      dup1\n      0xe985e9c5\n      eq\n      tag_11\n      jumpi\n      dup1\n      0xf242432a\n      eq\n      tag_12\n      jumpi\n      jump(tag_2)\n    tag_13:\n      dup1\n      0xfdd58e\n      eq\n      tag_3\n      jumpi\n      dup1\n      0x01ffc9a7\n      eq\n      tag_4\n      jumpi\n      dup1\n      0x06fdde03\n      eq\n      tag_5\n      jumpi\n      dup1\n      0x0e89341c\n      eq\n      tag_6\n      jumpi\n      dup1\n      0x2eb2c2d6\n      eq\n      tag_7\n      jumpi\n    tag_2:\n      0x00\n      dup1\n      revert\n        /* \"@openzeppelin/contracts/token/ERC1155/ERC1155.sol\":2247:2379  function balanceOf(address account, uint256 id) public view virtual returns (uint256) {... */\n    tag_3:\n      tag_14\n      0x04\n      dup1\n      calldatasize\n      sub\n      dup2\n      add\n      swap1\n      tag_15\n      swap2\n      swap1\n      tag_16\n      jump\t// in\n    tag_15:\n      tag_17\n      jump\t// in\n    tag_14:\n      mload(0x40)\n      tag_18\n      swap2\n      swap1\n      tag_19\n      jump\t// in\n    tag_18:\n      mload(0x40)\n      dup1\n      swap2\n      sub\n      swap1\n      return\n        /* \"@openzeppelin/contracts/token/ERC1155/ERC1155.sol\":1380:1685  function supportsInterface(bytes4 interfaceId) public view virtual override(ERC165, IERC165) returns (bool) {... */\n    tag_4:\n      tag_20\n      0x04\n      dup1\n      calldatasize\n      sub\n      dup2\n      add\n      swap1\n      tag_21\n      swap2\n      swap1\n      tag_22\n      jump\t// in\n    tag_21:\n      tag_23\n      jump\t// in\n    tag_20:\n      mload(0x40)\n      tag_24\n      swap2\n      swap1\n      tag_25\n      jump\t// in\n    tag_24:\n      mload(0x40)\n      dup1\n      swap2\n      sub\n      swap1\n      return\n        /* \"MintNFT.sol\":161:179  string public name */\n    tag_5:\n      tag_26\n      tag_27\n      jump\t// in\n    tag_26:\n      mload(0x40)\n      tag_28\n      swap2\n      swap1\n      tag_29\n      jump\t// in\n    tag_28:\n      mload(0x40)\n      dup1\n      swap2\n      sub\n      swap1\n      return\n        /* \"@openzeppelin/contracts/token/ERC1155/ERC1155.sol\":2084:2187  function uri(uint256 /* id */) public view virtual returns (string memory) {... */\n    tag_6:\n      tag_30\n      0x04\n      dup1\n      calldatasize\n      sub\n      dup2\n      add\n      swap1\n      tag_31\n      swap2\n      swap1\n      tag_32\n      jump\t// in\n    tag_31:\n      tag_33\n      jump\t// in\n    tag_30:\n      mload(0x40)\n      tag_34\n      swap2\n      swap1\n      tag_29\n      jump\t// in\n    tag_34:\n      mload(0x40)\n      dup1\n      swap2\n      sub\n      swap1\n      return\n        /* \"@openzeppelin/contracts/token/ERC1155/ERC1155.sol\":4014:4443  function safeBatchTransferFrom(... */\n    tag_7:\n      tag_35\n      0x04\n      dup1\n      calldatasize\n      sub\n      dup2\n      add\n      swap1\n      tag_36\n      swap2\n      swap1\n      tag_37\n      jump\t// in\n    tag_36:\n      tag_38\n      jump\t// in\n    tag_35:\n      stop\n        /* \"@openzeppelin/contracts/token/ERC1155/ERC1155.sol\":2536:3088  function balanceOfBatch(... */\n    tag_8:\n      tag_39\n      0x04\n      dup1\n      calldatasize\n      sub\n      dup2\n      add\n      swap1\n      tag_40\n      swap2\n      swap1\n      tag_41\n      jump\t// in\n    tag_40:\n      tag_42\n      jump\t// in\n    tag_39:\n      mload(0x40)\n      tag_43\n      swap2\n      swap1\n      tag_44\n      jump\t// in\n    tag_43:\n      mload(0x40)\n      dup1\n      swap2\n      sub\n      swap1\n      return\n        /* \"MintNFT.sol\":186:206  string public symbol */\n    tag_9:\n      tag_45\n      tag_46\n      jump\t// in\n    tag_45:\n      mload(0x40)\n      tag_47\n      swap2\n      swap1\n      tag_29\n      jump\t// in\n    tag_47:\n      mload(0x40)\n      dup1\n      swap2\n      sub\n      swap1\n      return\n        /* \"@openzeppelin/contracts/token/ERC1155/ERC1155.sol\":3156:3300  function setApprovalForAll(address operator, bool approved) public virtual {... */\n    tag_10:\n      tag_48\n      0x04\n      dup1\n      calldatasize\n      sub\n      dup2\n      add\n      swap1\n      tag_49\n      swap2\n      swap1\n      tag_50\n      jump\t// in\n    tag_49:\n      tag_51\n      jump\t// in\n    tag_48:\n      stop\n        /* \"@openzeppelin/contracts/token/ERC1155/ERC1155.sol\":3367:3524  function isApprovedForAll(address account, address operator) public view virtual returns (bool) {... */\n    tag_11:\n      tag_52\n      0x04\n      dup1\n      calldatasize\n      sub\n      dup2\n      add\n      swap1\n      tag_53\n      swap2\n      swap1\n      tag_54\n      jump\t// in\n    tag_53:\n      tag_55\n      jump\t// in\n    tag_52:\n      mload(0x40)\n      tag_56\n      swap2\n      swap1\n      tag_25\n      jump\t// in\n    tag_56:\n      mload(0x40)\n      dup1\n      swap2\n      sub\n      swap1\n      return\n        /* \"@openzeppelin/contracts/token/ERC1155/ERC1155.sol\":3591:3942  function safeTransferFrom(address from, address to, uint256 id, uint256 value, bytes memory data) public virtual {... */\n    tag_12:\n      tag_57\n      0x04\n      dup1\n      calldatasize\n      sub\n      dup2\n      add\n      swap1\n      tag_58\n      swap2\n      swap1\n      tag_59\n      jump\t// in\n    tag_58:\n      tag_60\n      jump\t// in\n    tag_57:\n      stop\n        /* \"@openzeppelin/contracts/token/ERC1155/ERC1155.sol\":2247:2379  function balanceOf(address account, uint256 id) public view virtual returns (uint256) {... */\n    tag_17:\n        /* \"@openzeppelin/contracts/token/ERC1155/ERC1155.sol\":2324:2331  uint256 */\n      0x00\n        /* \"@openzeppelin/contracts/token/ERC1155/ERC1155.sol\":2350:2359  _balances */\n      dup1\n        /* \"@openzeppelin/contracts/token/ERC1155/ERC1155.sol\":2350:2363  _balances[id] */\n      0x00\n        /* \"@openzeppelin/contracts/token/ERC1155/ERC1155.sol\":2360:2362  id */\n      dup4\n        /* \"@openzeppelin/contracts/token/ERC1155/ERC1155.sol\":2350:2363  _balances[id] */\n      dup2\n      mstore\n      0x20\n      add\n      swap1\n      dup2\n      mstore\n      0x20\n      add\n      0x00\n      keccak256\n        /* \"@openzeppelin/contracts/token/ERC1155/ERC1155.sol\":2350:2372  _balances[id][account] */\n      0x00\n        /* \"@openzeppelin/contracts/token/ERC1155/ERC1155.sol\":2364:2371  account */\n      dup5\n        /* \"@openzeppelin/contracts/token/ERC1155/ERC1155.sol\":2350:2372  _balances[id][account] */\n      0xffffffffffffffffffffffffffffffffffffffff\n      and\n      0xffffffffffffffffffffffffffffffffffffffff\n      and\n      dup2\n      mstore\n      0x20\n      add\n      swap1\n      dup2\n      mstore\n      0x20\n      add\n      0x00\n      keccak256\n      sload\n        /* \"@openzeppelin/contracts/token/ERC1155/ERC1155.sol\":2343:2372  return _balances[id][account] */\n      swap1\n      pop\n        /* \"@openzeppelin/contracts/token/ERC1155/ERC1155.sol\":2247:2379  function balanceOf(address account, uint256 id) public view virtual returns (uint256) {... */\n      swap3\n      swap2\n      pop\n      pop\n      jump\t// out\n        /* \"@openzeppelin/contracts/token/ERC1155/ERC1155.sol\":1380:1685  function supportsInterface(bytes4 interfaceId) public view virtual override(ERC165, IERC165) returns (bool) {... */\n    tag_23:\n        /* \"@openzeppelin/contracts/token/ERC1155/ERC1155.sol\":1482:1486  bool */\n      0x00\n        /* \"@openzeppelin/contracts/token/ERC1155/ERC1155.sol\":1532:1558  type(IERC1155).interfaceId */\n      0xd9b67a2600000000000000000000000000000000000000000000000000000000\n        /* \"@openzeppelin/contracts/token/ERC1155/ERC1155.sol\":1517:1558  interfaceId == type(IERC1155).interfaceId */\n      not(0xffffffffffffffffffffffffffffffffffffffffffffffffffffffff)\n      and\n        /* \"@openzeppelin/contracts/token/ERC1155/ERC1155.sol\":1517:1528  interfaceId */\n      dup3\n        /* \"@openzeppelin/contracts/token/ERC1155/ERC1155.sol\":1517:1558  interfaceId == type(IERC1155).interfaceId */\n      not(0xffffffffffffffffffffffffffffffffffffffffffffffffffffffff)\n      and\n      eq\n        /* \"@openzeppelin/contracts/token/ERC1155/ERC1155.sol\":1517:1626  interfaceId == type(IERC1155).interfaceId ||... */\n      dup1\n      tag_63\n      jumpi\n      pop\n        /* \"@openzeppelin/contracts/token/ERC1155/ERC1155.sol\":1589:1626  type(IERC1155MetadataURI).interfaceId */\n      0x0e89341c00000000000000000000000000000000000000000000000000000000\n        /* \"@openzeppelin/contracts/token/ERC1155/ERC1155.sol\":1574:1626  interfaceId == type(IERC1155MetadataURI).interfaceId */\n      not(0xffffffffffffffffffffffffffffffffffffffffffffffffffffffff)\n      and\n        /* \"@openzeppelin/contracts/token/ERC1155/ERC1155.sol\":1574:1585  interfaceId */\n      dup3\n        /* \"@openzeppelin/contracts/token/ERC1155/ERC1155.sol\":1574:1626  interfaceId == type(IERC1155MetadataURI).interfaceId */\n      not(0xffffffffffffffffffffffffffffffffffffffffffffffffffffffff)\n      and\n      eq\n        /* \"@openzeppelin/contracts/token/ERC1155/ERC1155.sol\":1517:1626  interfaceId == type(IERC1155).interfaceId ||... */\n    tag_63:\n        /* \"@openzeppelin/contracts/token/ERC1155/ERC1155.sol\":1517:1678  interfaceId == type(IERC1155).interfaceId ||... */\n      dup1\n      tag_64\n      jumpi\n      pop\n        /* \"@openzeppelin/contracts/token/ERC1155/ERC1155.sol\":1642:1678  super.supportsInterface(interfaceId) */\n      tag_65\n        /* \"@openzeppelin/contracts/token/ERC1155/ERC1155.sol\":1666:1677  interfaceId */\n      dup3\n        /* \"@openzeppelin/contracts/token/ERC1155/ERC1155.sol\":1642:1665  super.supportsInterface */\n      tag_66\n        /* \"@openzeppelin/contracts/token/ERC1155/ERC1155.sol\":1642:1678  super.supportsInterface(interfaceId) */\n      jump\t// in\n    tag_65:\n        /* \"@openzeppelin/contracts/token/ERC1155/ERC1155.sol\":1517:1678  interfaceId == type(IERC1155).interfaceId ||... */\n    tag_64:\n        /* \"@openzeppelin/contracts/token/ERC1155/ERC1155.sol\":1498:1678  return... */\n      swap1\n      pop\n        /* \"@openzeppelin/contracts/token/ERC1155/ERC1155.sol\":1380:1685  function supportsInterface(bytes4 interfaceId) public view virtual override(ERC165, IERC165) returns (bool) {... */\n      swap2\n      swap1\n      pop\n      jump\t// out\n        /* \"MintNFT.sol\":161:179  string public name */\n    tag_27:\n      0x03\n      dup1\n      sload\n      tag_67\n      swap1\n      tag_68\n      jump\t// in\n    tag_67:\n      dup1\n      0x1f\n      add\n      0x20\n      dup1\n      swap2\n      div\n      mul\n      0x20\n      add\n      mload(0x40)\n      swap1\n      dup2\n      add\n      0x40\n      mstore\n      dup1\n      swap3\n      swap2\n      swap1\n      dup2\n      dup2\n      mstore\n      0x20\n      add\n      dup3\n      dup1\n      sload\n      tag_69\n      swap1\n      tag_68\n      jump\t// in\n    tag_69:\n      dup1\n      iszero\n      tag_70\n      jumpi\n      dup1\n      0x1f\n      lt\n      tag_71\n      jumpi\n      0x0100\n      dup1\n      dup4\n      sload\n      div\n      mul\n      dup4\n      mstore\n      swap2\n      0x20\n      add\n      swap2\n      jump(tag_70)\n    tag_71:\n      dup3\n      add\n      swap2\n      swap1\n      0x00\n      mstore\n      keccak256(0x00, 0x20)\n      swap1\n    tag_72:\n      dup2\n      sload\n      dup2\n      mstore\n      swap1\n      0x01\n      add\n      swap1\n      0x20\n      add\n      dup1\n      dup4\n      gt\n      tag_72\n      jumpi\n      dup3\n      swap1\n      sub\n      0x1f\n      and\n      dup3\n      add\n      swap2\n    tag_70:\n      pop\n      pop\n      pop\n      pop\n      pop\n      dup2\n      jump\t// out\n        /* \"@openzeppelin/contracts/token/ERC1155/ERC1155.sol\":2084:2187  function uri(uint256 /* id */) public view virtual returns (string memory) {... */\n    tag_33:\n        /* \"@openzeppelin/contracts/token/ERC1155/ERC1155.sol\":2144:2157  string memory */\n      0x60\n        /* \"@openzeppelin/contracts/token/ERC1155/ERC1155.sol\":2176:2180  _uri */\n      0x02\n        /* \"@openzeppelin/contracts/token/ERC1155/ERC1155.sol\":2169:2180  return _uri */\n      dup1\n      sload\n      tag_74\n      swap1\n      tag_68\n      jump\t// in\n    tag_74:\n      dup1\n      0x1f\n      add\n      0x20\n      dup1\n      swap2\n      div\n      mul\n      0x20\n      add\n      mload(0x40)\n      swap1\n      dup2\n      add\n      0x40\n      mstore\n      dup1\n      swap3\n      swap2\n      swap1\n      dup2\n      dup2\n      mstore\n      0x20\n      add\n      dup3\n      dup1\n      sload\n      tag_75\n      swap1\n      tag_68\n      jump\t// in\n    tag_75:\n      dup1\n      iszero\n      tag_76\n      jumpi\n      dup1\n      0x1f\n      lt\n      tag_77\n      jumpi\n      0x0100\n      dup1\n      dup4\n      sload\n      div\n      mul\n      dup4\n      mstore\n      swap2\n      0x20\n      add\n      swap2\n      jump(tag_76)\n    tag_77:\n      dup3\n      add\n      swap2\n      swap1\n      0x00\n      mstore\n      keccak256(0x00, 0x20)\n      swap1\n    tag_78:\n      dup2\n      sload\n      dup2\n      mstore\n      swap1\n      0x01\n      add\n      swap1\n      0x20\n      add\n      dup1\n      dup4\n      gt\n      tag_78\n      jumpi\n      dup3\n      swap1\n      sub\n      0x1f\n      and\n      dup3\n      add\n      swap2\n    tag_76:\n      pop\n      pop\n      pop\n      pop\n      pop\n      swap1\n      pop\n        /* \"@openzeppelin/contracts/token/ERC1155/ERC1155.sol\":2084:2187  function uri(uint256 /* id */) public view virtual returns (string memory) {... */\n      swap2\n      swap1\n      pop\n      jump\t// out\n        /* \"@openzeppelin/contracts/token/ERC1155/ERC1155.sol\":4014:4443  function safeBatchTransferFrom(... */\n    tag_38:\n        /* \"@openzeppelin/contracts/token/ERC1155/ERC1155.sol\":4208:4222  address sender */\n      0x00\n        /* \"@openzeppelin/contracts/token/ERC1155/ERC1155.sol\":4225:4237  _msgSender() */\n      tag_80\n        /* \"@openzeppelin/contracts/token/ERC1155/ERC1155.sol\":4225:4235  _msgSender */\n      tag_81\n        /* \"@openzeppelin/contracts/token/ERC1155/ERC1155.sol\":4225:4237  _msgSender() */\n      jump\t// in\n    tag_80:\n        /* \"@openzeppelin/contracts/token/ERC1155/ERC1155.sol\":4208:4237  address sender = _msgSender() */\n      swap1\n      pop\n        /* \"@openzeppelin/contracts/token/ERC1155/ERC1155.sol\":4259:4265  sender */\n      dup1\n        /* \"@openzeppelin/contracts/token/ERC1155/ERC1155.sol\":4251:4265  from != sender */\n      0xffffffffffffffffffffffffffffffffffffffff\n      and\n        /* \"@openzeppelin/contracts/token/ERC1155/ERC1155.sol\":4251:4255  from */\n      dup7\n        /* \"@openzeppelin/contracts/token/ERC1155/ERC1155.sol\":4251:4265  from != sender */\n      0xffffffffffffffffffffffffffffffffffffffff\n      and\n      eq\n      iszero\n        /* \"@openzeppelin/contracts/token/ERC1155/ERC1155.sol\":4251:4300  from != sender && !isApprovedForAll(from, sender) */\n      dup1\n      iszero\n      tag_82\n      jumpi\n      pop\n        /* \"@openzeppelin/contracts/token/ERC1155/ERC1155.sol\":4270:4300  isApprovedForAll(from, sender) */\n      tag_83\n        /* \"@openzeppelin/contracts/token/ERC1155/ERC1155.sol\":4287:4291  from */\n      dup7\n        /* \"@openzeppelin/contracts/token/ERC1155/ERC1155.sol\":4293:4299  sender */\n      dup3\n        /* \"@openzeppelin/contracts/token/ERC1155/ERC1155.sol\":4270:4286  isApprovedForAll */\n      tag_55\n        /* \"@openzeppelin/contracts/token/ERC1155/ERC1155.sol\":4270:4300  isApprovedForAll(from, sender) */\n      jump\t// in\n    tag_83:\n        /* \"@openzeppelin/contracts/token/ERC1155/ERC1155.sol\":4269:4300  !isApprovedForAll(from, sender) */\n      iszero\n        /* \"@openzeppelin/contracts/token/ERC1155/ERC1155.sol\":4251:4300  from != sender && !isApprovedForAll(from, sender) */\n    tag_82:\n        /* \"@openzeppelin/contracts/token/ERC1155/ERC1155.sol\":4247:4376  if (from != sender && !isApprovedForAll(from, sender)) {... */\n      iszero\n      tag_84\n      jumpi\n        /* \"@openzeppelin/contracts/token/ERC1155/ERC1155.sol\":4352:4358  sender */\n      dup1\n        /* \"@openzeppelin/contracts/token/ERC1155/ERC1155.sol\":4360:4364  from */\n      dup7\n        /* \"@openzeppelin/contracts/token/ERC1155/ERC1155.sol\":4323:4365  ERC1155MissingApprovalForAll(sender, from) */\n      mload(0x40)\n      0xe237d92200000000000000000000000000000000000000000000000000000000\n      dup2\n      mstore\n      0x04\n      add\n      tag_85\n      swap3\n      swap2\n      swap1\n      tag_86\n      jump\t// in\n    tag_85:\n      mload(0x40)\n      dup1\n      swap2\n      sub\n      swap1\n      revert\n        /* \"@openzeppelin/contracts/token/ERC1155/ERC1155.sol\":4247:4376  if (from != sender && !isApprovedForAll(from, sender)) {... */\n    tag_84:\n        /* \"@openzeppelin/contracts/token/ERC1155/ERC1155.sol\":4385:4436  _safeBatchTransferFrom(from, to, ids, values, data) */\n      tag_87\n        /* \"@openzeppelin/contracts/token/ERC1155/ERC1155.sol\":4408:4412  from */\n      dup7\n        /* \"@openzeppelin/contracts/token/ERC1155/ERC1155.sol\":4414:4416  to */\n      dup7\n        /* \"@openzeppelin/contracts/token/ERC1155/ERC1155.sol\":4418:4421  ids */\n      dup7\n        /* \"@openzeppelin/contracts/token/ERC1155/ERC1155.sol\":4423:4429  values */\n      dup7\n        /* \"@openzeppelin/contracts/token/ERC1155/ERC1155.sol\":4431:4435  data */\n      dup7\n        /* \"@openzeppelin/contracts/token/ERC1155/ERC1155.sol\":4385:4407  _safeBatchTransferFrom */\n      tag_88\n        /* \"@openzeppelin/contracts/token/ERC1155/ERC1155.sol\":4385:4436  _safeBatchTransferFrom(from, to, ids, values, data) */\n      jump\t// in\n    tag_87:\n        /* \"@openzeppelin/contracts/token/ERC1155/ERC1155.sol\":4198:4443  {... */\n      pop\n        /* \"@openzeppelin/contracts/token/ERC1155/ERC1155.sol\":4014:4443  function safeBatchTransferFrom(... */\n      pop\n      pop\n      pop\n      pop\n      pop\n      jump\t// out\n        /* \"@openzeppelin/contracts/token/ERC1155/ERC1155.sol\":2536:3088  function balanceOfBatch(... */\n    tag_42:\n        /* \"@openzeppelin/contracts/token/ERC1155/ERC1155.sol\":2660:2676  uint256[] memory */\n      0x60\n        /* \"@openzeppelin/contracts/token/ERC1155/ERC1155.sol\":2711:2714  ids */\n      dup2\n        /* \"@openzeppelin/contracts/token/ERC1155/ERC1155.sol\":2711:2721  ids.length */\n      mload\n        /* \"@openzeppelin/contracts/token/ERC1155/ERC1155.sol\":2692:2700  accounts */\n      dup4\n        /* \"@openzeppelin/contracts/token/ERC1155/ERC1155.sol\":2692:2707  accounts.length */\n      mload\n        /* \"@openzeppelin/contracts/token/ERC1155/ERC1155.sol\":2692:2721  accounts.length != ids.length */\n      eq\n        /* \"@openzeppelin/contracts/token/ERC1155/ERC1155.sol\":2688:2809  if (accounts.length != ids.length) {... */\n      tag_90\n      jumpi\n        /* \"@openzeppelin/contracts/token/ERC1155/ERC1155.sol\":2770:2773  ids */\n      dup2\n        /* \"@openzeppelin/contracts/token/ERC1155/ERC1155.sol\":2770:2780  ids.length */\n      mload\n        /* \"@openzeppelin/contracts/token/ERC1155/ERC1155.sol\":2782:2790  accounts */\n      dup4\n        /* \"@openzeppelin/contracts/token/ERC1155/ERC1155.sol\":2782:2797  accounts.length */\n      mload\n        /* \"@openzeppelin/contracts/token/ERC1155/ERC1155.sol\":2744:2798  ERC1155InvalidArrayLength(ids.length, accounts.length) */\n      mload(0x40)\n      0x5b05999100000000000000000000000000000000000000000000000000000000\n      dup2\n      mstore\n      0x04\n      add\n      tag_91\n      swap3\n      swap2\n      swap1\n      tag_92\n      jump\t// in\n    tag_91:\n      mload(0x40)\n      dup1\n      swap2\n      sub\n      swap1\n      revert\n        /* \"@openzeppelin/contracts/token/ERC1155/ERC1155.sol\":2688:2809  if (accounts.length != ids.length) {... */\n    tag_90:\n        /* \"@openzeppelin/contracts/token/ERC1155/ERC1155.sol\":2819:2849  uint256[] memory batchBalances */\n      0x00\n        /* \"@openzeppelin/contracts/token/ERC1155/ERC1155.sol\":2866:2874  accounts */\n      dup4\n        /* \"@openzeppelin/contracts/token/ERC1155/ERC1155.sol\":2866:2881  accounts.length */\n      mload\n        /* \"@openzeppelin/contracts/token/ERC1155/ERC1155.sol\":2852:2882  new uint256[](accounts.length) */\n      0xffffffffffffffff\n      dup2\n      gt\n      iszero\n      tag_93\n      jumpi\n      tag_94\n      tag_95\n      jump\t// in\n    tag_94:\n    tag_93:\n      mload(0x40)\n      swap1\n      dup1\n      dup3\n      mstore\n      dup1\n      0x20\n      mul\n      0x20\n      add\n      dup3\n      add\n      0x40\n      mstore\n      dup1\n      iszero\n      tag_96\n      jumpi\n      dup2\n      0x20\n      add\n      0x20\n      dup3\n      mul\n      dup1\n      calldatasize\n      dup4\n      calldatacopy\n      dup1\n      dup3\n      add\n      swap2\n      pop\n      pop\n      swap1\n      pop\n    tag_96:\n      pop\n        /* \"@openzeppelin/contracts/token/ERC1155/ERC1155.sol\":2819:2882  uint256[] memory batchBalances = new uint256[](accounts.length) */\n      swap1\n      pop\n        /* \"@openzeppelin/contracts/token/ERC1155/ERC1155.sol\":2898:2907  uint256 i */\n      0x00\n        /* \"@openzeppelin/contracts/token/ERC1155/ERC1155.sol\":2893:3051  for (uint256 i = 0; i < accounts.length; ++i) {... */\n    tag_97:\n        /* \"@openzeppelin/contracts/token/ERC1155/ERC1155.sol\":2917:2925  accounts */\n      dup5\n        /* \"@openzeppelin/contracts/token/ERC1155/ERC1155.sol\":2917:2932  accounts.length */\n      mload\n        /* \"@openzeppelin/contracts/token/ERC1155/ERC1155.sol\":2913:2914  i */\n      dup2\n        /* \"@openzeppelin/contracts/token/ERC1155/ERC1155.sol\":2913:2932  i < accounts.length */\n      lt\n        /* \"@openzeppelin/contracts/token/ERC1155/ERC1155.sol\":2893:3051  for (uint256 i = 0; i < accounts.length; ++i) {... */\n      iszero\n      tag_98\n      jumpi\n        /* \"@openzeppelin/contracts/token/ERC1155/ERC1155.sol\":2972:3040  balanceOf(accounts.unsafeMemoryAccess(i), ids.unsafeMemoryAccess(i)) */\n      tag_100\n        /* \"@openzeppelin/contracts/token/ERC1155/ERC1155.sol\":2982:3012  accounts.unsafeMemoryAccess(i) */\n      tag_101\n        /* \"@openzeppelin/contracts/token/ERC1155/ERC1155.sol\":3010:3011  i */\n      dup3\n        /* \"@openzeppelin/contracts/token/ERC1155/ERC1155.sol\":2982:2990  accounts */\n      dup8\n        /* \"@openzeppelin/contracts/token/ERC1155/ERC1155.sol\":2982:3009  accounts.unsafeMemoryAccess */\n      tag_102\n      swap1\n        /* \"@openzeppelin/contracts/token/ERC1155/ERC1155.sol\":2982:3012  accounts.unsafeMemoryAccess(i) */\n      swap2\n      swap1\n      0xffffffff\n      and\n      jump\t// in\n    tag_101:\n        /* \"@openzeppelin/contracts/token/ERC1155/ERC1155.sol\":3014:3039  ids.unsafeMemoryAccess(i) */\n      tag_103\n        /* \"@openzeppelin/contracts/token/ERC1155/ERC1155.sol\":3037:3038  i */\n      dup4\n        /* \"@openzeppelin/contracts/token/ERC1155/ERC1155.sol\":3014:3017  ids */\n      dup8\n        /* \"@openzeppelin/contracts/token/ERC1155/ERC1155.sol\":3014:3036  ids.unsafeMemoryAccess */\n      tag_104\n      swap1\n        /* \"@openzeppelin/contracts/token/ERC1155/ERC1155.sol\":3014:3039  ids.unsafeMemoryAccess(i) */\n      swap2\n      swap1\n      0xffffffff\n      and\n      jump\t// in\n    tag_103:\n        /* \"@openzeppelin/contracts/token/ERC1155/ERC1155.sol\":2972:2981  balanceOf */\n      tag_17\n        /* \"@openzeppelin/contracts/token/ERC1155/ERC1155.sol\":2972:3040  balanceOf(accounts.unsafeMemoryAccess(i), ids.unsafeMemoryAccess(i)) */\n      jump\t// in\n    tag_100:\n        /* \"@openzeppelin/contracts/token/ERC1155/ERC1155.sol\":2953:2966  batchBalances */\n      dup3\n        /* \"@openzeppelin/contracts/token/ERC1155/ERC1155.sol\":2967:2968  i */\n      dup3\n        /* \"@openzeppelin/contracts/token/ERC1155/ERC1155.sol\":2953:2969  batchBalances[i] */\n      dup2\n      mload\n      dup2\n      lt\n      tag_105\n      jumpi\n      tag_106\n      tag_107\n      jump\t// in\n    tag_106:\n    tag_105:\n      0x20\n      mul\n      0x20\n      add\n      add\n        /* \"@openzeppelin/contracts/token/ERC1155/ERC1155.sol\":2953:3040  batchBalances[i] = balanceOf(accounts.unsafeMemoryAccess(i), ids.unsafeMemoryAccess(i)) */\n      dup2\n      dup2\n      mstore\n      pop\n      pop\n        /* \"@openzeppelin/contracts/token/ERC1155/ERC1155.sol\":2934:2937  ++i */\n      dup1\n      0x01\n      add\n      swap1\n      pop\n        /* \"@openzeppelin/contracts/token/ERC1155/ERC1155.sol\":2893:3051  for (uint256 i = 0; i < accounts.length; ++i) {... */\n      jump(tag_97)\n    tag_98:\n      pop\n        /* \"@openzeppelin/contracts/token/ERC1155/ERC1155.sol\":3068:3081  batchBalances */\n      dup1\n        /* \"@openzeppelin/contracts/token/ERC1155/ERC1155.sol\":3061:3081  return batchBalances */\n      swap2\n      pop\n      pop\n        /* \"@openzeppelin/contracts/token/ERC1155/ERC1155.sol\":2536:3088  function balanceOfBatch(... */\n      swap3\n      swap2\n      pop\n      pop\n      jump\t// out\n        /* \"MintNFT.sol\":186:206  string public symbol */\n    tag_46:\n      0x04\n      dup1\n      sload\n      tag_108\n      swap1\n      tag_68\n      jump\t// in\n    tag_108:\n      dup1\n      0x1f\n      add\n      0x20\n      dup1\n      swap2\n      div\n      mul\n      0x20\n      add\n      mload(0x40)\n      swap1\n      dup2\n      add\n      0x40\n      mstore\n      dup1\n      swap3\n      swap2\n      swap1\n      dup2\n      dup2\n      mstore\n      0x20\n      add\n      dup3\n      dup1\n      sload\n      tag_109\n      swap1\n      tag_68\n      jump\t// in\n    tag_109:\n      dup1\n      iszero\n      tag_110\n      jumpi\n      dup1\n      0x1f\n      lt\n      tag_111\n      jumpi\n      0x0100\n      dup1\n      dup4\n      sload\n      div\n      mul\n      dup4\n      mstore\n      swap2\n      0x20\n      add\n      swap2\n      jump(tag_110)\n    tag_111:\n      dup3\n      add\n      swap2\n      swap1\n      0x00\n      mstore\n      keccak256(0x00, 0x20)\n      swap1\n    tag_112:\n      dup2\n      sload\n      dup2\n      mstore\n      swap1\n      0x01\n      add\n      swap1\n      0x20\n      add\n      dup1\n      dup4\n      gt\n      tag_112\n      jumpi\n      dup3\n      swap1\n      sub\n      0x1f\n      and\n      dup3\n      add\n      swap2\n    tag_110:\n      pop\n      pop\n      pop\n      pop\n      pop\n      dup2\n      jump\t// out\n        /* \"@openzeppelin/contracts/token/ERC1155/ERC1155.sol\":3156:3300  function setApprovalForAll(address operator, bool approved) public virtual {... */\n    tag_51:\n        /* \"@openzeppelin/contracts/token/ERC1155/ERC1155.sol\":3241:3293  _setApprovalForAll(_msgSender(), operator, approved) */\n      tag_114\n        /* \"@openzeppelin/contracts/token/ERC1155/ERC1155.sol\":3260:3272  _msgSender() */\n      tag_115\n        /* \"@openzeppelin/contracts/token/ERC1155/ERC1155.sol\":3260:3270  _msgSender */\n      tag_81\n        /* \"@openzeppelin/contracts/token/ERC1155/ERC1155.sol\":3260:3272  _msgSender() */\n      jump\t// in\n    tag_115:\n        /* \"@openzeppelin/contracts/token/ERC1155/ERC1155.sol\":3274:3282  operator */\n      dup4\n        /* \"@openzeppelin/contracts/token/ERC1155/ERC1155.sol\":3284:3292  approved */\n      dup4\n        /* \"@openzeppelin/contracts/token/ERC1155/ERC1155.sol\":3241:3259  _setApprovalForAll */\n      tag_116\n        /* \"@openzeppelin/contracts/token/ERC1155/ERC1155.sol\":3241:3293  _setApprovalForAll(_msgSender(), operator, approved) */\n      jump\t// in\n    tag_114:\n        /* \"@openzeppelin/contracts/token/ERC1155/ERC1155.sol\":3156:3300  function setApprovalForAll(address operator, bool approved) public virtual {... */\n      pop\n      pop\n      jump\t// out\n        /* \"@openzeppelin/contracts/token/ERC1155/ERC1155.sol\":3367:3524  function isApprovedForAll(address account, address operator) public view virtual returns (bool) {... */\n    tag_55:\n        /* \"@openzeppelin/contracts/token/ERC1155/ERC1155.sol\":3457:3461  bool */\n      0x00\n        /* \"@openzeppelin/contracts/token/ERC1155/ERC1155.sol\":3480:3498  _operatorApprovals */\n      0x01\n        /* \"@openzeppelin/contracts/token/ERC1155/ERC1155.sol\":3480:3507  _operatorApprovals[account] */\n      0x00\n        /* \"@openzeppelin/contracts/token/ERC1155/ERC1155.sol\":3499:3506  account */\n      dup5\n        /* \"@openzeppelin/contracts/token/ERC1155/ERC1155.sol\":3480:3507  _operatorApprovals[account] */\n      0xffffffffffffffffffffffffffffffffffffffff\n      and\n      0xffffffffffffffffffffffffffffffffffffffff\n      and\n      dup2\n      mstore\n      0x20\n      add\n      swap1\n      dup2\n      mstore\n      0x20\n      add\n      0x00\n      keccak256\n        /* \"@openzeppelin/contracts/token/ERC1155/ERC1155.sol\":3480:3517  _operatorApprovals[account][operator] */\n      0x00\n        /* \"@openzeppelin/contracts/token/ERC1155/ERC1155.sol\":3508:3516  operator */\n      dup4\n        /* \"@openzeppelin/contracts/token/ERC1155/ERC1155.sol\":3480:3517  _operatorApprovals[account][operator] */\n      0xffffffffffffffffffffffffffffffffffffffff\n      and\n      0xffffffffffffffffffffffffffffffffffffffff\n      and\n      dup2\n      mstore\n      0x20\n      add\n      swap1\n      dup2\n      mstore\n      0x20\n      add\n      0x00\n      keccak256\n      0x00\n      swap1\n      sload\n      swap1\n      0x0100\n      exp\n      swap1\n      div\n      0xff\n      and\n        /* \"@openzeppelin/contracts/token/ERC1155/ERC1155.sol\":3473:3517  return _operatorApprovals[account][operator] */\n      swap1\n      pop\n        /* \"@openzeppelin/contracts/token/ERC1155/ERC1155.sol\":3367:3524  function isApprovedForAll(address account, address operator) public view virtual returns (bool) {... */\n      swap3\n      swap2\n      pop\n      pop\n      jump\t// out\n        /* \"@openzeppelin/contracts/token/ERC1155/ERC1155.sol\":3591:3942  function safeTransferFrom(address from, address to, uint256 id, uint256 value, bytes memory data) public virtual {... */\n    tag_60:\n        /* \"@openzeppelin/contracts/token/ERC1155/ERC1155.sol\":3714:3728  address sender */\n      0x00\n        /* \"@openzeppelin/contracts/token/ERC1155/ERC1155.sol\":3731:3743  _msgSender() */\n      tag_119\n        /* \"@openzeppelin/contracts/token/ERC1155/ERC1155.sol\":3731:3741  _msgSender */\n      tag_81\n        /* \"@openzeppelin/contracts/token/ERC1155/ERC1155.sol\":3731:3743  _msgSender() */\n      jump\t// in\n    tag_119:\n        /* \"@openzeppelin/contracts/token/ERC1155/ERC1155.sol\":3714:3743  address sender = _msgSender() */\n      swap1\n      pop\n        /* \"@openzeppelin/contracts/token/ERC1155/ERC1155.sol\":3765:3771  sender */\n      dup1\n        /* \"@openzeppelin/contracts/token/ERC1155/ERC1155.sol\":3757:3771  from != sender */\n      0xffffffffffffffffffffffffffffffffffffffff\n      and\n        /* \"@openzeppelin/contracts/token/ERC1155/ERC1155.sol\":3757:3761  from */\n      dup7\n        /* \"@openzeppelin/contracts/token/ERC1155/ERC1155.sol\":3757:3771  from != sender */\n      0xffffffffffffffffffffffffffffffffffffffff\n      and\n      eq\n      iszero\n        /* \"@openzeppelin/contracts/token/ERC1155/ERC1155.sol\":3757:3806  from != sender && !isApprovedForAll(from, sender) */\n      dup1\n      iszero\n      tag_120\n      jumpi\n      pop\n        /* \"@openzeppelin/contracts/token/ERC1155/ERC1155.sol\":3776:3806  isApprovedForAll(from, sender) */\n      tag_121\n        /* \"@openzeppelin/contracts/token/ERC1155/ERC1155.sol\":3793:3797  from */\n      dup7\n        /* \"@openzeppelin/contracts/token/ERC1155/ERC1155.sol\":3799:3805  sender */\n      dup3\n        /* \"@openzeppelin/contracts/token/ERC1155/ERC1155.sol\":3776:3792  isApprovedForAll */\n      tag_55\n        /* \"@openzeppelin/contracts/token/ERC1155/ERC1155.sol\":3776:3806  isApprovedForAll(from, sender) */\n      jump\t// in\n    tag_121:\n        /* \"@openzeppelin/contracts/token/ERC1155/ERC1155.sol\":3775:3806  !isApprovedForAll(from, sender) */\n      iszero\n        /* \"@openzeppelin/contracts/token/ERC1155/ERC1155.sol\":3757:3806  from != sender && !isApprovedForAll(from, sender) */\n    tag_120:\n        /* \"@openzeppelin/contracts/token/ERC1155/ERC1155.sol\":3753:3882  if (from != sender && !isApprovedForAll(from, sender)) {... */\n      iszero\n      tag_122\n      jumpi\n        /* \"@openzeppelin/contracts/token/ERC1155/ERC1155.sol\":3858:3864  sender */\n      dup1\n        /* \"@openzeppelin/contracts/token/ERC1155/ERC1155.sol\":3866:3870  from */\n      dup7\n        /* \"@openzeppelin/contracts/token/ERC1155/ERC1155.sol\":3829:3871  ERC1155MissingApprovalForAll(sender, from) */\n      mload(0x40)\n      0xe237d92200000000000000000000000000000000000000000000000000000000\n      dup2\n      mstore\n      0x04\n      add\n      tag_123\n      swap3\n      swap2\n      swap1\n      tag_86\n      jump\t// in\n    tag_123:\n      mload(0x40)\n      dup1\n      swap2\n      sub\n      swap1\n      revert\n        /* \"@openzeppelin/contracts/token/ERC1155/ERC1155.sol\":3753:3882  if (from != sender && !isApprovedForAll(from, sender)) {... */\n    tag_122:\n        /* \"@openzeppelin/contracts/token/ERC1155/ERC1155.sol\":3891:3935  _safeTransferFrom(from, to, id, value, data) */\n      tag_124\n        /* \"@openzeppelin/contracts/token/ERC1155/ERC1155.sol\":3909:3913  from */\n      dup7\n        /* \"@openzeppelin/contracts/token/ERC1155/ERC1155.sol\":3915:3917  to */\n      dup7\n        /* \"@openzeppelin/contracts/token/ERC1155/ERC1155.sol\":3919:3921  id */\n      dup7\n        /* \"@openzeppelin/contracts/token/ERC1155/ERC1155.sol\":3923:3928  value */\n      dup7\n        /* \"@openzeppelin/contracts/token/ERC1155/ERC1155.sol\":3930:3934  data */\n      dup7\n        /* \"@openzeppelin/contracts/token/ERC1155/ERC1155.sol\":3891:3908  _safeTransferFrom */\n      tag_125\n        /* \"@openzeppelin/contracts/token/ERC1155/ERC1155.sol\":3891:3935  _safeTransferFrom(from, to, id, value, data) */\n      jump\t// in\n    tag_124:\n        /* \"@openzeppelin/contracts/token/ERC1155/ERC1155.sol\":3704:3942  {... */\n      pop\n        /* \"@openzeppelin/contracts/token/ERC1155/ERC1155.sol\":3591:3942  function safeTransferFrom(address from, address to, uint256 id, uint256 value, bytes memory data) public virtual {... */\n      pop\n      pop\n      pop\n      pop\n      pop\n      jump\t// out\n        /* \"@openzeppelin/contracts/utils/introspection/ERC165.sol\":762:908  function supportsInterface(bytes4 interfaceId) public view virtual returns (bool) {... */\n    tag_66:\n        /* \"@openzeppelin/contracts/utils/introspection/ERC165.sol\":838:842  bool */\n      0x00\n        /* \"@openzeppelin/contracts/utils/introspection/ERC165.sol\":876:901  type(IERC165).interfaceId */\n      0x01ffc9a700000000000000000000000000000000000000000000000000000000\n        /* \"@openzeppelin/contracts/utils/introspection/ERC165.sol\":861:901  interfaceId == type(IERC165).interfaceId */\n      not(0xffffffffffffffffffffffffffffffffffffffffffffffffffffffff)\n      and\n        /* \"@openzeppelin/contracts/utils/introspection/ERC165.sol\":861:872  interfaceId */\n      dup3\n        /* \"@openzeppelin/contracts/utils/introspection/ERC165.sol\":861:901  interfaceId == type(IERC165).interfaceId */\n      not(0xffffffffffffffffffffffffffffffffffffffffffffffffffffffff)\n      and\n      eq\n        /* \"@openzeppelin/contracts/utils/introspection/ERC165.sol\":854:901  return interfaceId == type(IERC165).interfaceId */\n      swap1\n      pop\n        /* \"@openzeppelin/contracts/utils/introspection/ERC165.sol\":762:908  function supportsInterface(bytes4 interfaceId) public view virtual returns (bool) {... */\n      swap2\n      swap1\n      pop\n      jump\t// out\n        /* \"@openzeppelin/contracts/utils/Context.sol\":656:752  function _msgSender() internal view virtual returns (address) {... */\n    tag_81:\n        /* \"@openzeppelin/contracts/utils/Context.sol\":709:716  address */\n      0x00\n        /* \"@openzeppelin/contracts/utils/Context.sol\":735:745  msg.sender */\n      caller\n        /* \"@openzeppelin/contracts/utils/Context.sol\":728:745  return msg.sender */\n      swap1\n      pop\n        /* \"@openzeppelin/contracts/utils/Context.sol\":656:752  function _msgSender() internal view virtual returns (address) {... */\n      swap1\n      jump\t// out\n        /* \"@openzeppelin/contracts/token/ERC1155/ERC1155.sol\":9015:9460  function _safeBatchTransferFrom(... */\n    tag_88:\n        /* \"@openzeppelin/contracts/token/ERC1155/ERC1155.sol\":9222:9223  0 */\n      0x00\n        /* \"@openzeppelin/contracts/token/ERC1155/ERC1155.sol\":9208:9224  to == address(0) */\n      0xffffffffffffffffffffffffffffffffffffffff\n      and\n        /* \"@openzeppelin/contracts/token/ERC1155/ERC1155.sol\":9208:9210  to */\n      dup5\n        /* \"@openzeppelin/contracts/token/ERC1155/ERC1155.sol\":9208:9224  to == address(0) */\n      0xffffffffffffffffffffffffffffffffffffffff\n      and\n      sub\n        /* \"@openzeppelin/contracts/token/ERC1155/ERC1155.sol\":9204:9292  if (to == address(0)) {... */\n      tag_129\n      jumpi\n        /* \"@openzeppelin/contracts/token/ERC1155/ERC1155.sol\":9278:9279  0 */\n      0x00\n        /* \"@openzeppelin/contracts/token/ERC1155/ERC1155.sol\":9247:9281  ERC1155InvalidReceiver(address(0)) */\n      mload(0x40)\n      0x57f447ce00000000000000000000000000000000000000000000000000000000\n      dup2\n      mstore\n      0x04\n      add\n      tag_130\n      swap2\n      swap1\n      tag_131\n      jump\t// in\n    tag_130:\n      mload(0x40)\n      dup1\n      swap2\n      sub\n      swap1\n      revert\n        /* \"@openzeppelin/contracts/token/ERC1155/ERC1155.sol\":9204:9292  if (to == address(0)) {... */\n    tag_129:\n        /* \"@openzeppelin/contracts/token/ERC1155/ERC1155.sol\":9321:9322  0 */\n      0x00\n        /* \"@openzeppelin/contracts/token/ERC1155/ERC1155.sol\":9305:9323  from == address(0) */\n      0xffffffffffffffffffffffffffffffffffffffff\n      and\n        /* \"@openzeppelin/contracts/token/ERC1155/ERC1155.sol\":9305:9309  from */\n      dup6\n        /* \"@openzeppelin/contracts/token/ERC1155/ERC1155.sol\":9305:9323  from == address(0) */\n      0xffffffffffffffffffffffffffffffffffffffff\n      and\n      sub\n        /* \"@openzeppelin/contracts/token/ERC1155/ERC1155.sol\":9301:9389  if (from == address(0)) {... */\n      tag_132\n      jumpi\n        /* \"@openzeppelin/contracts/token/ERC1155/ERC1155.sol\":9375:9376  0 */\n      0x00\n        /* \"@openzeppelin/contracts/token/ERC1155/ERC1155.sol\":9346:9378  ERC1155InvalidSender(address(0)) */\n      mload(0x40)\n      0x01a8351400000000000000000000000000000000000000000000000000000000\n      dup2\n      mstore\n      0x04\n      add\n      tag_133\n      swap2\n      swap1\n      tag_131\n      jump\t// in\n    tag_133:\n      mload(0x40)\n      dup1\n      swap2\n      sub\n      swap1\n      revert\n        /* \"@openzeppelin/contracts/token/ERC1155/ERC1155.sol\":9301:9389  if (from == address(0)) {... */\n    tag_132:\n        /* \"@openzeppelin/contracts/token/ERC1155/ERC1155.sol\":9398:9453  _updateWithAcceptanceCheck(from, to, ids, values, data) */\n      tag_134\n        /* \"@openzeppelin/contracts/token/ERC1155/ERC1155.sol\":9425:9429  from */\n      dup6\n        /* \"@openzeppelin/contracts/token/ERC1155/ERC1155.sol\":9431:9433  to */\n      dup6\n        /* \"@openzeppelin/contracts/token/ERC1155/ERC1155.sol\":9435:9438  ids */\n      dup6\n        /* \"@openzeppelin/contracts/token/ERC1155/ERC1155.sol\":9440:9446  values */\n      dup6\n        /* \"@openzeppelin/contracts/token/ERC1155/ERC1155.sol\":9448:9452  data */\n      dup6\n        /* \"@openzeppelin/contracts/token/ERC1155/ERC1155.sol\":9398:9424  _updateWithAcceptanceCheck */\n      tag_135\n        /* \"@openzeppelin/contracts/token/ERC1155/ERC1155.sol\":9398:9453  _updateWithAcceptanceCheck(from, to, ids, values, data) */\n      jump\t// in\n    tag_134:\n        /* \"@openzeppelin/contracts/token/ERC1155/ERC1155.sol\":9015:9460  function _safeBatchTransferFrom(... */\n      pop\n      pop\n      pop\n      pop\n      pop\n      jump\t// out\n        /* \"@openzeppelin/contracts/utils/Arrays.sol\":4603:4800  function unsafeMemoryAccess(address[] memory arr, uint256 pos) internal pure returns (address res) {... */\n    tag_102:\n        /* \"@openzeppelin/contracts/utils/Arrays.sol\":4689:4700  address res */\n      0x00\n        /* \"@openzeppelin/contracts/utils/Arrays.sol\":4777:4781  0x20 */\n      0x20\n        /* \"@openzeppelin/contracts/utils/Arrays.sol\":4772:4775  pos */\n      dup3\n        /* \"@openzeppelin/contracts/utils/Arrays.sol\":4768:4782  mul(pos, 0x20) */\n      mul\n        /* \"@openzeppelin/contracts/utils/Arrays.sol\":4761:4765  0x20 */\n      0x20\n        /* \"@openzeppelin/contracts/utils/Arrays.sol\":4756:4759  arr */\n      dup5\n        /* \"@openzeppelin/contracts/utils/Arrays.sol\":4752:4766  add(arr, 0x20) */\n      add\n        /* \"@openzeppelin/contracts/utils/Arrays.sol\":4748:4783  add(add(arr, 0x20), mul(pos, 0x20)) */\n      add\n        /* \"@openzeppelin/contracts/utils/Arrays.sol\":4742:4784  mload(add(add(arr, 0x20), mul(pos, 0x20))) */\n      mload\n        /* \"@openzeppelin/contracts/utils/Arrays.sol\":4735:4784  res := mload(add(add(arr, 0x20), mul(pos, 0x20))) */\n      swap1\n      pop\n        /* \"@openzeppelin/contracts/utils/Arrays.sol\":4603:4800  function unsafeMemoryAccess(address[] memory arr, uint256 pos) internal pure returns (address res) {... */\n      swap3\n      swap2\n      pop\n      pop\n      jump\t// out\n        /* \"@openzeppelin/contracts/utils/Arrays.sol\":4204:4401  function unsafeMemoryAccess(uint256[] memory arr, uint256 pos) internal pure returns (uint256 res) {... */\n    tag_104:\n        /* \"@openzeppelin/contracts/utils/Arrays.sol\":4290:4301  uint256 res */\n      0x00\n        /* \"@openzeppelin/contracts/utils/Arrays.sol\":4378:4382  0x20 */\n      0x20\n        /* \"@openzeppelin/contracts/utils/Arrays.sol\":4373:4376  pos */\n      dup3\n        /* \"@openzeppelin/contracts/utils/Arrays.sol\":4369:4383  mul(pos, 0x20) */\n      mul\n        /* \"@openzeppelin/contracts/utils/Arrays.sol\":4362:4366  0x20 */\n      0x20\n        /* \"@openzeppelin/contracts/utils/Arrays.sol\":4357:4360  arr */\n      dup5\n        /* \"@openzeppelin/contracts/utils/Arrays.sol\":4353:4367  add(arr, 0x20) */\n      add\n        /* \"@openzeppelin/contracts/utils/Arrays.sol\":4349:4384  add(add(arr, 0x20), mul(pos, 0x20)) */\n      add\n        /* \"@openzeppelin/contracts/utils/Arrays.sol\":4343:4385  mload(add(add(arr, 0x20), mul(pos, 0x20))) */\n      mload\n        /* \"@openzeppelin/contracts/utils/Arrays.sol\":4336:4385  res := mload(add(add(arr, 0x20), mul(pos, 0x20))) */\n      swap1\n      pop\n        /* \"@openzeppelin/contracts/utils/Arrays.sol\":4204:4401  function unsafeMemoryAccess(uint256[] memory arr, uint256 pos) internal pure returns (uint256 res) {... */\n      swap3\n      swap2\n      pop\n      pop\n      jump\t// out\n        /* \"@openzeppelin/contracts/token/ERC1155/ERC1155.sol\":13268:13583  function _setApprovalForAll(address owner, address operator, bool approved) internal virtual {... */\n    tag_116:\n        /* \"@openzeppelin/contracts/token/ERC1155/ERC1155.sol\":13395:13396  0 */\n      0x00\n        /* \"@openzeppelin/contracts/token/ERC1155/ERC1155.sol\":13375:13397  operator == address(0) */\n      0xffffffffffffffffffffffffffffffffffffffff\n      and\n        /* \"@openzeppelin/contracts/token/ERC1155/ERC1155.sol\":13375:13383  operator */\n      dup3\n        /* \"@openzeppelin/contracts/token/ERC1155/ERC1155.sol\":13375:13397  operator == address(0) */\n      0xffffffffffffffffffffffffffffffffffffffff\n      and\n      sub\n        /* \"@openzeppelin/contracts/token/ERC1155/ERC1155.sol\":13371:13465  if (operator == address(0)) {... */\n      tag_139\n      jumpi\n        /* \"@openzeppelin/contracts/token/ERC1155/ERC1155.sol\":13451:13452  0 */\n      0x00\n        /* \"@openzeppelin/contracts/token/ERC1155/ERC1155.sol\":13420:13454  ERC1155InvalidOperator(address(0)) */\n      mload(0x40)\n      0xced3e10000000000000000000000000000000000000000000000000000000000\n      dup2\n      mstore\n      0x04\n      add\n      tag_140\n      swap2\n      swap1\n      tag_131\n      jump\t// in\n    tag_140:\n      mload(0x40)\n      dup1\n      swap2\n      sub\n      swap1\n      revert\n        /* \"@openzeppelin/contracts/token/ERC1155/ERC1155.sol\":13371:13465  if (operator == address(0)) {... */\n    tag_139:\n        /* \"@openzeppelin/contracts/token/ERC1155/ERC1155.sol\":13512:13520  approved */\n      dup1\n        /* \"@openzeppelin/contracts/token/ERC1155/ERC1155.sol\":13474:13492  _operatorApprovals */\n      0x01\n        /* \"@openzeppelin/contracts/token/ERC1155/ERC1155.sol\":13474:13499  _operatorApprovals[owner] */\n      0x00\n        /* \"@openzeppelin/contracts/token/ERC1155/ERC1155.sol\":13493:13498  owner */\n      dup6\n        /* \"@openzeppelin/contracts/token/ERC1155/ERC1155.sol\":13474:13499  _operatorApprovals[owner] */\n      0xffffffffffffffffffffffffffffffffffffffff\n      and\n      0xffffffffffffffffffffffffffffffffffffffff\n      and\n      dup2\n      mstore\n      0x20\n      add\n      swap1\n      dup2\n      mstore\n      0x20\n      add\n      0x00\n      keccak256\n        /* \"@openzeppelin/contracts/token/ERC1155/ERC1155.sol\":13474:13509  _operatorApprovals[owner][operator] */\n      0x00\n        /* \"@openzeppelin/contracts/token/ERC1155/ERC1155.sol\":13500:13508  operator */\n      dup5\n        /* \"@openzeppelin/contracts/token/ERC1155/ERC1155.sol\":13474:13509  _operatorApprovals[owner][operator] */\n      0xffffffffffffffffffffffffffffffffffffffff\n      and\n      0xffffffffffffffffffffffffffffffffffffffff\n      and\n      dup2\n      mstore\n      0x20\n      add\n      swap1\n      dup2\n      mstore\n      0x20\n      add\n      0x00\n      keccak256\n      0x00\n        /* \"@openzeppelin/contracts/token/ERC1155/ERC1155.sol\":13474:13520  _operatorApprovals[owner][operator] = approved */\n      0x0100\n      exp\n      dup2\n      sload\n      dup2\n      0xff\n      mul\n      not\n      and\n      swap1\n      dup4\n      iszero\n      iszero\n      mul\n      or\n      swap1\n      sstore\n      pop\n        /* \"@openzeppelin/contracts/token/ERC1155/ERC1155.sol\":13557:13565  operator */\n      dup2\n        /* \"@openzeppelin/contracts/token/ERC1155/ERC1155.sol\":13535:13576  ApprovalForAll(owner, operator, approved) */\n      0xffffffffffffffffffffffffffffffffffffffff\n      and\n        /* \"@openzeppelin/contracts/token/ERC1155/ERC1155.sol\":13550:13555  owner */\n      dup4\n        /* \"@openzeppelin/contracts/token/ERC1155/ERC1155.sol\":13535:13576  ApprovalForAll(owner, operator, approved) */\n      0xffffffffffffffffffffffffffffffffffffffff\n      and\n      0x17307eab39ab6107e8899845ad3d59bd9653f200f220920489ca2b5937696c31\n        /* \"@openzeppelin/contracts/token/ERC1155/ERC1155.sol\":13567:13575  approved */\n      dup4\n        /* \"@openzeppelin/contracts/token/ERC1155/ERC1155.sol\":13535:13576  ApprovalForAll(owner, operator, approved) */\n      mload(0x40)\n      tag_141\n      swap2\n      swap1\n      tag_25\n      jump\t// in\n    tag_141:\n      mload(0x40)\n      dup1\n      swap2\n      sub\n      swap1\n      log3\n        /* \"@openzeppelin/contracts/token/ERC1155/ERC1155.sol\":13268:13583  function _setApprovalForAll(address owner, address operator, bool approved) internal virtual {... */\n      pop\n      pop\n      pop\n      jump\t// out\n        /* \"@openzeppelin/contracts/token/ERC1155/ERC1155.sol\":8151:8614  function _safeTransferFrom(address from, address to, uint256 id, uint256 value, bytes memory data) internal {... */\n    tag_125:\n        /* \"@openzeppelin/contracts/token/ERC1155/ERC1155.sol\":8287:8288  0 */\n      0x00\n        /* \"@openzeppelin/contracts/token/ERC1155/ERC1155.sol\":8273:8289  to == address(0) */\n      0xffffffffffffffffffffffffffffffffffffffff\n      and\n        /* \"@openzeppelin/contracts/token/ERC1155/ERC1155.sol\":8273:8275  to */\n      dup5\n        /* \"@openzeppelin/contracts/token/ERC1155/ERC1155.sol\":8273:8289  to == address(0) */\n      0xffffffffffffffffffffffffffffffffffffffff\n      and\n      sub\n        /* \"@openzeppelin/contracts/token/ERC1155/ERC1155.sol\":8269:8357  if (to == address(0)) {... */\n      tag_143\n      jumpi\n        /* \"@openzeppelin/contracts/token/ERC1155/ERC1155.sol\":8343:8344  0 */\n      0x00\n        /* \"@openzeppelin/contracts/token/ERC1155/ERC1155.sol\":8312:8346  ERC1155InvalidReceiver(address(0)) */\n      mload(0x40)\n      0x57f447ce00000000000000000000000000000000000000000000000000000000\n      dup2\n      mstore\n      0x04\n      add\n      tag_144\n      swap2\n      swap1\n      tag_131\n      jump\t// in\n    tag_144:\n      mload(0x40)\n      dup1\n      swap2\n      sub\n      swap1\n      revert\n        /* \"@openzeppelin/contracts/token/ERC1155/ERC1155.sol\":8269:8357  if (to == address(0)) {... */\n    tag_143:\n        /* \"@openzeppelin/contracts/token/ERC1155/ERC1155.sol\":8386:8387  0 */\n      0x00\n        /* \"@openzeppelin/contracts/token/ERC1155/ERC1155.sol\":8370:8388  from == address(0) */\n      0xffffffffffffffffffffffffffffffffffffffff\n      and\n        /* \"@openzeppelin/contracts/token/ERC1155/ERC1155.sol\":8370:8374  from */\n      dup6\n        /* \"@openzeppelin/contracts/token/ERC1155/ERC1155.sol\":8370:8388  from == address(0) */\n      0xffffffffffffffffffffffffffffffffffffffff\n      and\n      sub\n        /* \"@openzeppelin/contracts/token/ERC1155/ERC1155.sol\":8366:8454  if (from == address(0)) {... */\n      tag_145\n      jumpi\n        /* \"@openzeppelin/contracts/token/ERC1155/ERC1155.sol\":8440:8441  0 */\n      0x00\n        /* \"@openzeppelin/contracts/token/ERC1155/ERC1155.sol\":8411:8443  ERC1155InvalidSender(address(0)) */\n      mload(0x40)\n      0x01a8351400000000000000000000000000000000000000000000000000000000\n      dup2\n      mstore\n      0x04\n      add\n      tag_146\n      swap2\n      swap1\n      tag_131\n      jump\t// in\n    tag_146:\n      mload(0x40)\n      dup1\n      swap2\n      sub\n      swap1\n      revert\n        /* \"@openzeppelin/contracts/token/ERC1155/ERC1155.sol\":8366:8454  if (from == address(0)) {... */\n    tag_145:\n        /* \"@openzeppelin/contracts/token/ERC1155/ERC1155.sol\":8464:8484  uint256[] memory ids */\n      0x00\n        /* \"@openzeppelin/contracts/token/ERC1155/ERC1155.sol\":8486:8509  uint256[] memory values */\n      dup1\n        /* \"@openzeppelin/contracts/token/ERC1155/ERC1155.sol\":8513:8542  _asSingletonArrays(id, value) */\n      tag_147\n        /* \"@openzeppelin/contracts/token/ERC1155/ERC1155.sol\":8532:8534  id */\n      dup6\n        /* \"@openzeppelin/contracts/token/ERC1155/ERC1155.sol\":8536:8541  value */\n      dup6\n        /* \"@openzeppelin/contracts/token/ERC1155/ERC1155.sol\":8513:8531  _asSingletonArrays */\n      tag_148\n        /* \"@openzeppelin/contracts/token/ERC1155/ERC1155.sol\":8513:8542  _asSingletonArrays(id, value) */\n      jump\t// in\n    tag_147:\n        /* \"@openzeppelin/contracts/token/ERC1155/ERC1155.sol\":8463:8542  (uint256[] memory ids, uint256[] memory values) = _asSingletonArrays(id, value) */\n      swap2\n      pop\n      swap2\n      pop\n        /* \"@openzeppelin/contracts/token/ERC1155/ERC1155.sol\":8552:8607  _updateWithAcceptanceCheck(from, to, ids, values, data) */\n      tag_149\n        /* \"@openzeppelin/contracts/token/ERC1155/ERC1155.sol\":8579:8583  from */\n      dup8\n        /* \"@openzeppelin/contracts/token/ERC1155/ERC1155.sol\":8585:8587  to */\n      dup8\n        /* \"@openzeppelin/contracts/token/ERC1155/ERC1155.sol\":8589:8592  ids */\n      dup5\n        /* \"@openzeppelin/contracts/token/ERC1155/ERC1155.sol\":8594:8600  values */\n      dup5\n        /* \"@openzeppelin/contracts/token/ERC1155/ERC1155.sol\":8602:8606  data */\n      dup8\n        /* \"@openzeppelin/contracts/token/ERC1155/ERC1155.sol\":8552:8578  _updateWithAcceptanceCheck */\n      tag_135\n        /* \"@openzeppelin/contracts/token/ERC1155/ERC1155.sol\":8552:8607  _updateWithAcceptanceCheck(from, to, ids, values, data) */\n      jump\t// in\n    tag_149:\n        /* \"@openzeppelin/contracts/token/ERC1155/ERC1155.sol\":8259:8614  {... */\n      pop\n      pop\n        /* \"@openzeppelin/contracts/token/ERC1155/ERC1155.sol\":8151:8614  function _safeTransferFrom(address from, address to, uint256 id, uint256 value, bytes memory data) internal {... */\n      pop\n      pop\n      pop\n      pop\n      pop\n      jump\t// out\n        /* \"@openzeppelin/contracts/token/ERC1155/ERC1155.sol\":7004:7694  function _updateWithAcceptanceCheck(... */\n    tag_135:\n        /* \"@openzeppelin/contracts/token/ERC1155/ERC1155.sol\":7205:7235  _update(from, to, ids, values) */\n      tag_151\n        /* \"@openzeppelin/contracts/token/ERC1155/ERC1155.sol\":7213:7217  from */\n      dup6\n        /* \"@openzeppelin/contracts/token/ERC1155/ERC1155.sol\":7219:7221  to */\n      dup6\n        /* \"@openzeppelin/contracts/token/ERC1155/ERC1155.sol\":7223:7226  ids */\n      dup6\n        /* \"@openzeppelin/contracts/token/ERC1155/ERC1155.sol\":7228:7234  values */\n      dup6\n        /* \"@openzeppelin/contracts/token/ERC1155/ERC1155.sol\":7205:7212  _update */\n      tag_152\n        /* \"@openzeppelin/contracts/token/ERC1155/ERC1155.sol\":7205:7235  _update(from, to, ids, values) */\n      jump\t// in\n    tag_151:\n        /* \"@openzeppelin/contracts/token/ERC1155/ERC1155.sol\":7263:7264  0 */\n      0x00\n        /* \"@openzeppelin/contracts/token/ERC1155/ERC1155.sol\":7249:7265  to != address(0) */\n      0xffffffffffffffffffffffffffffffffffffffff\n      and\n        /* \"@openzeppelin/contracts/token/ERC1155/ERC1155.sol\":7249:7251  to */\n      dup5\n        /* \"@openzeppelin/contracts/token/ERC1155/ERC1155.sol\":7249:7265  to != address(0) */\n      0xffffffffffffffffffffffffffffffffffffffff\n      and\n      eq\n        /* \"@openzeppelin/contracts/token/ERC1155/ERC1155.sol\":7245:7688  if (to != address(0)) {... */\n      tag_153\n      jumpi\n        /* \"@openzeppelin/contracts/token/ERC1155/ERC1155.sol\":7281:7297  address operator */\n      0x00\n        /* \"@openzeppelin/contracts/token/ERC1155/ERC1155.sol\":7300:7312  _msgSender() */\n      tag_154\n        /* \"@openzeppelin/contracts/token/ERC1155/ERC1155.sol\":7300:7310  _msgSender */\n      tag_81\n        /* \"@openzeppelin/contracts/token/ERC1155/ERC1155.sol\":7300:7312  _msgSender() */\n      jump\t// in\n    tag_154:\n        /* \"@openzeppelin/contracts/token/ERC1155/ERC1155.sol\":7281:7312  address operator = _msgSender() */\n      swap1\n      pop\n        /* \"@openzeppelin/contracts/token/ERC1155/ERC1155.sol\":7344:7345  1 */\n      0x01\n        /* \"@openzeppelin/contracts/token/ERC1155/ERC1155.sol\":7330:7333  ids */\n      dup5\n        /* \"@openzeppelin/contracts/token/ERC1155/ERC1155.sol\":7330:7340  ids.length */\n      mload\n        /* \"@openzeppelin/contracts/token/ERC1155/ERC1155.sol\":7330:7345  ids.length == 1 */\n      sub\n        /* \"@openzeppelin/contracts/token/ERC1155/ERC1155.sol\":7326:7678  if (ids.length == 1) {... */\n      tag_155\n      jumpi\n        /* \"@openzeppelin/contracts/token/ERC1155/ERC1155.sol\":7365:7375  uint256 id */\n      0x00\n        /* \"@openzeppelin/contracts/token/ERC1155/ERC1155.sol\":7378:7403  ids.unsafeMemoryAccess(0) */\n      tag_156\n        /* \"@openzeppelin/contracts/token/ERC1155/ERC1155.sol\":7401:7402  0 */\n      0x00\n        /* \"@openzeppelin/contracts/token/ERC1155/ERC1155.sol\":7378:7381  ids */\n      dup7\n        /* \"@openzeppelin/contracts/token/ERC1155/ERC1155.sol\":7378:7400  ids.unsafeMemoryAccess */\n      tag_104\n      swap1\n        /* \"@openzeppelin/contracts/token/ERC1155/ERC1155.sol\":7378:7403  ids.unsafeMemoryAccess(0) */\n      swap2\n      swap1\n      0xffffffff\n      and\n      jump\t// in\n    tag_156:\n        /* \"@openzeppelin/contracts/token/ERC1155/ERC1155.sol\":7365:7403  uint256 id = ids.unsafeMemoryAccess(0) */\n      swap1\n      pop\n        /* \"@openzeppelin/contracts/token/ERC1155/ERC1155.sol\":7421:7434  uint256 value */\n      0x00\n        /* \"@openzeppelin/contracts/token/ERC1155/ERC1155.sol\":7437:7465  values.unsafeMemoryAccess(0) */\n      tag_157\n        /* \"@openzeppelin/contracts/token/ERC1155/ERC1155.sol\":7463:7464  0 */\n      0x00\n        /* \"@openzeppelin/contracts/token/ERC1155/ERC1155.sol\":7437:7443  values */\n      dup7\n        /* \"@openzeppelin/contracts/token/ERC1155/ERC1155.sol\":7437:7462  values.unsafeMemoryAccess */\n      tag_104\n      swap1\n        /* \"@openzeppelin/contracts/token/ERC1155/ERC1155.sol\":7437:7465  values.unsafeMemoryAccess(0) */\n      swap2\n      swap1\n      0xffffffff\n      and\n      jump\t// in\n    tag_157:\n        /* \"@openzeppelin/contracts/token/ERC1155/ERC1155.sol\":7421:7465  uint256 value = values.unsafeMemoryAccess(0) */\n      swap1\n      pop\n        /* \"@openzeppelin/contracts/token/ERC1155/ERC1155.sol\":7483:7550  _doSafeTransferAcceptanceCheck(operator, from, to, id, value, data) */\n      tag_158\n        /* \"@openzeppelin/contracts/token/ERC1155/ERC1155.sol\":7514:7522  operator */\n      dup4\n        /* \"@openzeppelin/contracts/token/ERC1155/ERC1155.sol\":7524:7528  from */\n      dup10\n        /* \"@openzeppelin/contracts/token/ERC1155/ERC1155.sol\":7530:7532  to */\n      dup10\n        /* \"@openzeppelin/contracts/token/ERC1155/ERC1155.sol\":7534:7536  id */\n      dup6\n        /* \"@openzeppelin/contracts/token/ERC1155/ERC1155.sol\":7538:7543  value */\n      dup6\n        /* \"@openzeppelin/contracts/token/ERC1155/ERC1155.sol\":7545:7549  data */\n      dup10\n        /* \"@openzeppelin/contracts/token/ERC1155/ERC1155.sol\":7483:7513  _doSafeTransferAcceptanceCheck */\n      tag_159\n        /* \"@openzeppelin/contracts/token/ERC1155/ERC1155.sol\":7483:7550  _doSafeTransferAcceptanceCheck(operator, from, to, id, value, data) */\n      jump\t// in\n    tag_158:\n        /* \"@openzeppelin/contracts/token/ERC1155/ERC1155.sol\":7347:7565  {... */\n      pop\n      pop\n        /* \"@openzeppelin/contracts/token/ERC1155/ERC1155.sol\":7326:7678  if (ids.length == 1) {... */\n      jump(tag_160)\n    tag_155:\n        /* \"@openzeppelin/contracts/token/ERC1155/ERC1155.sol\":7589:7663  _doSafeBatchTransferAcceptanceCheck(operator, from, to, ids, values, data) */\n      tag_161\n        /* \"@openzeppelin/contracts/token/ERC1155/ERC1155.sol\":7625:7633  operator */\n      dup2\n        /* \"@openzeppelin/contracts/token/ERC1155/ERC1155.sol\":7635:7639  from */\n      dup8\n        /* \"@openzeppelin/contracts/token/ERC1155/ERC1155.sol\":7641:7643  to */\n      dup8\n        /* \"@openzeppelin/contracts/token/ERC1155/ERC1155.sol\":7645:7648  ids */\n      dup8\n        /* \"@openzeppelin/contracts/token/ERC1155/ERC1155.sol\":7650:7656  values */\n      dup8\n        /* \"@openzeppelin/contracts/token/ERC1155/ERC1155.sol\":7658:7662  data */\n      dup8\n        /* \"@openzeppelin/contracts/token/ERC1155/ERC1155.sol\":7589:7624  _doSafeBatchTransferAcceptanceCheck */\n      tag_162\n        /* \"@openzeppelin/contracts/token/ERC1155/ERC1155.sol\":7589:7663  _doSafeBatchTransferAcceptanceCheck(operator, from, to, ids, values, data) */\n      jump\t// in\n    tag_161:\n        /* \"@openzeppelin/contracts/token/ERC1155/ERC1155.sol\":7326:7678  if (ids.length == 1) {... */\n    tag_160:\n        /* \"@openzeppelin/contracts/token/ERC1155/ERC1155.sol\":7267:7688  {... */\n      pop\n        /* \"@openzeppelin/contracts/token/ERC1155/ERC1155.sol\":7245:7688  if (to != address(0)) {... */\n    tag_153:\n        /* \"@openzeppelin/contracts/token/ERC1155/ERC1155.sol\":7004:7694  function _updateWithAcceptanceCheck(... */\n      pop\n      pop\n      pop\n      pop\n      pop\n      jump\t// out\n        /* \"@openzeppelin/contracts/token/ERC1155/ERC1155.sol\":16080:16929  function _asSingletonArrays(... */\n    tag_148:\n        /* \"@openzeppelin/contracts/token/ERC1155/ERC1155.sol\":16188:16211  uint256[] memory array1 */\n      0x60\n        /* \"@openzeppelin/contracts/token/ERC1155/ERC1155.sol\":16213:16236  uint256[] memory array2 */\n      dup1\n        /* \"@openzeppelin/contracts/token/ERC1155/ERC1155.sol\":16374:16378  0x40 */\n      0x40\n        /* \"@openzeppelin/contracts/token/ERC1155/ERC1155.sol\":16368:16379  mload(0x40) */\n      mload\n        /* \"@openzeppelin/contracts/token/ERC1155/ERC1155.sol\":16358:16379  array1 := mload(0x40) */\n      swap2\n      pop\n        /* \"@openzeppelin/contracts/token/ERC1155/ERC1155.sol\":16444:16445  1 */\n      0x01\n        /* \"@openzeppelin/contracts/token/ERC1155/ERC1155.sol\":16436:16442  array1 */\n      dup3\n        /* \"@openzeppelin/contracts/token/ERC1155/ERC1155.sol\":16429:16446  mstore(array1, 1) */\n      mstore\n        /* \"@openzeppelin/contracts/token/ERC1155/ERC1155.sol\":16582:16590  element1 */\n      dup4\n        /* \"@openzeppelin/contracts/token/ERC1155/ERC1155.sol\":16575:16579  0x20 */\n      0x20\n        /* \"@openzeppelin/contracts/token/ERC1155/ERC1155.sol\":16567:16573  array1 */\n      dup4\n        /* \"@openzeppelin/contracts/token/ERC1155/ERC1155.sol\":16563:16580  add(array1, 0x20) */\n      add\n        /* \"@openzeppelin/contracts/token/ERC1155/ERC1155.sol\":16556:16591  mstore(add(array1, 0x20), element1) */\n      mstore\n        /* \"@openzeppelin/contracts/token/ERC1155/ERC1155.sol\":16704:16708  0x40 */\n      0x40\n        /* \"@openzeppelin/contracts/token/ERC1155/ERC1155.sol\":16696:16702  array1 */\n      dup3\n        /* \"@openzeppelin/contracts/token/ERC1155/ERC1155.sol\":16692:16709  add(array1, 0x40) */\n      add\n        /* \"@openzeppelin/contracts/token/ERC1155/ERC1155.sol\":16682:16709  array2 := add(array1, 0x40) */\n      swap1\n      pop\n        /* \"@openzeppelin/contracts/token/ERC1155/ERC1155.sol\":16737:16738  1 */\n      0x01\n        /* \"@openzeppelin/contracts/token/ERC1155/ERC1155.sol\":16729:16735  array2 */\n      dup2\n        /* \"@openzeppelin/contracts/token/ERC1155/ERC1155.sol\":16722:16739  mstore(array2, 1) */\n      mstore\n        /* \"@openzeppelin/contracts/token/ERC1155/ERC1155.sol\":16778:16786  element2 */\n      dup3\n        /* \"@openzeppelin/contracts/token/ERC1155/ERC1155.sol\":16771:16775  0x20 */\n      0x20\n        /* \"@openzeppelin/contracts/token/ERC1155/ERC1155.sol\":16763:16769  array2 */\n      dup3\n        /* \"@openzeppelin/contracts/token/ERC1155/ERC1155.sol\":16759:16776  add(array2, 0x20) */\n      add\n        /* \"@openzeppelin/contracts/token/ERC1155/ERC1155.sol\":16752:16787  mstore(add(array2, 0x20), element2) */\n      mstore\n        /* \"@openzeppelin/contracts/token/ERC1155/ERC1155.sol\":16907:16911  0x40 */\n      0x40\n        /* \"@openzeppelin/contracts/token/ERC1155/ERC1155.sol\":16899:16905  array2 */\n      dup2\n        /* \"@openzeppelin/contracts/token/ERC1155/ERC1155.sol\":16895:16912  add(array2, 0x40) */\n      add\n        /* \"@openzeppelin/contracts/token/ERC1155/ERC1155.sol\":16889:16893  0x40 */\n      0x40\n        /* \"@openzeppelin/contracts/token/ERC1155/ERC1155.sol\":16882:16913  mstore(0x40, add(array2, 0x40)) */\n      mstore\n        /* \"@openzeppelin/contracts/token/ERC1155/ERC1155.sol\":16080:16929  function _asSingletonArrays(... */\n      swap3\n      pop\n      swap3\n      swap1\n      pop\n      jump\t// out\n        /* \"@openzeppelin/contracts/token/ERC1155/ERC1155.sol\":5144:6425  function _update(address from, address to, uint256[] memory ids, uint256[] memory values) internal virtual {... */\n    tag_152:\n        /* \"@openzeppelin/contracts/token/ERC1155/ERC1155.sol\":5279:5285  values */\n      dup1\n        /* \"@openzeppelin/contracts/token/ERC1155/ERC1155.sol\":5279:5292  values.length */\n      mload\n        /* \"@openzeppelin/contracts/token/ERC1155/ERC1155.sol\":5265:5268  ids */\n      dup3\n        /* \"@openzeppelin/contracts/token/ERC1155/ERC1155.sol\":5265:5275  ids.length */\n      mload\n        /* \"@openzeppelin/contracts/token/ERC1155/ERC1155.sol\":5265:5292  ids.length != values.length */\n      eq\n        /* \"@openzeppelin/contracts/token/ERC1155/ERC1155.sol\":5261:5378  if (ids.length != values.length) {... */\n      tag_165\n      jumpi\n        /* \"@openzeppelin/contracts/token/ERC1155/ERC1155.sol\":5341:5344  ids */\n      dup2\n        /* \"@openzeppelin/contracts/token/ERC1155/ERC1155.sol\":5341:5351  ids.length */\n      mload\n        /* \"@openzeppelin/contracts/token/ERC1155/ERC1155.sol\":5353:5359  values */\n      dup2\n        /* \"@openzeppelin/contracts/token/ERC1155/ERC1155.sol\":5353:5366  values.length */\n      mload\n        /* \"@openzeppelin/contracts/token/ERC1155/ERC1155.sol\":5315:5367  ERC1155InvalidArrayLength(ids.length, values.length) */\n      mload(0x40)\n      0x5b05999100000000000000000000000000000000000000000000000000000000\n      dup2\n      mstore\n      0x04\n      add\n      tag_166\n      swap3\n      swap2\n      swap1\n      tag_92\n      jump\t// in\n    tag_166:\n      mload(0x40)\n      dup1\n      swap2\n      sub\n      swap1\n      revert\n        /* \"@openzeppelin/contracts/token/ERC1155/ERC1155.sol\":5261:5378  if (ids.length != values.length) {... */\n    tag_165:\n        /* \"@openzeppelin/contracts/token/ERC1155/ERC1155.sol\":5388:5404  address operator */\n      0x00\n        /* \"@openzeppelin/contracts/token/ERC1155/ERC1155.sol\":5407:5419  _msgSender() */\n      tag_167\n        /* \"@openzeppelin/contracts/token/ERC1155/ERC1155.sol\":5407:5417  _msgSender */\n      tag_81\n        /* \"@openzeppelin/contracts/token/ERC1155/ERC1155.sol\":5407:5419  _msgSender() */\n      jump\t// in\n    tag_167:\n        /* \"@openzeppelin/contracts/token/ERC1155/ERC1155.sol\":5388:5419  address operator = _msgSender() */\n      swap1\n      pop\n        /* \"@openzeppelin/contracts/token/ERC1155/ERC1155.sol\":5435:5444  uint256 i */\n      0x00\n        /* \"@openzeppelin/contracts/token/ERC1155/ERC1155.sol\":5430:6121  for (uint256 i = 0; i < ids.length; ++i) {... */\n    tag_168:\n        /* \"@openzeppelin/contracts/token/ERC1155/ERC1155.sol\":5454:5457  ids */\n      dup4\n        /* \"@openzeppelin/contracts/token/ERC1155/ERC1155.sol\":5454:5464  ids.length */\n      mload\n        /* \"@openzeppelin/contracts/token/ERC1155/ERC1155.sol\":5450:5451  i */\n      dup2\n        /* \"@openzeppelin/contracts/token/ERC1155/ERC1155.sol\":5450:5464  i < ids.length */\n      lt\n        /* \"@openzeppelin/contracts/token/ERC1155/ERC1155.sol\":5430:6121  for (uint256 i = 0; i < ids.length; ++i) {... */\n      iszero\n      tag_169\n      jumpi\n        /* \"@openzeppelin/contracts/token/ERC1155/ERC1155.sol\":5485:5495  uint256 id */\n      0x00\n        /* \"@openzeppelin/contracts/token/ERC1155/ERC1155.sol\":5498:5523  ids.unsafeMemoryAccess(i) */\n      tag_171\n        /* \"@openzeppelin/contracts/token/ERC1155/ERC1155.sol\":5521:5522  i */\n      dup3\n        /* \"@openzeppelin/contracts/token/ERC1155/ERC1155.sol\":5498:5501  ids */\n      dup7\n        /* \"@openzeppelin/contracts/token/ERC1155/ERC1155.sol\":5498:5520  ids.unsafeMemoryAccess */\n      tag_104\n      swap1\n        /* \"@openzeppelin/contracts/token/ERC1155/ERC1155.sol\":5498:5523  ids.unsafeMemoryAccess(i) */\n      swap2\n      swap1\n      0xffffffff\n      and\n      jump\t// in\n    tag_171:\n        /* \"@openzeppelin/contracts/token/ERC1155/ERC1155.sol\":5485:5523  uint256 id = ids.unsafeMemoryAccess(i) */\n      swap1\n      pop\n        /* \"@openzeppelin/contracts/token/ERC1155/ERC1155.sol\":5537:5550  uint256 value */\n      0x00\n        /* \"@openzeppelin/contracts/token/ERC1155/ERC1155.sol\":5553:5581  values.unsafeMemoryAccess(i) */\n      tag_172\n        /* \"@openzeppelin/contracts/token/ERC1155/ERC1155.sol\":5579:5580  i */\n      dup4\n        /* \"@openzeppelin/contracts/token/ERC1155/ERC1155.sol\":5553:5559  values */\n      dup7\n        /* \"@openzeppelin/contracts/token/ERC1155/ERC1155.sol\":5553:5578  values.unsafeMemoryAccess */\n      tag_104\n      swap1\n        /* \"@openzeppelin/contracts/token/ERC1155/ERC1155.sol\":5553:5581  values.unsafeMemoryAccess(i) */\n      swap2\n      swap1\n      0xffffffff\n      and\n      jump\t// in\n    tag_172:\n        /* \"@openzeppelin/contracts/token/ERC1155/ERC1155.sol\":5537:5581  uint256 value = values.unsafeMemoryAccess(i) */\n      swap1\n      pop\n        /* \"@openzeppelin/contracts/token/ERC1155/ERC1155.sol\":5616:5617  0 */\n      0x00\n        /* \"@openzeppelin/contracts/token/ERC1155/ERC1155.sol\":5600:5618  from != address(0) */\n      0xffffffffffffffffffffffffffffffffffffffff\n      and\n        /* \"@openzeppelin/contracts/token/ERC1155/ERC1155.sol\":5600:5604  from */\n      dup9\n        /* \"@openzeppelin/contracts/token/ERC1155/ERC1155.sol\":5600:5618  from != address(0) */\n      0xffffffffffffffffffffffffffffffffffffffff\n      and\n      eq\n        /* \"@openzeppelin/contracts/token/ERC1155/ERC1155.sol\":5596:6016  if (from != address(0)) {... */\n      tag_173\n      jumpi\n        /* \"@openzeppelin/contracts/token/ERC1155/ERC1155.sol\":5638:5657  uint256 fromBalance */\n      0x00\n        /* \"@openzeppelin/contracts/token/ERC1155/ERC1155.sol\":5660:5669  _balances */\n      dup1\n        /* \"@openzeppelin/contracts/token/ERC1155/ERC1155.sol\":5660:5673  _balances[id] */\n      0x00\n        /* \"@openzeppelin/contracts/token/ERC1155/ERC1155.sol\":5670:5672  id */\n      dup5\n        /* \"@openzeppelin/contracts/token/ERC1155/ERC1155.sol\":5660:5673  _balances[id] */\n      dup2\n      mstore\n      0x20\n      add\n      swap1\n      dup2\n      mstore\n      0x20\n      add\n      0x00\n      keccak256\n        /* \"@openzeppelin/contracts/token/ERC1155/ERC1155.sol\":5660:5679  _balances[id][from] */\n      0x00\n        /* \"@openzeppelin/contracts/token/ERC1155/ERC1155.sol\":5674:5678  from */\n      dup11\n        /* \"@openzeppelin/contracts/token/ERC1155/ERC1155.sol\":5660:5679  _balances[id][from] */\n      0xffffffffffffffffffffffffffffffffffffffff\n      and\n      0xffffffffffffffffffffffffffffffffffffffff\n      and\n      dup2\n      mstore\n      0x20\n      add\n      swap1\n      dup2\n      mstore\n      0x20\n      add\n      0x00\n      keccak256\n      sload\n        /* \"@openzeppelin/contracts/token/ERC1155/ERC1155.sol\":5638:5679  uint256 fromBalance = _balances[id][from] */\n      swap1\n      pop\n        /* \"@openzeppelin/contracts/token/ERC1155/ERC1155.sol\":5715:5720  value */\n      dup2\n        /* \"@openzeppelin/contracts/token/ERC1155/ERC1155.sol\":5701:5712  fromBalance */\n      dup2\n        /* \"@openzeppelin/contracts/token/ERC1155/ERC1155.sol\":5701:5720  fromBalance < value */\n      lt\n        /* \"@openzeppelin/contracts/token/ERC1155/ERC1155.sol\":5697:5826  if (fromBalance < value) {... */\n      iszero\n      tag_174\n      jumpi\n        /* \"@openzeppelin/contracts/token/ERC1155/ERC1155.sol\":5778:5782  from */\n      dup9\n        /* \"@openzeppelin/contracts/token/ERC1155/ERC1155.sol\":5784:5795  fromBalance */\n      dup2\n        /* \"@openzeppelin/contracts/token/ERC1155/ERC1155.sol\":5797:5802  value */\n      dup4\n        /* \"@openzeppelin/contracts/token/ERC1155/ERC1155.sol\":5804:5806  id */\n      dup6\n        /* \"@openzeppelin/contracts/token/ERC1155/ERC1155.sol\":5751:5807  ERC1155InsufficientBalance(from, fromBalance, value, id) */\n      mload(0x40)\n      0x03dee4c500000000000000000000000000000000000000000000000000000000\n      dup2\n      mstore\n      0x04\n      add\n      tag_175\n      swap5\n      swap4\n      swap3\n      swap2\n      swap1\n      tag_176\n      jump\t// in\n    tag_175:\n      mload(0x40)\n      dup1\n      swap2\n      sub\n      swap1\n      revert\n        /* \"@openzeppelin/contracts/token/ERC1155/ERC1155.sol\":5697:5826  if (fromBalance < value) {... */\n    tag_174:\n        /* \"@openzeppelin/contracts/token/ERC1155/ERC1155.sol\":5978:5983  value */\n      dup2\n        /* \"@openzeppelin/contracts/token/ERC1155/ERC1155.sol\":5964:5975  fromBalance */\n      dup2\n        /* \"@openzeppelin/contracts/token/ERC1155/ERC1155.sol\":5964:5983  fromBalance - value */\n      sub\n        /* \"@openzeppelin/contracts/token/ERC1155/ERC1155.sol\":5942:5951  _balances */\n      0x00\n        /* \"@openzeppelin/contracts/token/ERC1155/ERC1155.sol\":5942:5955  _balances[id] */\n      dup1\n        /* \"@openzeppelin/contracts/token/ERC1155/ERC1155.sol\":5952:5954  id */\n      dup6\n        /* \"@openzeppelin/contracts/token/ERC1155/ERC1155.sol\":5942:5955  _balances[id] */\n      dup2\n      mstore\n      0x20\n      add\n      swap1\n      dup2\n      mstore\n      0x20\n      add\n      0x00\n      keccak256\n        /* \"@openzeppelin/contracts/token/ERC1155/ERC1155.sol\":5942:5961  _balances[id][from] */\n      0x00\n        /* \"@openzeppelin/contracts/token/ERC1155/ERC1155.sol\":5956:5960  from */\n      dup12\n        /* \"@openzeppelin/contracts/token/ERC1155/ERC1155.sol\":5942:5961  _balances[id][from] */\n      0xffffffffffffffffffffffffffffffffffffffff\n      and\n      0xffffffffffffffffffffffffffffffffffffffff\n      and\n      dup2\n      mstore\n      0x20\n      add\n      swap1\n      dup2\n      mstore\n      0x20\n      add\n      0x00\n      keccak256\n        /* \"@openzeppelin/contracts/token/ERC1155/ERC1155.sol\":5942:5983  _balances[id][from] = fromBalance - value */\n      dup2\n      swap1\n      sstore\n      pop\n        /* \"@openzeppelin/contracts/token/ERC1155/ERC1155.sol\":5620:6016  {... */\n      pop\n        /* \"@openzeppelin/contracts/token/ERC1155/ERC1155.sol\":5596:6016  if (from != address(0)) {... */\n    tag_173:\n        /* \"@openzeppelin/contracts/token/ERC1155/ERC1155.sol\":6048:6049  0 */\n      0x00\n        /* \"@openzeppelin/contracts/token/ERC1155/ERC1155.sol\":6034:6050  to != address(0) */\n      0xffffffffffffffffffffffffffffffffffffffff\n      and\n        /* \"@openzeppelin/contracts/token/ERC1155/ERC1155.sol\":6034:6036  to */\n      dup8\n        /* \"@openzeppelin/contracts/token/ERC1155/ERC1155.sol\":6034:6050  to != address(0) */\n      0xffffffffffffffffffffffffffffffffffffffff\n      and\n      eq\n        /* \"@openzeppelin/contracts/token/ERC1155/ERC1155.sol\":6030:6111  if (to != address(0)) {... */\n      tag_177\n      jumpi\n        /* \"@openzeppelin/contracts/token/ERC1155/ERC1155.sol\":6091:6096  value */\n      dup1\n        /* \"@openzeppelin/contracts/token/ERC1155/ERC1155.sol\":6070:6079  _balances */\n      0x00\n        /* \"@openzeppelin/contracts/token/ERC1155/ERC1155.sol\":6070:6083  _balances[id] */\n      dup1\n        /* \"@openzeppelin/contracts/token/ERC1155/ERC1155.sol\":6080:6082  id */\n      dup5\n        /* \"@openzeppelin/contracts/token/ERC1155/ERC1155.sol\":6070:6083  _balances[id] */\n      dup2\n      mstore\n      0x20\n      add\n      swap1\n      dup2\n      mstore\n      0x20\n      add\n      0x00\n      keccak256\n        /* \"@openzeppelin/contracts/token/ERC1155/ERC1155.sol\":6070:6087  _balances[id][to] */\n      0x00\n        /* \"@openzeppelin/contracts/token/ERC1155/ERC1155.sol\":6084:6086  to */\n      dup10\n        /* \"@openzeppelin/contracts/token/ERC1155/ERC1155.sol\":6070:6087  _balances[id][to] */\n      0xffffffffffffffffffffffffffffffffffffffff\n      and\n      0xffffffffffffffffffffffffffffffffffffffff\n      and\n      dup2\n      mstore\n      0x20\n      add\n      swap1\n      dup2\n      mstore\n      0x20\n      add\n      0x00\n      keccak256\n      0x00\n        /* \"@openzeppelin/contracts/token/ERC1155/ERC1155.sol\":6070:6096  _balances[id][to] += value */\n      dup3\n      dup3\n      sload\n      tag_178\n      swap2\n      swap1\n      tag_179\n      jump\t// in\n    tag_178:\n      swap3\n      pop\n      pop\n      dup2\n      swap1\n      sstore\n      pop\n        /* \"@openzeppelin/contracts/token/ERC1155/ERC1155.sol\":6030:6111  if (to != address(0)) {... */\n    tag_177:\n        /* \"@openzeppelin/contracts/token/ERC1155/ERC1155.sol\":5471:6121  {... */\n      pop\n      pop\n        /* \"@openzeppelin/contracts/token/ERC1155/ERC1155.sol\":5466:5469  ++i */\n      dup1\n      0x01\n      add\n      swap1\n      pop\n        /* \"@openzeppelin/contracts/token/ERC1155/ERC1155.sol\":5430:6121  for (uint256 i = 0; i < ids.length; ++i) {... */\n      jump(tag_168)\n    tag_169:\n      pop\n        /* \"@openzeppelin/contracts/token/ERC1155/ERC1155.sol\":6149:6150  1 */\n      0x01\n        /* \"@openzeppelin/contracts/token/ERC1155/ERC1155.sol\":6135:6138  ids */\n      dup4\n        /* \"@openzeppelin/contracts/token/ERC1155/ERC1155.sol\":6135:6145  ids.length */\n      mload\n        /* \"@openzeppelin/contracts/token/ERC1155/ERC1155.sol\":6135:6150  ids.length == 1 */\n      sub\n        /* \"@openzeppelin/contracts/token/ERC1155/ERC1155.sol\":6131:6419  if (ids.length == 1) {... */\n      tag_180\n      jumpi\n        /* \"@openzeppelin/contracts/token/ERC1155/ERC1155.sol\":6166:6176  uint256 id */\n      0x00\n        /* \"@openzeppelin/contracts/token/ERC1155/ERC1155.sol\":6179:6204  ids.unsafeMemoryAccess(0) */\n      tag_181\n        /* \"@openzeppelin/contracts/token/ERC1155/ERC1155.sol\":6202:6203  0 */\n      0x00\n        /* \"@openzeppelin/contracts/token/ERC1155/ERC1155.sol\":6179:6182  ids */\n      dup6\n        /* \"@openzeppelin/contracts/token/ERC1155/ERC1155.sol\":6179:6201  ids.unsafeMemoryAccess */\n      tag_104\n      swap1\n        /* \"@openzeppelin/contracts/token/ERC1155/ERC1155.sol\":6179:6204  ids.unsafeMemoryAccess(0) */\n      swap2\n      swap1\n      0xffffffff\n      and\n      jump\t// in\n    tag_181:\n        /* \"@openzeppelin/contracts/token/ERC1155/ERC1155.sol\":6166:6204  uint256 id = ids.unsafeMemoryAccess(0) */\n      swap1\n      pop\n        /* \"@openzeppelin/contracts/token/ERC1155/ERC1155.sol\":6218:6231  uint256 value */\n      0x00\n        /* \"@openzeppelin/contracts/token/ERC1155/ERC1155.sol\":6234:6262  values.unsafeMemoryAccess(0) */\n      tag_182\n        /* \"@openzeppelin/contracts/token/ERC1155/ERC1155.sol\":6260:6261  0 */\n      0x00\n        /* \"@openzeppelin/contracts/token/ERC1155/ERC1155.sol\":6234:6240  values */\n      dup6\n        /* \"@openzeppelin/contracts/token/ERC1155/ERC1155.sol\":6234:6259  values.unsafeMemoryAccess */\n      tag_104\n      swap1\n        /* \"@openzeppelin/contracts/token/ERC1155/ERC1155.sol\":6234:6262  values.unsafeMemoryAccess(0) */\n      swap2\n      swap1\n      0xffffffff\n      and\n      jump\t// in\n    tag_182:\n        /* \"@openzeppelin/contracts/token/ERC1155/ERC1155.sol\":6218:6262  uint256 value = values.unsafeMemoryAccess(0) */\n      swap1\n      pop\n        /* \"@openzeppelin/contracts/token/ERC1155/ERC1155.sol\":6312:6314  to */\n      dup6\n        /* \"@openzeppelin/contracts/token/ERC1155/ERC1155.sol\":6281:6326  TransferSingle(operator, from, to, id, value) */\n      0xffffffffffffffffffffffffffffffffffffffff\n      and\n        /* \"@openzeppelin/contracts/token/ERC1155/ERC1155.sol\":6306:6310  from */\n      dup8\n        /* \"@openzeppelin/contracts/token/ERC1155/ERC1155.sol\":6281:6326  TransferSingle(operator, from, to, id, value) */\n      0xffffffffffffffffffffffffffffffffffffffff\n      and\n        /* \"@openzeppelin/contracts/token/ERC1155/ERC1155.sol\":6296:6304  operator */\n      dup5\n        /* \"@openzeppelin/contracts/token/ERC1155/ERC1155.sol\":6281:6326  TransferSingle(operator, from, to, id, value) */\n      0xffffffffffffffffffffffffffffffffffffffff\n      and\n      0xc3d58168c5ae7397731d063d5bbf3d657854427343f4c083240f7aacaa2d0f62\n        /* \"@openzeppelin/contracts/token/ERC1155/ERC1155.sol\":6316:6318  id */\n      dup6\n        /* \"@openzeppelin/contracts/token/ERC1155/ERC1155.sol\":6320:6325  value */\n      dup6\n        /* \"@openzeppelin/contracts/token/ERC1155/ERC1155.sol\":6281:6326  TransferSingle(operator, from, to, id, value) */\n      mload(0x40)\n      tag_183\n      swap3\n      swap2\n      swap1\n      tag_92\n      jump\t// in\n    tag_183:\n      mload(0x40)\n      dup1\n      swap2\n      sub\n      swap1\n      log4\n        /* \"@openzeppelin/contracts/token/ERC1155/ERC1155.sol\":6152:6337  {... */\n      pop\n      pop\n        /* \"@openzeppelin/contracts/token/ERC1155/ERC1155.sol\":6131:6419  if (ids.length == 1) {... */\n      jump(tag_184)\n    tag_180:\n        /* \"@openzeppelin/contracts/token/ERC1155/ERC1155.sol\":6392:6394  to */\n      dup4\n        /* \"@openzeppelin/contracts/token/ERC1155/ERC1155.sol\":6362:6408  TransferBatch(operator, from, to, ids, values) */\n      0xffffffffffffffffffffffffffffffffffffffff\n      and\n        /* \"@openzeppelin/contracts/token/ERC1155/ERC1155.sol\":6386:6390  from */\n      dup6\n        /* \"@openzeppelin/contracts/token/ERC1155/ERC1155.sol\":6362:6408  TransferBatch(operator, from, to, ids, values) */\n      0xffffffffffffffffffffffffffffffffffffffff\n      and\n        /* \"@openzeppelin/contracts/token/ERC1155/ERC1155.sol\":6376:6384  operator */\n      dup3\n        /* \"@openzeppelin/contracts/token/ERC1155/ERC1155.sol\":6362:6408  TransferBatch(operator, from, to, ids, values) */\n      0xffffffffffffffffffffffffffffffffffffffff\n      and\n      0x4a39dc06d4c0dbc64b70af90fd698a233a518aa5d07e595d983b8c0526c8f7fb\n        /* \"@openzeppelin/contracts/token/ERC1155/ERC1155.sol\":6396:6399  ids */\n      dup7\n        /* \"@openzeppelin/contracts/token/ERC1155/ERC1155.sol\":6401:6407  values */\n      dup7\n        /* \"@openzeppelin/contracts/token/ERC1155/ERC1155.sol\":6362:6408  TransferBatch(operator, from, to, ids, values) */\n      mload(0x40)\n      tag_185\n      swap3\n      swap2\n      swap1\n      tag_186\n      jump\t// in\n    tag_185:\n      mload(0x40)\n      dup1\n      swap2\n      sub\n      swap1\n      log4\n        /* \"@openzeppelin/contracts/token/ERC1155/ERC1155.sol\":6131:6419  if (ids.length == 1) {... */\n    tag_184:\n        /* \"@openzeppelin/contracts/token/ERC1155/ERC1155.sol\":5251:6425  {... */\n      pop\n        /* \"@openzeppelin/contracts/token/ERC1155/ERC1155.sol\":5144:6425  function _update(address from, address to, uint256[] memory ids, uint256[] memory values) internal virtual {... */\n      pop\n      pop\n      pop\n      pop\n      jump\t// out\n        /* \"@openzeppelin/contracts/token/ERC1155/ERC1155.sol\":13761:14735  function _doSafeTransferAcceptanceCheck(... */\n    tag_159:\n        /* \"@openzeppelin/contracts/token/ERC1155/ERC1155.sol\":13984:13985  0 */\n      0x00\n        /* \"@openzeppelin/contracts/token/ERC1155/ERC1155.sol\":13967:13969  to */\n      dup5\n        /* \"@openzeppelin/contracts/token/ERC1155/ERC1155.sol\":13967:13981  to.code.length */\n      0xffffffffffffffffffffffffffffffffffffffff\n      and\n      extcodesize\n        /* \"@openzeppelin/contracts/token/ERC1155/ERC1155.sol\":13967:13985  to.code.length > 0 */\n      gt\n        /* \"@openzeppelin/contracts/token/ERC1155/ERC1155.sol\":13963:14729  if (to.code.length > 0) {... */\n      iszero\n      tag_188\n      jumpi\n        /* \"@openzeppelin/contracts/token/ERC1155/ERC1155.sol\":14022:14024  to */\n      dup4\n        /* \"@openzeppelin/contracts/token/ERC1155/ERC1155.sol\":14005:14043  IERC1155Receiver(to).onERC1155Received */\n      0xffffffffffffffffffffffffffffffffffffffff\n      and\n      0xf23a6e61\n        /* \"@openzeppelin/contracts/token/ERC1155/ERC1155.sol\":14044:14052  operator */\n      dup8\n        /* \"@openzeppelin/contracts/token/ERC1155/ERC1155.sol\":14054:14058  from */\n      dup8\n        /* \"@openzeppelin/contracts/token/ERC1155/ERC1155.sol\":14060:14062  id */\n      dup7\n        /* \"@openzeppelin/contracts/token/ERC1155/ERC1155.sol\":14064:14069  value */\n      dup7\n        /* \"@openzeppelin/contracts/token/ERC1155/ERC1155.sol\":14071:14075  data */\n      dup7\n        /* \"@openzeppelin/contracts/token/ERC1155/ERC1155.sol\":14005:14076  IERC1155Receiver(to).onERC1155Received(operator, from, id, value, data) */\n      mload(0x40)\n      dup7\n      0xffffffff\n      and\n      0xe0\n      shl\n      dup2\n      mstore\n      0x04\n      add\n      tag_189\n      swap6\n      swap5\n      swap4\n      swap3\n      swap2\n      swap1\n      tag_190\n      jump\t// in\n    tag_189:\n      0x20\n      mload(0x40)\n      dup1\n      dup4\n      sub\n      dup2\n      0x00\n      dup8\n      gas\n      call\n      swap3\n      pop\n      pop\n      pop\n      dup1\n      iszero\n      tag_191\n      jumpi\n      pop\n      mload(0x40)\n      returndatasize\n      not(0x1f)\n      0x1f\n      dup3\n      add\n      and\n      dup3\n      add\n      dup1\n      0x40\n      mstore\n      pop\n      dup2\n      add\n      swap1\n      tag_192\n      swap2\n      swap1\n      tag_193\n      jump\t// in\n    tag_192:\n      0x01\n    tag_191:\n        /* \"@openzeppelin/contracts/token/ERC1155/ERC1155.sol\":14001:14719  try IERC1155Receiver(to).onERC1155Received(operator, from, id, value, data) returns (bytes4 response) {... */\n      tag_194\n      jumpi\n      returndatasize\n      dup1\n      0x00\n      dup2\n      eq\n      tag_199\n      jumpi\n      mload(0x40)\n      swap2\n      pop\n      and(add(returndatasize, 0x3f), not(0x1f))\n      dup3\n      add\n      0x40\n      mstore\n      returndatasize\n      dup3\n      mstore\n      returndatasize\n      0x00\n      0x20\n      dup5\n      add\n      returndatacopy\n      jump(tag_198)\n    tag_199:\n      0x60\n      swap2\n      pop\n    tag_198:\n      pop\n        /* \"@openzeppelin/contracts/token/ERC1155/ERC1155.sol\":14377:14378  0 */\n      0x00\n        /* \"@openzeppelin/contracts/token/ERC1155/ERC1155.sol\":14360:14366  reason */\n      dup2\n        /* \"@openzeppelin/contracts/token/ERC1155/ERC1155.sol\":14360:14373  reason.length */\n      mload\n        /* \"@openzeppelin/contracts/token/ERC1155/ERC1155.sol\":14360:14378  reason.length == 0 */\n      sub\n        /* \"@openzeppelin/contracts/token/ERC1155/ERC1155.sol\":14356:14705  if (reason.length == 0) {... */\n      tag_200\n      jumpi\n        /* \"@openzeppelin/contracts/token/ERC1155/ERC1155.sol\":14487:14489  to */\n      dup5\n        /* \"@openzeppelin/contracts/token/ERC1155/ERC1155.sol\":14464:14490  ERC1155InvalidReceiver(to) */\n      mload(0x40)\n      0x57f447ce00000000000000000000000000000000000000000000000000000000\n      dup2\n      mstore\n      0x04\n      add\n      tag_201\n      swap2\n      swap1\n      tag_131\n      jump\t// in\n    tag_201:\n      mload(0x40)\n      dup1\n      swap2\n      sub\n      swap1\n      revert\n        /* \"@openzeppelin/contracts/token/ERC1155/ERC1155.sol\":14356:14705  if (reason.length == 0) {... */\n    tag_200:\n        /* \"@openzeppelin/contracts/token/ERC1155/ERC1155.sol\":14657:14663  reason */\n      dup1\n        /* \"@openzeppelin/contracts/token/ERC1155/ERC1155.sol\":14651:14664  mload(reason) */\n      mload\n        /* \"@openzeppelin/contracts/token/ERC1155/ERC1155.sol\":14642:14648  reason */\n      dup2\n        /* \"@openzeppelin/contracts/token/ERC1155/ERC1155.sol\":14638:14640  32 */\n      0x20\n        /* \"@openzeppelin/contracts/token/ERC1155/ERC1155.sol\":14634:14649  add(32, reason) */\n      add\n        /* \"@openzeppelin/contracts/token/ERC1155/ERC1155.sol\":14627:14665  revert(add(32, reason), mload(reason)) */\n      revert\n        /* \"@openzeppelin/contracts/token/ERC1155/ERC1155.sol\":14001:14719  try IERC1155Receiver(to).onERC1155Received(operator, from, id, value, data) returns (bytes4 response) {... */\n    tag_194:\n        /* \"@openzeppelin/contracts/token/ERC1155/ERC1155.sol\":14137:14180  IERC1155Receiver.onERC1155Received.selector */\n      shl(0xe0, 0xf23a6e61)\n        /* \"@openzeppelin/contracts/token/ERC1155/ERC1155.sol\":14125:14180  response != IERC1155Receiver.onERC1155Received.selector */\n      not(0xffffffffffffffffffffffffffffffffffffffffffffffffffffffff)\n      and\n        /* \"@openzeppelin/contracts/token/ERC1155/ERC1155.sol\":14125:14133  response */\n      dup2\n        /* \"@openzeppelin/contracts/token/ERC1155/ERC1155.sol\":14125:14180  response != IERC1155Receiver.onERC1155Received.selector */\n      not(0xffffffffffffffffffffffffffffffffffffffffffffffffffffffff)\n      and\n      eq\n        /* \"@openzeppelin/contracts/token/ERC1155/ERC1155.sol\":14121:14295  if (response != IERC1155Receiver.onERC1155Received.selector) {... */\n      tag_204\n      jumpi\n        /* \"@openzeppelin/contracts/token/ERC1155/ERC1155.sol\":14273:14275  to */\n      dup5\n        /* \"@openzeppelin/contracts/token/ERC1155/ERC1155.sol\":14250:14276  ERC1155InvalidReceiver(to) */\n      mload(0x40)\n      0x57f447ce00000000000000000000000000000000000000000000000000000000\n      dup2\n      mstore\n      0x04\n      add\n      tag_205\n      swap2\n      swap1\n      tag_131\n      jump\t// in\n    tag_205:\n      mload(0x40)\n      dup1\n      swap2\n      sub\n      swap1\n      revert\n        /* \"@openzeppelin/contracts/token/ERC1155/ERC1155.sol\":14121:14295  if (response != IERC1155Receiver.onERC1155Received.selector) {... */\n    tag_204:\n        /* \"@openzeppelin/contracts/token/ERC1155/ERC1155.sol\":14077:14309  returns (bytes4 response) {... */\n      pop\n        /* \"@openzeppelin/contracts/token/ERC1155/ERC1155.sol\":13963:14729  if (to.code.length > 0) {... */\n    tag_188:\n        /* \"@openzeppelin/contracts/token/ERC1155/ERC1155.sol\":13761:14735  function _doSafeTransferAcceptanceCheck(... */\n      pop\n      pop\n      pop\n      pop\n      pop\n      pop\n      jump\t// out\n        /* \"@openzeppelin/contracts/token/ERC1155/ERC1155.sol\":14923:15964  function _doSafeBatchTransferAcceptanceCheck(... */\n    tag_162:\n        /* \"@openzeppelin/contracts/token/ERC1155/ERC1155.sol\":15171:15172  0 */\n      0x00\n        /* \"@openzeppelin/contracts/token/ERC1155/ERC1155.sol\":15154:15156  to */\n      dup5\n        /* \"@openzeppelin/contracts/token/ERC1155/ERC1155.sol\":15154:15168  to.code.length */\n      0xffffffffffffffffffffffffffffffffffffffff\n      and\n      extcodesize\n        /* \"@openzeppelin/contracts/token/ERC1155/ERC1155.sol\":15154:15172  to.code.length > 0 */\n      gt\n        /* \"@openzeppelin/contracts/token/ERC1155/ERC1155.sol\":15150:15958  if (to.code.length > 0) {... */\n      iszero\n      tag_207\n      jumpi\n        /* \"@openzeppelin/contracts/token/ERC1155/ERC1155.sol\":15209:15211  to */\n      dup4\n        /* \"@openzeppelin/contracts/token/ERC1155/ERC1155.sol\":15192:15235  IERC1155Receiver(to).onERC1155BatchReceived */\n      0xffffffffffffffffffffffffffffffffffffffff\n      and\n      0xbc197c81\n        /* \"@openzeppelin/contracts/token/ERC1155/ERC1155.sol\":15236:15244  operator */\n      dup8\n        /* \"@openzeppelin/contracts/token/ERC1155/ERC1155.sol\":15246:15250  from */\n      dup8\n        /* \"@openzeppelin/contracts/token/ERC1155/ERC1155.sol\":15252:15255  ids */\n      dup7\n        /* \"@openzeppelin/contracts/token/ERC1155/ERC1155.sol\":15257:15263  values */\n      dup7\n        /* \"@openzeppelin/contracts/token/ERC1155/ERC1155.sol\":15265:15269  data */\n      dup7\n        /* \"@openzeppelin/contracts/token/ERC1155/ERC1155.sol\":15192:15270  IERC1155Receiver(to).onERC1155BatchReceived(operator, from, ids, values, data) */\n      mload(0x40)\n      dup7\n      0xffffffff\n      and\n      0xe0\n      shl\n      dup2\n      mstore\n      0x04\n      add\n      tag_208\n      swap6\n      swap5\n      swap4\n      swap3\n      swap2\n      swap1\n      tag_209\n      jump\t// in\n    tag_208:\n      0x20\n      mload(0x40)\n      dup1\n      dup4\n      sub\n      dup2\n      0x00\n      dup8\n      gas\n      call\n      swap3\n      pop\n      pop\n      pop\n      dup1\n      iszero\n      tag_210\n      jumpi\n      pop\n      mload(0x40)\n      returndatasize\n      not(0x1f)\n      0x1f\n      dup3\n      add\n      and\n      dup3\n      add\n      dup1\n      0x40\n      mstore\n      pop\n      dup2\n      add\n      swap1\n      tag_211\n      swap2\n      swap1\n      tag_193\n      jump\t// in\n    tag_211:\n      0x01\n    tag_210:\n        /* \"@openzeppelin/contracts/token/ERC1155/ERC1155.sol\":15188:15948  try IERC1155Receiver(to).onERC1155BatchReceived(operator, from, ids, values, data) returns (... */\n      tag_212\n      jumpi\n      returndatasize\n      dup1\n      0x00\n      dup2\n      eq\n      tag_217\n      jumpi\n      mload(0x40)\n      swap2\n      pop\n      and(add(returndatasize, 0x3f), not(0x1f))\n      dup3\n      add\n      0x40\n      mstore\n      returndatasize\n      dup3\n      mstore\n      returndatasize\n      0x00\n      0x20\n      dup5\n      add\n      returndatacopy\n      jump(tag_216)\n    tag_217:\n      0x60\n      swap2\n      pop\n    tag_216:\n      pop\n        /* \"@openzeppelin/contracts/token/ERC1155/ERC1155.sol\":15606:15607  0 */\n      0x00\n        /* \"@openzeppelin/contracts/token/ERC1155/ERC1155.sol\":15589:15595  reason */\n      dup2\n        /* \"@openzeppelin/contracts/token/ERC1155/ERC1155.sol\":15589:15602  reason.length */\n      mload\n        /* \"@openzeppelin/contracts/token/ERC1155/ERC1155.sol\":15589:15607  reason.length == 0 */\n      sub\n        /* \"@openzeppelin/contracts/token/ERC1155/ERC1155.sol\":15585:15934  if (reason.length == 0) {... */\n      tag_218\n      jumpi\n        /* \"@openzeppelin/contracts/token/ERC1155/ERC1155.sol\":15716:15718  to */\n      dup5\n        /* \"@openzeppelin/contracts/token/ERC1155/ERC1155.sol\":15693:15719  ERC1155InvalidReceiver(to) */\n      mload(0x40)\n      0x57f447ce00000000000000000000000000000000000000000000000000000000\n      dup2\n      mstore\n      0x04\n      add\n      tag_219\n      swap2\n      swap1\n      tag_131\n      jump\t// in\n    tag_219:\n      mload(0x40)\n      dup1\n      swap2\n      sub\n      swap1\n      revert\n        /* \"@openzeppelin/contracts/token/ERC1155/ERC1155.sol\":15585:15934  if (reason.length == 0) {... */\n    tag_218:\n        /* \"@openzeppelin/contracts/token/ERC1155/ERC1155.sol\":15886:15892  reason */\n      dup1\n        /* \"@openzeppelin/contracts/token/ERC1155/ERC1155.sol\":15880:15893  mload(reason) */\n      mload\n        /* \"@openzeppelin/contracts/token/ERC1155/ERC1155.sol\":15871:15877  reason */\n      dup2\n        /* \"@openzeppelin/contracts/token/ERC1155/ERC1155.sol\":15867:15869  32 */\n      0x20\n        /* \"@openzeppelin/contracts/token/ERC1155/ERC1155.sol\":15863:15878  add(32, reason) */\n      add\n        /* \"@openzeppelin/contracts/token/ERC1155/ERC1155.sol\":15856:15894  revert(add(32, reason), mload(reason)) */\n      revert\n        /* \"@openzeppelin/contracts/token/ERC1155/ERC1155.sol\":15188:15948  try IERC1155Receiver(to).onERC1155BatchReceived(operator, from, ids, values, data) returns (... */\n    tag_212:\n        /* \"@openzeppelin/contracts/token/ERC1155/ERC1155.sol\":15361:15409  IERC1155Receiver.onERC1155BatchReceived.selector */\n      shl(0xe0, 0xbc197c81)\n        /* \"@openzeppelin/contracts/token/ERC1155/ERC1155.sol\":15349:15409  response != IERC1155Receiver.onERC1155BatchReceived.selector */\n      not(0xffffffffffffffffffffffffffffffffffffffffffffffffffffffff)\n      and\n        /* \"@openzeppelin/contracts/token/ERC1155/ERC1155.sol\":15349:15357  response */\n      dup2\n        /* \"@openzeppelin/contracts/token/ERC1155/ERC1155.sol\":15349:15409  response != IERC1155Receiver.onERC1155BatchReceived.selector */\n      not(0xffffffffffffffffffffffffffffffffffffffffffffffffffffffff)\n      and\n      eq\n        /* \"@openzeppelin/contracts/token/ERC1155/ERC1155.sol\":15345:15524  if (response != IERC1155Receiver.onERC1155BatchReceived.selector) {... */\n      tag_222\n      jumpi\n        /* \"@openzeppelin/contracts/token/ERC1155/ERC1155.sol\":15502:15504  to */\n      dup5\n        /* \"@openzeppelin/contracts/token/ERC1155/ERC1155.sol\":15479:15505  ERC1155InvalidReceiver(to) */\n      mload(0x40)\n      0x57f447ce00000000000000000000000000000000000000000000000000000000\n      dup2\n      mstore\n      0x04\n      add\n      tag_223\n      swap2\n      swap1\n      tag_131\n      jump\t// in\n    tag_223:\n      mload(0x40)\n      dup1\n      swap2\n      sub\n      swap1\n      revert\n        /* \"@openzeppelin/contracts/token/ERC1155/ERC1155.sol\":15345:15524  if (response != IERC1155Receiver.onERC1155BatchReceived.selector) {... */\n    tag_222:\n        /* \"@openzeppelin/contracts/token/ERC1155/ERC1155.sol\":15271:15538  returns (... */\n      pop\n        /* \"@openzeppelin/contracts/token/ERC1155/ERC1155.sol\":15150:15958  if (to.code.length > 0) {... */\n    tag_207:\n        /* \"@openzeppelin/contracts/token/ERC1155/ERC1155.sol\":14923:15964  function _doSafeBatchTransferAcceptanceCheck(... */\n      pop\n      pop\n      pop\n      pop\n      pop\n      pop\n      jump\t// out\n        /* \"#utility.yul\":7:82   */\n    tag_224:\n        /* \"#utility.yul\":40:46   */\n      0x00\n        /* \"#utility.yul\":73:75   */\n      0x40\n        /* \"#utility.yul\":67:76   */\n      mload\n        /* \"#utility.yul\":57:76   */\n      swap1\n      pop\n        /* \"#utility.yul\":7:82   */\n      swap1\n      jump\t// out\n        /* \"#utility.yul\":88:205   */\n    tag_225:\n        /* \"#utility.yul\":197:198   */\n      0x00\n        /* \"#utility.yul\":194:195   */\n      dup1\n        /* \"#utility.yul\":187:199   */\n      revert\n        /* \"#utility.yul\":211:328   */\n    tag_226:\n        /* \"#utility.yul\":320:321   */\n      0x00\n        /* \"#utility.yul\":317:318   */\n      dup1\n        /* \"#utility.yul\":310:322   */\n      revert\n        /* \"#utility.yul\":334:460   */\n    tag_227:\n        /* \"#utility.yul\":371:378   */\n      0x00\n        /* \"#utility.yul\":411:453   */\n      0xffffffffffffffffffffffffffffffffffffffff\n        /* \"#utility.yul\":404:409   */\n      dup3\n        /* \"#utility.yul\":400:454   */\n      and\n        /* \"#utility.yul\":389:454   */\n      swap1\n      pop\n        /* \"#utility.yul\":334:460   */\n      swap2\n      swap1\n      pop\n      jump\t// out\n        /* \"#utility.yul\":466:562   */\n    tag_228:\n        /* \"#utility.yul\":503:510   */\n      0x00\n        /* \"#utility.yul\":532:556   */\n      tag_282\n        /* \"#utility.yul\":550:555   */\n      dup3\n        /* \"#utility.yul\":532:556   */\n      tag_227\n      jump\t// in\n    tag_282:\n        /* \"#utility.yul\":521:556   */\n      swap1\n      pop\n        /* \"#utility.yul\":466:562   */\n      swap2\n      swap1\n      pop\n      jump\t// out\n        /* \"#utility.yul\":568:690   */\n    tag_229:\n        /* \"#utility.yul\":641:665   */\n      tag_284\n        /* \"#utility.yul\":659:664   */\n      dup2\n        /* \"#utility.yul\":641:665   */\n      tag_228\n      jump\t// in\n    tag_284:\n        /* \"#utility.yul\":634:639   */\n      dup2\n        /* \"#utility.yul\":631:666   */\n      eq\n        /* \"#utility.yul\":621:684   */\n      tag_285\n      jumpi\n        /* \"#utility.yul\":680:681   */\n      0x00\n        /* \"#utility.yul\":677:678   */\n      dup1\n        /* \"#utility.yul\":670:682   */\n      revert\n        /* \"#utility.yul\":621:684   */\n    tag_285:\n        /* \"#utility.yul\":568:690   */\n      pop\n      jump\t// out\n        /* \"#utility.yul\":696:835   */\n    tag_230:\n        /* \"#utility.yul\":742:747   */\n      0x00\n        /* \"#utility.yul\":780:786   */\n      dup2\n        /* \"#utility.yul\":767:787   */\n      calldataload\n        /* \"#utility.yul\":758:787   */\n      swap1\n      pop\n        /* \"#utility.yul\":796:829   */\n      tag_287\n        /* \"#utility.yul\":823:828   */\n      dup2\n        /* \"#utility.yul\":796:829   */\n      tag_229\n      jump\t// in\n    tag_287:\n        /* \"#utility.yul\":696:835   */\n      swap3\n      swap2\n      pop\n      pop\n      jump\t// out\n        /* \"#utility.yul\":841:918   */\n    tag_231:\n        /* \"#utility.yul\":878:885   */\n      0x00\n        /* \"#utility.yul\":907:912   */\n      dup2\n        /* \"#utility.yul\":896:912   */\n      swap1\n      pop\n        /* \"#utility.yul\":841:918   */\n      swap2\n      swap1\n      pop\n      jump\t// out\n        /* \"#utility.yul\":924:1046   */\n    tag_232:\n        /* \"#utility.yul\":997:1021   */\n      tag_290\n        /* \"#utility.yul\":1015:1020   */\n      dup2\n        /* \"#utility.yul\":997:1021   */\n      tag_231\n      jump\t// in\n    tag_290:\n        /* \"#utility.yul\":990:995   */\n      dup2\n        /* \"#utility.yul\":987:1022   */\n      eq\n        /* \"#utility.yul\":977:1040   */\n      tag_291\n      jumpi\n        /* \"#utility.yul\":1036:1037   */\n      0x00\n        /* \"#utility.yul\":1033:1034   */\n      dup1\n        /* \"#utility.yul\":1026:1038   */\n      revert\n        /* \"#utility.yul\":977:1040   */\n    tag_291:\n        /* \"#utility.yul\":924:1046   */\n      pop\n      jump\t// out\n        /* \"#utility.yul\":1052:1191   */\n    tag_233:\n        /* \"#utility.yul\":1098:1103   */\n      0x00\n        /* \"#utility.yul\":1136:1142   */\n      dup2\n        /* \"#utility.yul\":1123:1143   */\n      calldataload\n        /* \"#utility.yul\":1114:1143   */\n      swap1\n      pop\n        /* \"#utility.yul\":1152:1185   */\n      tag_293\n        /* \"#utility.yul\":1179:1184   */\n      dup2\n        /* \"#utility.yul\":1152:1185   */\n      tag_232\n      jump\t// in\n    tag_293:\n        /* \"#utility.yul\":1052:1191   */\n      swap3\n      swap2\n      pop\n      pop\n      jump\t// out\n        /* \"#utility.yul\":1197:1671   */\n    tag_16:\n        /* \"#utility.yul\":1265:1271   */\n      0x00\n        /* \"#utility.yul\":1273:1279   */\n      dup1\n        /* \"#utility.yul\":1322:1324   */\n      0x40\n        /* \"#utility.yul\":1310:1319   */\n      dup4\n        /* \"#utility.yul\":1301:1308   */\n      dup6\n        /* \"#utility.yul\":1297:1320   */\n      sub\n        /* \"#utility.yul\":1293:1325   */\n      slt\n        /* \"#utility.yul\":1290:1409   */\n      iszero\n      tag_295\n      jumpi\n        /* \"#utility.yul\":1328:1407   */\n      tag_296\n      tag_225\n      jump\t// in\n    tag_296:\n        /* \"#utility.yul\":1290:1409   */\n    tag_295:\n        /* \"#utility.yul\":1448:1449   */\n      0x00\n        /* \"#utility.yul\":1473:1526   */\n      tag_297\n        /* \"#utility.yul\":1518:1525   */\n      dup6\n        /* \"#utility.yul\":1509:1515   */\n      dup3\n        /* \"#utility.yul\":1498:1507   */\n      dup7\n        /* \"#utility.yul\":1494:1516   */\n      add\n        /* \"#utility.yul\":1473:1526   */\n      tag_230\n      jump\t// in\n    tag_297:\n        /* \"#utility.yul\":1463:1526   */\n      swap3\n      pop\n        /* \"#utility.yul\":1419:1536   */\n      pop\n        /* \"#utility.yul\":1575:1577   */\n      0x20\n        /* \"#utility.yul\":1601:1654   */\n      tag_298\n        /* \"#utility.yul\":1646:1653   */\n      dup6\n        /* \"#utility.yul\":1637:1643   */\n      dup3\n        /* \"#utility.yul\":1626:1635   */\n      dup7\n        /* \"#utility.yul\":1622:1644   */\n      add\n        /* \"#utility.yul\":1601:1654   */\n      tag_233\n      jump\t// in\n    tag_298:\n        /* \"#utility.yul\":1591:1654   */\n      swap2\n      pop\n        /* \"#utility.yul\":1546:1664   */\n      pop\n        /* \"#utility.yul\":1197:1671   */\n      swap3\n      pop\n      swap3\n      swap1\n      pop\n      jump\t// out\n        /* \"#utility.yul\":1677:1795   */\n    tag_234:\n        /* \"#utility.yul\":1764:1788   */\n      tag_300\n        /* \"#utility.yul\":1782:1787   */\n      dup2\n        /* \"#utility.yul\":1764:1788   */\n      tag_231\n      jump\t// in\n    tag_300:\n        /* \"#utility.yul\":1759:1762   */\n      dup3\n        /* \"#utility.yul\":1752:1789   */\n      mstore\n        /* \"#utility.yul\":1677:1795   */\n      pop\n      pop\n      jump\t// out\n        /* \"#utility.yul\":1801:2023   */\n    tag_19:\n        /* \"#utility.yul\":1894:1898   */\n      0x00\n        /* \"#utility.yul\":1932:1934   */\n      0x20\n        /* \"#utility.yul\":1921:1930   */\n      dup3\n        /* \"#utility.yul\":1917:1935   */\n      add\n        /* \"#utility.yul\":1909:1935   */\n      swap1\n      pop\n        /* \"#utility.yul\":1945:2016   */\n      tag_302\n        /* \"#utility.yul\":2013:2014   */\n      0x00\n        /* \"#utility.yul\":2002:2011   */\n      dup4\n        /* \"#utility.yul\":1998:2015   */\n      add\n        /* \"#utility.yul\":1989:1995   */\n      dup5\n        /* \"#utility.yul\":1945:2016   */\n      tag_234\n      jump\t// in\n    tag_302:\n        /* \"#utility.yul\":1801:2023   */\n      swap3\n      swap2\n      pop\n      pop\n      jump\t// out\n        /* \"#utility.yul\":2029:2178   */\n    tag_235:\n        /* \"#utility.yul\":2065:2072   */\n      0x00\n        /* \"#utility.yul\":2105:2171   */\n      0xffffffff00000000000000000000000000000000000000000000000000000000\n        /* \"#utility.yul\":2098:2103   */\n      dup3\n        /* \"#utility.yul\":2094:2172   */\n      and\n        /* \"#utility.yul\":2083:2172   */\n      swap1\n      pop\n        /* \"#utility.yul\":2029:2178   */\n      swap2\n      swap1\n      pop\n      jump\t// out\n        /* \"#utility.yul\":2184:2304   */\n    tag_236:\n        /* \"#utility.yul\":2256:2279   */\n      tag_305\n        /* \"#utility.yul\":2273:2278   */\n      dup2\n        /* \"#utility.yul\":2256:2279   */\n      tag_235\n      jump\t// in\n    tag_305:\n        /* \"#utility.yul\":2249:2254   */\n      dup2\n        /* \"#utility.yul\":2246:2280   */\n      eq\n        /* \"#utility.yul\":2236:2298   */\n      tag_306\n      jumpi\n        /* \"#utility.yul\":2294:2295   */\n      0x00\n        /* \"#utility.yul\":2291:2292   */\n      dup1\n        /* \"#utility.yul\":2284:2296   */\n      revert\n        /* \"#utility.yul\":2236:2298   */\n    tag_306:\n        /* \"#utility.yul\":2184:2304   */\n      pop\n      jump\t// out\n        /* \"#utility.yul\":2310:2447   */\n    tag_237:\n        /* \"#utility.yul\":2355:2360   */\n      0x00\n        /* \"#utility.yul\":2393:2399   */\n      dup2\n        /* \"#utility.yul\":2380:2400   */\n      calldataload\n        /* \"#utility.yul\":2371:2400   */\n      swap1\n      pop\n        /* \"#utility.yul\":2409:2441   */\n      tag_308\n        /* \"#utility.yul\":2435:2440   */\n      dup2\n        /* \"#utility.yul\":2409:2441   */\n      tag_236\n      jump\t// in\n    tag_308:\n        /* \"#utility.yul\":2310:2447   */\n      swap3\n      swap2\n      pop\n      pop\n      jump\t// out\n        /* \"#utility.yul\":2453:2780   */\n    tag_22:\n        /* \"#utility.yul\":2511:2517   */\n      0x00\n        /* \"#utility.yul\":2560:2562   */\n      0x20\n        /* \"#utility.yul\":2548:2557   */\n      dup3\n        /* \"#utility.yul\":2539:2546   */\n      dup5\n        /* \"#utility.yul\":2535:2558   */\n      sub\n        /* \"#utility.yul\":2531:2563   */\n      slt\n        /* \"#utility.yul\":2528:2647   */\n      iszero\n      tag_310\n      jumpi\n        /* \"#utility.yul\":2566:2645   */\n      tag_311\n      tag_225\n      jump\t// in\n    tag_311:\n        /* \"#utility.yul\":2528:2647   */\n    tag_310:\n        /* \"#utility.yul\":2686:2687   */\n      0x00\n        /* \"#utility.yul\":2711:2763   */\n      tag_312\n        /* \"#utility.yul\":2755:2762   */\n      dup5\n        /* \"#utility.yul\":2746:2752   */\n      dup3\n        /* \"#utility.yul\":2735:2744   */\n      dup6\n        /* \"#utility.yul\":2731:2753   */\n      add\n        /* \"#utility.yul\":2711:2763   */\n      tag_237\n      jump\t// in\n    tag_312:\n        /* \"#utility.yul\":2701:2763   */\n      swap2\n      pop\n        /* \"#utility.yul\":2657:2773   */\n      pop\n        /* \"#utility.yul\":2453:2780   */\n      swap3\n      swap2\n      pop\n      pop\n      jump\t// out\n        /* \"#utility.yul\":2786:2876   */\n    tag_238:\n        /* \"#utility.yul\":2820:2827   */\n      0x00\n        /* \"#utility.yul\":2863:2868   */\n      dup2\n        /* \"#utility.yul\":2856:2869   */\n      iszero\n        /* \"#utility.yul\":2849:2870   */\n      iszero\n        /* \"#utility.yul\":2838:2870   */\n      swap1\n      pop\n        /* \"#utility.yul\":2786:2876   */\n      swap2\n      swap1\n      pop\n      jump\t// out\n        /* \"#utility.yul\":2882:2991   */\n    tag_239:\n        /* \"#utility.yul\":2963:2984   */\n      tag_315\n        /* \"#utility.yul\":2978:2983   */\n      dup2\n        /* \"#utility.yul\":2963:2984   */\n      tag_238\n      jump\t// in\n    tag_315:\n        /* \"#utility.yul\":2958:2961   */\n      dup3\n        /* \"#utility.yul\":2951:2985   */\n      mstore\n        /* \"#utility.yul\":2882:2991   */\n      pop\n      pop\n      jump\t// out\n        /* \"#utility.yul\":2997:3207   */\n    tag_25:\n        /* \"#utility.yul\":3084:3088   */\n      0x00\n        /* \"#utility.yul\":3122:3124   */\n      0x20\n        /* \"#utility.yul\":3111:3120   */\n      dup3\n        /* \"#utility.yul\":3107:3125   */\n      add\n        /* \"#utility.yul\":3099:3125   */\n      swap1\n      pop\n        /* \"#utility.yul\":3135:3200   */\n      tag_317\n        /* \"#utility.yul\":3197:3198   */\n      0x00\n        /* \"#utility.yul\":3186:3195   */\n      dup4\n        /* \"#utility.yul\":3182:3199   */\n      add\n        /* \"#utility.yul\":3173:3179   */\n      dup5\n        /* \"#utility.yul\":3135:3200   */\n      tag_239\n      jump\t// in\n    tag_317:\n        /* \"#utility.yul\":2997:3207   */\n      swap3\n      swap2\n      pop\n      pop\n      jump\t// out\n        /* \"#utility.yul\":3213:3312   */\n    tag_240:\n        /* \"#utility.yul\":3265:3271   */\n      0x00\n        /* \"#utility.yul\":3299:3304   */\n      dup2\n        /* \"#utility.yul\":3293:3305   */\n      mload\n        /* \"#utility.yul\":3283:3305   */\n      swap1\n      pop\n        /* \"#utility.yul\":3213:3312   */\n      swap2\n      swap1\n      pop\n      jump\t// out\n        /* \"#utility.yul\":3318:3487   */\n    tag_241:\n        /* \"#utility.yul\":3402:3413   */\n      0x00\n        /* \"#utility.yul\":3436:3442   */\n      dup3\n        /* \"#utility.yul\":3431:3434   */\n      dup3\n        /* \"#utility.yul\":3424:3443   */\n      mstore\n        /* \"#utility.yul\":3476:3480   */\n      0x20\n        /* \"#utility.yul\":3471:3474   */\n      dup3\n        /* \"#utility.yul\":3467:3481   */\n      add\n        /* \"#utility.yul\":3452:3481   */\n      swap1\n      pop\n        /* \"#utility.yul\":3318:3487   */\n      swap3\n      swap2\n      pop\n      pop\n      jump\t// out\n        /* \"#utility.yul\":3493:3739   */\n    tag_242:\n        /* \"#utility.yul\":3574:3575   */\n      0x00\n        /* \"#utility.yul\":3584:3697   */\n    tag_321:\n        /* \"#utility.yul\":3598:3604   */\n      dup4\n        /* \"#utility.yul\":3595:3596   */\n      dup2\n        /* \"#utility.yul\":3592:3605   */\n      lt\n        /* \"#utility.yul\":3584:3697   */\n      iszero\n      tag_323\n      jumpi\n        /* \"#utility.yul\":3683:3684   */\n      dup1\n        /* \"#utility.yul\":3678:3681   */\n      dup3\n        /* \"#utility.yul\":3674:3685   */\n      add\n        /* \"#utility.yul\":3668:3686   */\n      mload\n        /* \"#utility.yul\":3664:3665   */\n      dup2\n        /* \"#utility.yul\":3659:3662   */\n      dup5\n        /* \"#utility.yul\":3655:3666   */\n      add\n        /* \"#utility.yul\":3648:3687   */\n      mstore\n        /* \"#utility.yul\":3620:3622   */\n      0x20\n        /* \"#utility.yul\":3617:3618   */\n      dup2\n        /* \"#utility.yul\":3613:3623   */\n      add\n        /* \"#utility.yul\":3608:3623   */\n      swap1\n      pop\n        /* \"#utility.yul\":3584:3697   */\n      jump(tag_321)\n    tag_323:\n        /* \"#utility.yul\":3731:3732   */\n      0x00\n        /* \"#utility.yul\":3722:3728   */\n      dup5\n        /* \"#utility.yul\":3717:3720   */\n      dup5\n        /* \"#utility.yul\":3713:3729   */\n      add\n        /* \"#utility.yul\":3706:3733   */\n      mstore\n        /* \"#utility.yul\":3555:3739   */\n      pop\n        /* \"#utility.yul\":3493:3739   */\n      pop\n      pop\n      pop\n      jump\t// out\n        /* \"#utility.yul\":3745:3847   */\n    tag_243:\n        /* \"#utility.yul\":3786:3792   */\n      0x00\n        /* \"#utility.yul\":3837:3839   */\n      0x1f\n        /* \"#utility.yul\":3833:3840   */\n      not\n        /* \"#utility.yul\":3828:3830   */\n      0x1f\n        /* \"#utility.yul\":3821:3826   */\n      dup4\n        /* \"#utility.yul\":3817:3831   */\n      add\n        /* \"#utility.yul\":3813:3841   */\n      and\n        /* \"#utility.yul\":3803:3841   */\n      swap1\n      pop\n        /* \"#utility.yul\":3745:3847   */\n      swap2\n      swap1\n      pop\n      jump\t// out\n        /* \"#utility.yul\":3853:4230   */\n    tag_244:\n        /* \"#utility.yul\":3941:3944   */\n      0x00\n        /* \"#utility.yul\":3969:4008   */\n      tag_326\n        /* \"#utility.yul\":4002:4007   */\n      dup3\n        /* \"#utility.yul\":3969:4008   */\n      tag_240\n      jump\t// in\n    tag_326:\n        /* \"#utility.yul\":4024:4095   */\n      tag_327\n        /* \"#utility.yul\":4088:4094   */\n      dup2\n        /* \"#utility.yul\":4083:4086   */\n      dup6\n        /* \"#utility.yul\":4024:4095   */\n      tag_241\n      jump\t// in\n    tag_327:\n        /* \"#utility.yul\":4017:4095   */\n      swap4\n      pop\n        /* \"#utility.yul\":4104:4169   */\n      tag_328\n        /* \"#utility.yul\":4162:4168   */\n      dup2\n        /* \"#utility.yul\":4157:4160   */\n      dup6\n        /* \"#utility.yul\":4150:4154   */\n      0x20\n        /* \"#utility.yul\":4143:4148   */\n      dup7\n        /* \"#utility.yul\":4139:4155   */\n      add\n        /* \"#utility.yul\":4104:4169   */\n      tag_242\n      jump\t// in\n    tag_328:\n        /* \"#utility.yul\":4194:4223   */\n      tag_329\n        /* \"#utility.yul\":4216:4222   */\n      dup2\n        /* \"#utility.yul\":4194:4223   */\n      tag_243\n      jump\t// in\n    tag_329:\n        /* \"#utility.yul\":4189:4192   */\n      dup5\n        /* \"#utility.yul\":4185:4224   */\n      add\n        /* \"#utility.yul\":4178:4224   */\n      swap2\n      pop\n        /* \"#utility.yul\":3945:4230   */\n      pop\n        /* \"#utility.yul\":3853:4230   */\n      swap3\n      swap2\n      pop\n      pop\n      jump\t// out\n        /* \"#utility.yul\":4236:4549   */\n    tag_29:\n        /* \"#utility.yul\":4349:4353   */\n      0x00\n        /* \"#utility.yul\":4387:4389   */\n      0x20\n        /* \"#utility.yul\":4376:4385   */\n      dup3\n        /* \"#utility.yul\":4372:4390   */\n      add\n        /* \"#utility.yul\":4364:4390   */\n      swap1\n      pop\n        /* \"#utility.yul\":4436:4445   */\n      dup2\n        /* \"#utility.yul\":4430:4434   */\n      dup2\n        /* \"#utility.yul\":4426:4446   */\n      sub\n        /* \"#utility.yul\":4422:4423   */\n      0x00\n        /* \"#utility.yul\":4411:4420   */\n      dup4\n        /* \"#utility.yul\":4407:4424   */\n      add\n        /* \"#utility.yul\":4400:4447   */\n      mstore\n        /* \"#utility.yul\":4464:4542   */\n      tag_331\n        /* \"#utility.yul\":4537:4541   */\n      dup2\n        /* \"#utility.yul\":4528:4534   */\n      dup5\n        /* \"#utility.yul\":4464:4542   */\n      tag_244\n      jump\t// in\n    tag_331:\n        /* \"#utility.yul\":4456:4542   */\n      swap1\n      pop\n        /* \"#utility.yul\":4236:4549   */\n      swap3\n      swap2\n      pop\n      pop\n      jump\t// out\n        /* \"#utility.yul\":4555:4884   */\n    tag_32:\n        /* \"#utility.yul\":4614:4620   */\n      0x00\n        /* \"#utility.yul\":4663:4665   */\n      0x20\n        /* \"#utility.yul\":4651:4660   */\n      dup3\n        /* \"#utility.yul\":4642:4649   */\n      dup5\n        /* \"#utility.yul\":4638:4661   */\n      sub\n        /* \"#utility.yul\":4634:4666   */\n      slt\n        /* \"#utility.yul\":4631:4750   */\n      iszero\n      tag_333\n      jumpi\n        /* \"#utility.yul\":4669:4748   */\n      tag_334\n      tag_225\n      jump\t// in\n    tag_334:\n        /* \"#utility.yul\":4631:4750   */\n    tag_333:\n        /* \"#utility.yul\":4789:4790   */\n      0x00\n        /* \"#utility.yul\":4814:4867   */\n      tag_335\n        /* \"#utility.yul\":4859:4866   */\n      dup5\n        /* \"#utility.yul\":4850:4856   */\n      dup3\n        /* \"#utility.yul\":4839:4848   */\n      dup6\n        /* \"#utility.yul\":4835:4857   */\n      add\n        /* \"#utility.yul\":4814:4867   */\n      tag_233\n      jump\t// in\n    tag_335:\n        /* \"#utility.yul\":4804:4867   */\n      swap2\n      pop\n        /* \"#utility.yul\":4760:4877   */\n      pop\n        /* \"#utility.yul\":4555:4884   */\n      swap3\n      swap2\n      pop\n      pop\n      jump\t// out\n        /* \"#utility.yul\":4890:5007   */\n    tag_245:\n        /* \"#utility.yul\":4999:5000   */\n      0x00\n        /* \"#utility.yul\":4996:4997   */\n      dup1\n        /* \"#utility.yul\":4989:5001   */\n      revert\n        /* \"#utility.yul\":5013:5193   */\n    tag_95:\n        /* \"#utility.yul\":5061:5138   */\n      0x4e487b7100000000000000000000000000000000000000000000000000000000\n        /* \"#utility.yul\":5058:5059   */\n      0x00\n        /* \"#utility.yul\":5051:5139   */\n      mstore\n        /* \"#utility.yul\":5158:5162   */\n      0x41\n        /* \"#utility.yul\":5155:5156   */\n      0x04\n        /* \"#utility.yul\":5148:5163   */\n      mstore\n        /* \"#utility.yul\":5182:5186   */\n      0x24\n        /* \"#utility.yul\":5179:5180   */\n      0x00\n        /* \"#utility.yul\":5172:5187   */\n      revert\n        /* \"#utility.yul\":5199:5480   */\n    tag_246:\n        /* \"#utility.yul\":5282:5309   */\n      tag_339\n        /* \"#utility.yul\":5304:5308   */\n      dup3\n        /* \"#utility.yul\":5282:5309   */\n      tag_243\n      jump\t// in\n    tag_339:\n        /* \"#utility.yul\":5274:5280   */\n      dup2\n        /* \"#utility.yul\":5270:5310   */\n      add\n        /* \"#utility.yul\":5412:5418   */\n      dup2\n        /* \"#utility.yul\":5400:5410   */\n      dup2\n        /* \"#utility.yul\":5397:5419   */\n      lt\n        /* \"#utility.yul\":5376:5394   */\n      0xffffffffffffffff\n        /* \"#utility.yul\":5364:5374   */\n      dup3\n        /* \"#utility.yul\":5361:5395   */\n      gt\n        /* \"#utility.yul\":5358:5420   */\n      or\n        /* \"#utility.yul\":5355:5443   */\n      iszero\n      tag_340\n      jumpi\n        /* \"#utility.yul\":5423:5441   */\n      tag_341\n      tag_95\n      jump\t// in\n    tag_341:\n        /* \"#utility.yul\":5355:5443   */\n    tag_340:\n        /* \"#utility.yul\":5463:5473   */\n      dup1\n        /* \"#utility.yul\":5459:5461   */\n      0x40\n        /* \"#utility.yul\":5452:5474   */\n      mstore\n        /* \"#utility.yul\":5242:5480   */\n      pop\n        /* \"#utility.yul\":5199:5480   */\n      pop\n      pop\n      jump\t// out\n        /* \"#utility.yul\":5486:5615   */\n    tag_247:\n        /* \"#utility.yul\":5520:5526   */\n      0x00\n        /* \"#utility.yul\":5547:5567   */\n      tag_343\n      tag_224\n      jump\t// in\n    tag_343:\n        /* \"#utility.yul\":5537:5567   */\n      swap1\n      pop\n        /* \"#utility.yul\":5576:5609   */\n      tag_344\n        /* \"#utility.yul\":5604:5608   */\n      dup3\n        /* \"#utility.yul\":5596:5602   */\n      dup3\n        /* \"#utility.yul\":5576:5609   */\n      tag_246\n      jump\t// in\n    tag_344:\n        /* \"#utility.yul\":5486:5615   */\n      swap2\n      swap1\n      pop\n      jump\t// out\n        /* \"#utility.yul\":5621:5932   */\n    tag_248:\n        /* \"#utility.yul\":5698:5702   */\n      0x00\n        /* \"#utility.yul\":5788:5806   */\n      0xffffffffffffffff\n        /* \"#utility.yul\":5780:5786   */\n      dup3\n        /* \"#utility.yul\":5777:5807   */\n      gt\n        /* \"#utility.yul\":5774:5830   */\n      iszero\n      tag_346\n      jumpi\n        /* \"#utility.yul\":5810:5828   */\n      tag_347\n      tag_95\n      jump\t// in\n    tag_347:\n        /* \"#utility.yul\":5774:5830   */\n    tag_346:\n        /* \"#utility.yul\":5860:5864   */\n      0x20\n        /* \"#utility.yul\":5852:5858   */\n      dup3\n        /* \"#utility.yul\":5848:5865   */\n      mul\n        /* \"#utility.yul\":5840:5865   */\n      swap1\n      pop\n        /* \"#utility.yul\":5920:5924   */\n      0x20\n        /* \"#utility.yul\":5914:5918   */\n      dup2\n        /* \"#utility.yul\":5910:5925   */\n      add\n        /* \"#utility.yul\":5902:5925   */\n      swap1\n      pop\n        /* \"#utility.yul\":5621:5932   */\n      swap2\n      swap1\n      pop\n      jump\t// out\n        /* \"#utility.yul\":5938:6055   */\n    tag_249:\n        /* \"#utility.yul\":6047:6048   */\n      0x00\n        /* \"#utility.yul\":6044:6045   */\n      dup1\n        /* \"#utility.yul\":6037:6049   */\n      revert\n        /* \"#utility.yul\":6078:6788   */\n    tag_250:\n        /* \"#utility.yul\":6174:6179   */\n      0x00\n        /* \"#utility.yul\":6199:6280   */\n      tag_350\n        /* \"#utility.yul\":6215:6279   */\n      tag_351\n        /* \"#utility.yul\":6272:6278   */\n      dup5\n        /* \"#utility.yul\":6215:6279   */\n      tag_248\n      jump\t// in\n    tag_351:\n        /* \"#utility.yul\":6199:6280   */\n      tag_247\n      jump\t// in\n    tag_350:\n        /* \"#utility.yul\":6190:6280   */\n      swap1\n      pop\n        /* \"#utility.yul\":6300:6305   */\n      dup1\n        /* \"#utility.yul\":6329:6335   */\n      dup4\n        /* \"#utility.yul\":6322:6327   */\n      dup3\n        /* \"#utility.yul\":6315:6336   */\n      mstore\n        /* \"#utility.yul\":6363:6367   */\n      0x20\n        /* \"#utility.yul\":6356:6361   */\n      dup3\n        /* \"#utility.yul\":6352:6368   */\n      add\n        /* \"#utility.yul\":6345:6368   */\n      swap1\n      pop\n        /* \"#utility.yul\":6416:6420   */\n      0x20\n        /* \"#utility.yul\":6408:6414   */\n      dup5\n        /* \"#utility.yul\":6404:6421   */\n      mul\n        /* \"#utility.yul\":6396:6402   */\n      dup4\n        /* \"#utility.yul\":6392:6422   */\n      add\n        /* \"#utility.yul\":6445:6448   */\n      dup6\n        /* \"#utility.yul\":6437:6443   */\n      dup2\n        /* \"#utility.yul\":6434:6449   */\n      gt\n        /* \"#utility.yul\":6431:6553   */\n      iszero\n      tag_352\n      jumpi\n        /* \"#utility.yul\":6464:6543   */\n      tag_353\n      tag_249\n      jump\t// in\n    tag_353:\n        /* \"#utility.yul\":6431:6553   */\n    tag_352:\n        /* \"#utility.yul\":6579:6585   */\n      dup4\n        /* \"#utility.yul\":6562:6782   */\n    tag_354:\n        /* \"#utility.yul\":6596:6602   */\n      dup2\n        /* \"#utility.yul\":6591:6594   */\n      dup2\n        /* \"#utility.yul\":6588:6603   */\n      lt\n        /* \"#utility.yul\":6562:6782   */\n      iszero\n      tag_356\n      jumpi\n        /* \"#utility.yul\":6671:6674   */\n      dup1\n        /* \"#utility.yul\":6700:6737   */\n      tag_357\n        /* \"#utility.yul\":6733:6736   */\n      dup9\n        /* \"#utility.yul\":6721:6731   */\n      dup3\n        /* \"#utility.yul\":6700:6737   */\n      tag_233\n      jump\t// in\n    tag_357:\n        /* \"#utility.yul\":6695:6698   */\n      dup5\n        /* \"#utility.yul\":6688:6738   */\n      mstore\n        /* \"#utility.yul\":6767:6771   */\n      0x20\n        /* \"#utility.yul\":6762:6765   */\n      dup5\n        /* \"#utility.yul\":6758:6772   */\n      add\n        /* \"#utility.yul\":6751:6772   */\n      swap4\n      pop\n        /* \"#utility.yul\":6638:6782   */\n      pop\n        /* \"#utility.yul\":6622:6626   */\n      0x20\n        /* \"#utility.yul\":6617:6620   */\n      dup2\n        /* \"#utility.yul\":6613:6627   */\n      add\n        /* \"#utility.yul\":6606:6627   */\n      swap1\n      pop\n        /* \"#utility.yul\":6562:6782   */\n      jump(tag_354)\n    tag_356:\n        /* \"#utility.yul\":6566:6587   */\n      pop\n        /* \"#utility.yul\":6180:6788   */\n      pop\n      pop\n        /* \"#utility.yul\":6078:6788   */\n      swap4\n      swap3\n      pop\n      pop\n      pop\n      jump\t// out\n        /* \"#utility.yul\":6811:7181   */\n    tag_251:\n        /* \"#utility.yul\":6882:6887   */\n      0x00\n        /* \"#utility.yul\":6931:6934   */\n      dup3\n        /* \"#utility.yul\":6924:6928   */\n      0x1f\n        /* \"#utility.yul\":6916:6922   */\n      dup4\n        /* \"#utility.yul\":6912:6929   */\n      add\n        /* \"#utility.yul\":6908:6935   */\n      slt\n        /* \"#utility.yul\":6898:7020   */\n      tag_359\n      jumpi\n        /* \"#utility.yul\":6939:7018   */\n      tag_360\n      tag_245\n      jump\t// in\n    tag_360:\n        /* \"#utility.yul\":6898:7020   */\n    tag_359:\n        /* \"#utility.yul\":7056:7062   */\n      dup2\n        /* \"#utility.yul\":7043:7063   */\n      calldataload\n        /* \"#utility.yul\":7081:7175   */\n      tag_361\n        /* \"#utility.yul\":7171:7174   */\n      dup5\n        /* \"#utility.yul\":7163:7169   */\n      dup3\n        /* \"#utility.yul\":7156:7160   */\n      0x20\n        /* \"#utility.yul\":7148:7154   */\n      dup7\n        /* \"#utility.yul\":7144:7161   */\n      add\n        /* \"#utility.yul\":7081:7175   */\n      tag_250\n      jump\t// in\n    tag_361:\n        /* \"#utility.yul\":7072:7175   */\n      swap2\n      pop\n        /* \"#utility.yul\":6888:7181   */\n      pop\n        /* \"#utility.yul\":6811:7181   */\n      swap3\n      swap2\n      pop\n      pop\n      jump\t// out\n        /* \"#utility.yul\":7187:7304   */\n    tag_252:\n        /* \"#utility.yul\":7296:7297   */\n      0x00\n        /* \"#utility.yul\":7293:7294   */\n      dup1\n        /* \"#utility.yul\":7286:7298   */\n      revert\n        /* \"#utility.yul\":7310:7617   */\n    tag_253:\n        /* \"#utility.yul\":7371:7375   */\n      0x00\n        /* \"#utility.yul\":7461:7479   */\n      0xffffffffffffffff\n        /* \"#utility.yul\":7453:7459   */\n      dup3\n        /* \"#utility.yul\":7450:7480   */\n      gt\n        /* \"#utility.yul\":7447:7503   */\n      iszero\n      tag_364\n      jumpi\n        /* \"#utility.yul\":7483:7501   */\n      tag_365\n      tag_95\n      jump\t// in\n    tag_365:\n        /* \"#utility.yul\":7447:7503   */\n    tag_364:\n        /* \"#utility.yul\":7521:7550   */\n      tag_366\n        /* \"#utility.yul\":7543:7549   */\n      dup3\n        /* \"#utility.yul\":7521:7550   */\n      tag_243\n      jump\t// in\n    tag_366:\n        /* \"#utility.yul\":7513:7550   */\n      swap1\n      pop\n        /* \"#utility.yul\":7605:7609   */\n      0x20\n        /* \"#utility.yul\":7599:7603   */\n      dup2\n        /* \"#utility.yul\":7595:7610   */\n      add\n        /* \"#utility.yul\":7587:7610   */\n      swap1\n      pop\n        /* \"#utility.yul\":7310:7617   */\n      swap2\n      swap1\n      pop\n      jump\t// out\n        /* \"#utility.yul\":7623:7769   */\n    tag_254:\n        /* \"#utility.yul\":7720:7726   */\n      dup3\n        /* \"#utility.yul\":7715:7718   */\n      dup2\n        /* \"#utility.yul\":7710:7713   */\n      dup4\n        /* \"#utility.yul\":7697:7727   */\n      calldatacopy\n        /* \"#utility.yul\":7761:7762   */\n      0x00\n        /* \"#utility.yul\":7752:7758   */\n      dup4\n        /* \"#utility.yul\":7747:7750   */\n      dup4\n        /* \"#utility.yul\":7743:7759   */\n      add\n        /* \"#utility.yul\":7736:7763   */\n      mstore\n        /* \"#utility.yul\":7623:7769   */\n      pop\n      pop\n      pop\n      jump\t// out\n        /* \"#utility.yul\":7775:8198   */\n    tag_255:\n        /* \"#utility.yul\":7852:7857   */\n      0x00\n        /* \"#utility.yul\":7877:7942   */\n      tag_369\n        /* \"#utility.yul\":7893:7941   */\n      tag_370\n        /* \"#utility.yul\":7934:7940   */\n      dup5\n        /* \"#utility.yul\":7893:7941   */\n      tag_253\n      jump\t// in\n    tag_370:\n        /* \"#utility.yul\":7877:7942   */\n      tag_247\n      jump\t// in\n    tag_369:\n        /* \"#utility.yul\":7868:7942   */\n      swap1\n      pop\n        /* \"#utility.yul\":7965:7971   */\n      dup3\n        /* \"#utility.yul\":7958:7963   */\n      dup2\n        /* \"#utility.yul\":7951:7972   */\n      mstore\n        /* \"#utility.yul\":8003:8007   */\n      0x20\n        /* \"#utility.yul\":7996:8001   */\n      dup2\n        /* \"#utility.yul\":7992:8008   */\n      add\n        /* \"#utility.yul\":8041:8044   */\n      dup5\n        /* \"#utility.yul\":8032:8038   */\n      dup5\n        /* \"#utility.yul\":8027:8030   */\n      dup5\n        /* \"#utility.yul\":8023:8039   */\n      add\n        /* \"#utility.yul\":8020:8045   */\n      gt\n        /* \"#utility.yul\":8017:8129   */\n      iszero\n      tag_371\n      jumpi\n        /* \"#utility.yul\":8048:8127   */\n      tag_372\n      tag_252\n      jump\t// in\n    tag_372:\n        /* \"#utility.yul\":8017:8129   */\n    tag_371:\n        /* \"#utility.yul\":8138:8192   */\n      tag_373\n        /* \"#utility.yul\":8185:8191   */\n      dup5\n        /* \"#utility.yul\":8180:8183   */\n      dup3\n        /* \"#utility.yul\":8175:8178   */\n      dup6\n        /* \"#utility.yul\":8138:8192   */\n      tag_254\n      jump\t// in\n    tag_373:\n        /* \"#utility.yul\":7858:8198   */\n      pop\n        /* \"#utility.yul\":7775:8198   */\n      swap4\n      swap3\n      pop\n      pop\n      pop\n      jump\t// out\n        /* \"#utility.yul\":8217:8555   */\n    tag_256:\n        /* \"#utility.yul\":8272:8277   */\n      0x00\n        /* \"#utility.yul\":8321:8324   */\n      dup3\n        /* \"#utility.yul\":8314:8318   */\n      0x1f\n        /* \"#utility.yul\":8306:8312   */\n      dup4\n        /* \"#utility.yul\":8302:8319   */\n      add\n        /* \"#utility.yul\":8298:8325   */\n      slt\n        /* \"#utility.yul\":8288:8410   */\n      tag_375\n      jumpi\n        /* \"#utility.yul\":8329:8408   */\n      tag_376\n      tag_245\n      jump\t// in\n    tag_376:\n        /* \"#utility.yul\":8288:8410   */\n    tag_375:\n        /* \"#utility.yul\":8446:8452   */\n      dup2\n        /* \"#utility.yul\":8433:8453   */\n      calldataload\n        /* \"#utility.yul\":8471:8549   */\n      tag_377\n        /* \"#utility.yul\":8545:8548   */\n      dup5\n        /* \"#utility.yul\":8537:8543   */\n      dup3\n        /* \"#utility.yul\":8530:8534   */\n      0x20\n        /* \"#utility.yul\":8522:8528   */\n      dup7\n        /* \"#utility.yul\":8518:8535   */\n      add\n        /* \"#utility.yul\":8471:8549   */\n      tag_255\n      jump\t// in\n    tag_377:\n        /* \"#utility.yul\":8462:8549   */\n      swap2\n      pop\n        /* \"#utility.yul\":8278:8555   */\n      pop\n        /* \"#utility.yul\":8217:8555   */\n      swap3\n      swap2\n      pop\n      pop\n      jump\t// out\n        /* \"#utility.yul\":8561:10070   */\n    tag_37:\n        /* \"#utility.yul\":8715:8721   */\n      0x00\n        /* \"#utility.yul\":8723:8729   */\n      dup1\n        /* \"#utility.yul\":8731:8737   */\n      0x00\n        /* \"#utility.yul\":8739:8745   */\n      dup1\n        /* \"#utility.yul\":8747:8753   */\n      0x00\n        /* \"#utility.yul\":8796:8799   */\n      0xa0\n        /* \"#utility.yul\":8784:8793   */\n      dup7\n        /* \"#utility.yul\":8775:8782   */\n      dup9\n        /* \"#utility.yul\":8771:8794   */\n      sub\n        /* \"#utility.yul\":8767:8800   */\n      slt\n        /* \"#utility.yul\":8764:8884   */\n      iszero\n      tag_379\n      jumpi\n        /* \"#utility.yul\":8803:8882   */\n      tag_380\n      tag_225\n      jump\t// in\n    tag_380:\n        /* \"#utility.yul\":8764:8884   */\n    tag_379:\n        /* \"#utility.yul\":8923:8924   */\n      0x00\n        /* \"#utility.yul\":8948:9001   */\n      tag_381\n        /* \"#utility.yul\":8993:9000   */\n      dup9\n        /* \"#utility.yul\":8984:8990   */\n      dup3\n        /* \"#utility.yul\":8973:8982   */\n      dup10\n        /* \"#utility.yul\":8969:8991   */\n      add\n        /* \"#utility.yul\":8948:9001   */\n      tag_230\n      jump\t// in\n    tag_381:\n        /* \"#utility.yul\":8938:9001   */\n      swap6\n      pop\n        /* \"#utility.yul\":8894:9011   */\n      pop\n        /* \"#utility.yul\":9050:9052   */\n      0x20\n        /* \"#utility.yul\":9076:9129   */\n      tag_382\n        /* \"#utility.yul\":9121:9128   */\n      dup9\n        /* \"#utility.yul\":9112:9118   */\n      dup3\n        /* \"#utility.yul\":9101:9110   */\n      dup10\n        /* \"#utility.yul\":9097:9119   */\n      add\n        /* \"#utility.yul\":9076:9129   */\n      tag_230\n      jump\t// in\n    tag_382:\n        /* \"#utility.yul\":9066:9129   */\n      swap5\n      pop\n        /* \"#utility.yul\":9021:9139   */\n      pop\n        /* \"#utility.yul\":9206:9208   */\n      0x40\n        /* \"#utility.yul\":9195:9204   */\n      dup7\n        /* \"#utility.yul\":9191:9209   */\n      add\n        /* \"#utility.yul\":9178:9210   */\n      calldataload\n        /* \"#utility.yul\":9237:9255   */\n      0xffffffffffffffff\n        /* \"#utility.yul\":9229:9235   */\n      dup2\n        /* \"#utility.yul\":9226:9256   */\n      gt\n        /* \"#utility.yul\":9223:9340   */\n      iszero\n      tag_383\n      jumpi\n        /* \"#utility.yul\":9259:9338   */\n      tag_384\n      tag_226\n      jump\t// in\n    tag_384:\n        /* \"#utility.yul\":9223:9340   */\n    tag_383:\n        /* \"#utility.yul\":9364:9442   */\n      tag_385\n        /* \"#utility.yul\":9434:9441   */\n      dup9\n        /* \"#utility.yul\":9425:9431   */\n      dup3\n        /* \"#utility.yul\":9414:9423   */\n      dup10\n        /* \"#utility.yul\":9410:9432   */\n      add\n        /* \"#utility.yul\":9364:9442   */\n      tag_251\n      jump\t// in\n    tag_385:\n        /* \"#utility.yul\":9354:9442   */\n      swap4\n      pop\n        /* \"#utility.yul\":9149:9452   */\n      pop\n        /* \"#utility.yul\":9519:9521   */\n      0x60\n        /* \"#utility.yul\":9508:9517   */\n      dup7\n        /* \"#utility.yul\":9504:9522   */\n      add\n        /* \"#utility.yul\":9491:9523   */\n      calldataload\n        /* \"#utility.yul\":9550:9568   */\n      0xffffffffffffffff\n        /* \"#utility.yul\":9542:9548   */\n      dup2\n        /* \"#utility.yul\":9539:9569   */\n      gt\n        /* \"#utility.yul\":9536:9653   */\n      iszero\n      tag_386\n      jumpi\n        /* \"#utility.yul\":9572:9651   */\n      tag_387\n      tag_226\n      jump\t// in\n    tag_387:\n        /* \"#utility.yul\":9536:9653   */\n    tag_386:\n        /* \"#utility.yul\":9677:9755   */\n      tag_388\n        /* \"#utility.yul\":9747:9754   */\n      dup9\n        /* \"#utility.yul\":9738:9744   */\n      dup3\n        /* \"#utility.yul\":9727:9736   */\n      dup10\n        /* \"#utility.yul\":9723:9745   */\n      add\n        /* \"#utility.yul\":9677:9755   */\n      tag_251\n      jump\t// in\n    tag_388:\n        /* \"#utility.yul\":9667:9755   */\n      swap3\n      pop\n        /* \"#utility.yul\":9462:9765   */\n      pop\n        /* \"#utility.yul\":9832:9835   */\n      0x80\n        /* \"#utility.yul\":9821:9830   */\n      dup7\n        /* \"#utility.yul\":9817:9836   */\n      add\n        /* \"#utility.yul\":9804:9837   */\n      calldataload\n        /* \"#utility.yul\":9864:9882   */\n      0xffffffffffffffff\n        /* \"#utility.yul\":9856:9862   */\n      dup2\n        /* \"#utility.yul\":9853:9883   */\n      gt\n        /* \"#utility.yul\":9850:9967   */\n      iszero\n      tag_389\n      jumpi\n        /* \"#utility.yul\":9886:9965   */\n      tag_390\n      tag_226\n      jump\t// in\n    tag_390:\n        /* \"#utility.yul\":9850:9967   */\n    tag_389:\n        /* \"#utility.yul\":9991:10053   */\n      tag_391\n        /* \"#utility.yul\":10045:10052   */\n      dup9\n        /* \"#utility.yul\":10036:10042   */\n      dup3\n        /* \"#utility.yul\":10025:10034   */\n      dup10\n        /* \"#utility.yul\":10021:10043   */\n      add\n        /* \"#utility.yul\":9991:10053   */\n      tag_256\n      jump\t// in\n    tag_391:\n        /* \"#utility.yul\":9981:10053   */\n      swap2\n      pop\n        /* \"#utility.yul\":9775:10063   */\n      pop\n        /* \"#utility.yul\":8561:10070   */\n      swap3\n      swap6\n      pop\n      swap3\n      swap6\n      swap1\n      swap4\n      pop\n      jump\t// out\n        /* \"#utility.yul\":10076:10387   */\n    tag_257:\n        /* \"#utility.yul\":10153:10157   */\n      0x00\n        /* \"#utility.yul\":10243:10261   */\n      0xffffffffffffffff\n        /* \"#utility.yul\":10235:10241   */\n      dup3\n        /* \"#utility.yul\":10232:10262   */\n      gt\n        /* \"#utility.yul\":10229:10285   */\n      iszero\n      tag_393\n      jumpi\n        /* \"#utility.yul\":10265:10283   */\n      tag_394\n      tag_95\n      jump\t// in\n    tag_394:\n        /* \"#utility.yul\":10229:10285   */\n    tag_393:\n        /* \"#utility.yul\":10315:10319   */\n      0x20\n        /* \"#utility.yul\":10307:10313   */\n      dup3\n        /* \"#utility.yul\":10303:10320   */\n      mul\n        /* \"#utility.yul\":10295:10320   */\n      swap1\n      pop\n        /* \"#utility.yul\":10375:10379   */\n      0x20\n        /* \"#utility.yul\":10369:10373   */\n      dup2\n        /* \"#utility.yul\":10365:10380   */\n      add\n        /* \"#utility.yul\":10357:10380   */\n      swap1\n      pop\n        /* \"#utility.yul\":10076:10387   */\n      swap2\n      swap1\n      pop\n      jump\t// out\n        /* \"#utility.yul\":10410:11120   */\n    tag_258:\n        /* \"#utility.yul\":10506:10511   */\n      0x00\n        /* \"#utility.yul\":10531:10612   */\n      tag_396\n        /* \"#utility.yul\":10547:10611   */\n      tag_397\n        /* \"#utility.yul\":10604:10610   */\n      dup5\n        /* \"#utility.yul\":10547:10611   */\n      tag_257\n      jump\t// in\n    tag_397:\n        /* \"#utility.yul\":10531:10612   */\n      tag_247\n      jump\t// in\n    tag_396:\n        /* \"#utility.yul\":10522:10612   */\n      swap1\n      pop\n        /* \"#utility.yul\":10632:10637   */\n      dup1\n        /* \"#utility.yul\":10661:10667   */\n      dup4\n        /* \"#utility.yul\":10654:10659   */\n      dup3\n        /* \"#utility.yul\":10647:10668   */\n      mstore\n        /* \"#utility.yul\":10695:10699   */\n      0x20\n        /* \"#utility.yul\":10688:10693   */\n      dup3\n        /* \"#utility.yul\":10684:10700   */\n      add\n        /* \"#utility.yul\":10677:10700   */\n      swap1\n      pop\n        /* \"#utility.yul\":10748:10752   */\n      0x20\n        /* \"#utility.yul\":10740:10746   */\n      dup5\n        /* \"#utility.yul\":10736:10753   */\n      mul\n        /* \"#utility.yul\":10728:10734   */\n      dup4\n        /* \"#utility.yul\":10724:10754   */\n      add\n        /* \"#utility.yul\":10777:10780   */\n      dup6\n        /* \"#utility.yul\":10769:10775   */\n      dup2\n        /* \"#utility.yul\":10766:10781   */\n      gt\n        /* \"#utility.yul\":10763:10885   */\n      iszero\n      tag_398\n      jumpi\n        /* \"#utility.yul\":10796:10875   */\n      tag_399\n      tag_249\n      jump\t// in\n    tag_399:\n        /* \"#utility.yul\":10763:10885   */\n    tag_398:\n        /* \"#utility.yul\":10911:10917   */\n      dup4\n        /* \"#utility.yul\":10894:11114   */\n    tag_400:\n        /* \"#utility.yul\":10928:10934   */\n      dup2\n        /* \"#utility.yul\":10923:10926   */\n      dup2\n        /* \"#utility.yul\":10920:10935   */\n      lt\n        /* \"#utility.yul\":10894:11114   */\n      iszero\n      tag_402\n      jumpi\n        /* \"#utility.yul\":11003:11006   */\n      dup1\n        /* \"#utility.yul\":11032:11069   */\n      tag_403\n        /* \"#utility.yul\":11065:11068   */\n      dup9\n        /* \"#utility.yul\":11053:11063   */\n      dup3\n        /* \"#utility.yul\":11032:11069   */\n      tag_230\n      jump\t// in\n    tag_403:\n        /* \"#utility.yul\":11027:11030   */\n      dup5\n        /* \"#utility.yul\":11020:11070   */\n      mstore\n        /* \"#utility.yul\":11099:11103   */\n      0x20\n        /* \"#utility.yul\":11094:11097   */\n      dup5\n        /* \"#utility.yul\":11090:11104   */\n      add\n        /* \"#utility.yul\":11083:11104   */\n      swap4\n      pop\n        /* \"#utility.yul\":10970:11114   */\n      pop\n        /* \"#utility.yul\":10954:10958   */\n      0x20\n        /* \"#utility.yul\":10949:10952   */\n      dup2\n        /* \"#utility.yul\":10945:10959   */\n      add\n        /* \"#utility.yul\":10938:10959   */\n      swap1\n      pop\n        /* \"#utility.yul\":10894:11114   */\n      jump(tag_400)\n    tag_402:\n        /* \"#utility.yul\":10898:10919   */\n      pop\n        /* \"#utility.yul\":10512:11120   */\n      pop\n      pop\n        /* \"#utility.yul\":10410:11120   */\n      swap4\n      swap3\n      pop\n      pop\n      pop\n      jump\t// out\n        /* \"#utility.yul\":11143:11513   */\n    tag_259:\n        /* \"#utility.yul\":11214:11219   */\n      0x00\n        /* \"#utility.yul\":11263:11266   */\n      dup3\n        /* \"#utility.yul\":11256:11260   */\n      0x1f\n        /* \"#utility.yul\":11248:11254   */\n      dup4\n        /* \"#utility.yul\":11244:11261   */\n      add\n        /* \"#utility.yul\":11240:11267   */\n      slt\n        /* \"#utility.yul\":11230:11352   */\n      tag_405\n      jumpi\n        /* \"#utility.yul\":11271:11350   */\n      tag_406\n      tag_245\n      jump\t// in\n    tag_406:\n        /* \"#utility.yul\":11230:11352   */\n    tag_405:\n        /* \"#utility.yul\":11388:11394   */\n      dup2\n        /* \"#utility.yul\":11375:11395   */\n      calldataload\n        /* \"#utility.yul\":11413:11507   */\n      tag_407\n        /* \"#utility.yul\":11503:11506   */\n      dup5\n        /* \"#utility.yul\":11495:11501   */\n      dup3\n        /* \"#utility.yul\":11488:11492   */\n      0x20\n        /* \"#utility.yul\":11480:11486   */\n      dup7\n        /* \"#utility.yul\":11476:11493   */\n      add\n        /* \"#utility.yul\":11413:11507   */\n      tag_258\n      jump\t// in\n    tag_407:\n        /* \"#utility.yul\":11404:11507   */\n      swap2\n      pop\n        /* \"#utility.yul\":11220:11513   */\n      pop\n        /* \"#utility.yul\":11143:11513   */\n      swap3\n      swap2\n      pop\n      pop\n      jump\t// out\n        /* \"#utility.yul\":11519:12413   */\n    tag_41:\n        /* \"#utility.yul\":11637:11643   */\n      0x00\n        /* \"#utility.yul\":11645:11651   */\n      dup1\n        /* \"#utility.yul\":11694:11696   */\n      0x40\n        /* \"#utility.yul\":11682:11691   */\n      dup4\n        /* \"#utility.yul\":11673:11680   */\n      dup6\n        /* \"#utility.yul\":11669:11692   */\n      sub\n        /* \"#utility.yul\":11665:11697   */\n      slt\n        /* \"#utility.yul\":11662:11781   */\n      iszero\n      tag_409\n      jumpi\n        /* \"#utility.yul\":11700:11779   */\n      tag_410\n      tag_225\n      jump\t// in\n    tag_410:\n        /* \"#utility.yul\":11662:11781   */\n    tag_409:\n        /* \"#utility.yul\":11848:11849   */\n      0x00\n        /* \"#utility.yul\":11837:11846   */\n      dup4\n        /* \"#utility.yul\":11833:11850   */\n      add\n        /* \"#utility.yul\":11820:11851   */\n      calldataload\n        /* \"#utility.yul\":11878:11896   */\n      0xffffffffffffffff\n        /* \"#utility.yul\":11870:11876   */\n      dup2\n        /* \"#utility.yul\":11867:11897   */\n      gt\n        /* \"#utility.yul\":11864:11981   */\n      iszero\n      tag_411\n      jumpi\n        /* \"#utility.yul\":11900:11979   */\n      tag_412\n      tag_226\n      jump\t// in\n    tag_412:\n        /* \"#utility.yul\":11864:11981   */\n    tag_411:\n        /* \"#utility.yul\":12005:12083   */\n      tag_413\n        /* \"#utility.yul\":12075:12082   */\n      dup6\n        /* \"#utility.yul\":12066:12072   */\n      dup3\n        /* \"#utility.yul\":12055:12064   */\n      dup7\n        /* \"#utility.yul\":12051:12073   */\n      add\n        /* \"#utility.yul\":12005:12083   */\n      tag_259\n      jump\t// in\n    tag_413:\n        /* \"#utility.yul\":11995:12083   */\n      swap3\n      pop\n        /* \"#utility.yul\":11791:12093   */\n      pop\n        /* \"#utility.yul\":12160:12162   */\n      0x20\n        /* \"#utility.yul\":12149:12158   */\n      dup4\n        /* \"#utility.yul\":12145:12163   */\n      add\n        /* \"#utility.yul\":12132:12164   */\n      calldataload\n        /* \"#utility.yul\":12191:12209   */\n      0xffffffffffffffff\n        /* \"#utility.yul\":12183:12189   */\n      dup2\n        /* \"#utility.yul\":12180:12210   */\n      gt\n        /* \"#utility.yul\":12177:12294   */\n      iszero\n      tag_414\n      jumpi\n        /* \"#utility.yul\":12213:12292   */\n      tag_415\n      tag_226\n      jump\t// in\n    tag_415:\n        /* \"#utility.yul\":12177:12294   */\n    tag_414:\n        /* \"#utility.yul\":12318:12396   */\n      tag_416\n        /* \"#utility.yul\":12388:12395   */\n      dup6\n        /* \"#utility.yul\":12379:12385   */\n      dup3\n        /* \"#utility.yul\":12368:12377   */\n      dup7\n        /* \"#utility.yul\":12364:12386   */\n      add\n        /* \"#utility.yul\":12318:12396   */\n      tag_251\n      jump\t// in\n    tag_416:\n        /* \"#utility.yul\":12308:12396   */\n      swap2\n      pop\n        /* \"#utility.yul\":12103:12406   */\n      pop\n        /* \"#utility.yul\":11519:12413   */\n      swap3\n      pop\n      swap3\n      swap1\n      pop\n      jump\t// out\n        /* \"#utility.yul\":12419:12533   */\n    tag_260:\n        /* \"#utility.yul\":12486:12492   */\n      0x00\n        /* \"#utility.yul\":12520:12525   */\n      dup2\n        /* \"#utility.yul\":12514:12526   */\n      mload\n        /* \"#utility.yul\":12504:12526   */\n      swap1\n      pop\n        /* \"#utility.yul\":12419:12533   */\n      swap2\n      swap1\n      pop\n      jump\t// out\n        /* \"#utility.yul\":12539:12723   */\n    tag_261:\n        /* \"#utility.yul\":12638:12649   */\n      0x00\n        /* \"#utility.yul\":12672:12678   */\n      dup3\n        /* \"#utility.yul\":12667:12670   */\n      dup3\n        /* \"#utility.yul\":12660:12679   */\n      mstore\n        /* \"#utility.yul\":12712:12716   */\n      0x20\n        /* \"#utility.yul\":12707:12710   */\n      dup3\n        /* \"#utility.yul\":12703:12717   */\n      add\n        /* \"#utility.yul\":12688:12717   */\n      swap1\n      pop\n        /* \"#utility.yul\":12539:12723   */\n      swap3\n      swap2\n      pop\n      pop\n      jump\t// out\n        /* \"#utility.yul\":12729:12861   */\n    tag_262:\n        /* \"#utility.yul\":12796:12800   */\n      0x00\n        /* \"#utility.yul\":12819:12822   */\n      dup2\n        /* \"#utility.yul\":12811:12822   */\n      swap1\n      pop\n        /* \"#utility.yul\":12849:12853   */\n      0x20\n        /* \"#utility.yul\":12844:12847   */\n      dup3\n        /* \"#utility.yul\":12840:12854   */\n      add\n        /* \"#utility.yul\":12832:12854   */\n      swap1\n      pop\n        /* \"#utility.yul\":12729:12861   */\n      swap2\n      swap1\n      pop\n      jump\t// out\n        /* \"#utility.yul\":12867:12975   */\n    tag_263:\n        /* \"#utility.yul\":12944:12968   */\n      tag_421\n        /* \"#utility.yul\":12962:12967   */\n      dup2\n        /* \"#utility.yul\":12944:12968   */\n      tag_231\n      jump\t// in\n    tag_421:\n        /* \"#utility.yul\":12939:12942   */\n      dup3\n        /* \"#utility.yul\":12932:12969   */\n      mstore\n        /* \"#utility.yul\":12867:12975   */\n      pop\n      pop\n      jump\t// out\n        /* \"#utility.yul\":12981:13160   */\n    tag_264:\n        /* \"#utility.yul\":13050:13060   */\n      0x00\n        /* \"#utility.yul\":13071:13117   */\n      tag_423\n        /* \"#utility.yul\":13113:13116   */\n      dup4\n        /* \"#utility.yul\":13105:13111   */\n      dup4\n        /* \"#utility.yul\":13071:13117   */\n      tag_263\n      jump\t// in\n    tag_423:\n        /* \"#utility.yul\":13149:13153   */\n      0x20\n        /* \"#utility.yul\":13144:13147   */\n      dup4\n        /* \"#utility.yul\":13140:13154   */\n      add\n        /* \"#utility.yul\":13126:13154   */\n      swap1\n      pop\n        /* \"#utility.yul\":12981:13160   */\n      swap3\n      swap2\n      pop\n      pop\n      jump\t// out\n        /* \"#utility.yul\":13166:13279   */\n    tag_265:\n        /* \"#utility.yul\":13236:13240   */\n      0x00\n        /* \"#utility.yul\":13268:13272   */\n      0x20\n        /* \"#utility.yul\":13263:13266   */\n      dup3\n        /* \"#utility.yul\":13259:13273   */\n      add\n        /* \"#utility.yul\":13251:13273   */\n      swap1\n      pop\n        /* \"#utility.yul\":13166:13279   */\n      swap2\n      swap1\n      pop\n      jump\t// out\n        /* \"#utility.yul\":13315:14047   */\n    tag_266:\n        /* \"#utility.yul\":13434:13437   */\n      0x00\n        /* \"#utility.yul\":13463:13517   */\n      tag_426\n        /* \"#utility.yul\":13511:13516   */\n      dup3\n        /* \"#utility.yul\":13463:13517   */\n      tag_260\n      jump\t// in\n    tag_426:\n        /* \"#utility.yul\":13533:13619   */\n      tag_427\n        /* \"#utility.yul\":13612:13618   */\n      dup2\n        /* \"#utility.yul\":13607:13610   */\n      dup6\n        /* \"#utility.yul\":13533:13619   */\n      tag_261\n      jump\t// in\n    tag_427:\n        /* \"#utility.yul\":13526:13619   */\n      swap4\n      pop\n        /* \"#utility.yul\":13643:13699   */\n      tag_428\n        /* \"#utility.yul\":13693:13698   */\n      dup4\n        /* \"#utility.yul\":13643:13699   */\n      tag_262\n      jump\t// in\n    tag_428:\n        /* \"#utility.yul\":13722:13729   */\n      dup1\n        /* \"#utility.yul\":13753:13754   */\n      0x00\n        /* \"#utility.yul\":13738:14022   */\n    tag_429:\n        /* \"#utility.yul\":13763:13769   */\n      dup4\n        /* \"#utility.yul\":13760:13761   */\n      dup2\n        /* \"#utility.yul\":13757:13770   */\n      lt\n        /* \"#utility.yul\":13738:14022   */\n      iszero\n      tag_431\n      jumpi\n        /* \"#utility.yul\":13839:13845   */\n      dup2\n        /* \"#utility.yul\":13833:13846   */\n      mload\n        /* \"#utility.yul\":13866:13929   */\n      tag_432\n        /* \"#utility.yul\":13925:13928   */\n      dup9\n        /* \"#utility.yul\":13910:13923   */\n      dup3\n        /* \"#utility.yul\":13866:13929   */\n      tag_264\n      jump\t// in\n    tag_432:\n        /* \"#utility.yul\":13859:13929   */\n      swap8\n      pop\n        /* \"#utility.yul\":13952:14012   */\n      tag_433\n        /* \"#utility.yul\":14005:14011   */\n      dup4\n        /* \"#utility.yul\":13952:14012   */\n      tag_265\n      jump\t// in\n    tag_433:\n        /* \"#utility.yul\":13942:14012   */\n      swap3\n      pop\n        /* \"#utility.yul\":13798:14022   */\n      pop\n        /* \"#utility.yul\":13785:13786   */\n      0x01\n        /* \"#utility.yul\":13782:13783   */\n      dup2\n        /* \"#utility.yul\":13778:13787   */\n      add\n        /* \"#utility.yul\":13773:13787   */\n      swap1\n      pop\n        /* \"#utility.yul\":13738:14022   */\n      jump(tag_429)\n    tag_431:\n        /* \"#utility.yul\":13742:13756   */\n      pop\n        /* \"#utility.yul\":14038:14041   */\n      dup6\n        /* \"#utility.yul\":14031:14041   */\n      swap4\n      pop\n        /* \"#utility.yul\":13439:14047   */\n      pop\n      pop\n      pop\n        /* \"#utility.yul\":13315:14047   */\n      swap3\n      swap2\n      pop\n      pop\n      jump\t// out\n        /* \"#utility.yul\":14053:14426   */\n    tag_44:\n        /* \"#utility.yul\":14196:14200   */\n      0x00\n        /* \"#utility.yul\":14234:14236   */\n      0x20\n        /* \"#utility.yul\":14223:14232   */\n      dup3\n        /* \"#utility.yul\":14219:14237   */\n      add\n        /* \"#utility.yul\":14211:14237   */\n      swap1\n      pop\n        /* \"#utility.yul\":14283:14292   */\n      dup2\n        /* \"#utility.yul\":14277:14281   */\n      dup2\n        /* \"#utility.yul\":14273:14293   */\n      sub\n        /* \"#utility.yul\":14269:14270   */\n      0x00\n        /* \"#utility.yul\":14258:14267   */\n      dup4\n        /* \"#utility.yul\":14254:14271   */\n      add\n        /* \"#utility.yul\":14247:14294   */\n      mstore\n        /* \"#utility.yul\":14311:14419   */\n      tag_435\n        /* \"#utility.yul\":14414:14418   */\n      dup2\n        /* \"#utility.yul\":14405:14411   */\n      dup5\n        /* \"#utility.yul\":14311:14419   */\n      tag_266\n      jump\t// in\n    tag_435:\n        /* \"#utility.yul\":14303:14419   */\n      swap1\n      pop\n        /* \"#utility.yul\":14053:14426   */\n      swap3\n      swap2\n      pop\n      pop\n      jump\t// out\n        /* \"#utility.yul\":14432:14548   */\n    tag_267:\n        /* \"#utility.yul\":14502:14523   */\n      tag_437\n        /* \"#utility.yul\":14517:14522   */\n      dup2\n        /* \"#utility.yul\":14502:14523   */\n      tag_238\n      jump\t// in\n    tag_437:\n        /* \"#utility.yul\":14495:14500   */\n      dup2\n        /* \"#utility.yul\":14492:14524   */\n      eq\n        /* \"#utility.yul\":14482:14542   */\n      tag_438\n      jumpi\n        /* \"#utility.yul\":14538:14539   */\n      0x00\n        /* \"#utility.yul\":14535:14536   */\n      dup1\n        /* \"#utility.yul\":14528:14540   */\n      revert\n        /* \"#utility.yul\":14482:14542   */\n    tag_438:\n        /* \"#utility.yul\":14432:14548   */\n      pop\n      jump\t// out\n        /* \"#utility.yul\":14554:14687   */\n    tag_268:\n        /* \"#utility.yul\":14597:14602   */\n      0x00\n        /* \"#utility.yul\":14635:14641   */\n      dup2\n        /* \"#utility.yul\":14622:14642   */\n      calldataload\n        /* \"#utility.yul\":14613:14642   */\n      swap1\n      pop\n        /* \"#utility.yul\":14651:14681   */\n      tag_440\n        /* \"#utility.yul\":14675:14680   */\n      dup2\n        /* \"#utility.yul\":14651:14681   */\n      tag_267\n      jump\t// in\n    tag_440:\n        /* \"#utility.yul\":14554:14687   */\n      swap3\n      swap2\n      pop\n      pop\n      jump\t// out\n        /* \"#utility.yul\":14693:15161   */\n    tag_50:\n        /* \"#utility.yul\":14758:14764   */\n      0x00\n        /* \"#utility.yul\":14766:14772   */\n      dup1\n        /* \"#utility.yul\":14815:14817   */\n      0x40\n        /* \"#utility.yul\":14803:14812   */\n      dup4\n        /* \"#utility.yul\":14794:14801   */\n      dup6\n        /* \"#utility.yul\":14790:14813   */\n      sub\n        /* \"#utility.yul\":14786:14818   */\n      slt\n        /* \"#utility.yul\":14783:14902   */\n      iszero\n      tag_442\n      jumpi\n        /* \"#utility.yul\":14821:14900   */\n      tag_443\n      tag_225\n      jump\t// in\n    tag_443:\n        /* \"#utility.yul\":14783:14902   */\n    tag_442:\n        /* \"#utility.yul\":14941:14942   */\n      0x00\n        /* \"#utility.yul\":14966:15019   */\n      tag_444\n        /* \"#utility.yul\":15011:15018   */\n      dup6\n        /* \"#utility.yul\":15002:15008   */\n      dup3\n        /* \"#utility.yul\":14991:15000   */\n      dup7\n        /* \"#utility.yul\":14987:15009   */\n      add\n        /* \"#utility.yul\":14966:15019   */\n      tag_230\n      jump\t// in\n    tag_444:\n        /* \"#utility.yul\":14956:15019   */\n      swap3\n      pop\n        /* \"#utility.yul\":14912:15029   */\n      pop\n        /* \"#utility.yul\":15068:15070   */\n      0x20\n        /* \"#utility.yul\":15094:15144   */\n      tag_445\n        /* \"#utility.yul\":15136:15143   */\n      dup6\n        /* \"#utility.yul\":15127:15133   */\n      dup3\n        /* \"#utility.yul\":15116:15125   */\n      dup7\n        /* \"#utility.yul\":15112:15134   */\n      add\n        /* \"#utility.yul\":15094:15144   */\n      tag_268\n      jump\t// in\n    tag_445:\n        /* \"#utility.yul\":15084:15144   */\n      swap2\n      pop\n        /* \"#utility.yul\":15039:15154   */\n      pop\n        /* \"#utility.yul\":14693:15161   */\n      swap3\n      pop\n      swap3\n      swap1\n      pop\n      jump\t// out\n        /* \"#utility.yul\":15167:15641   */\n    tag_54:\n        /* \"#utility.yul\":15235:15241   */\n      0x00\n        /* \"#utility.yul\":15243:15249   */\n      dup1\n        /* \"#utility.yul\":15292:15294   */\n      0x40\n        /* \"#utility.yul\":15280:15289   */\n      dup4\n        /* \"#utility.yul\":15271:15278   */\n      dup6\n        /* \"#utility.yul\":15267:15290   */\n      sub\n        /* \"#utility.yul\":15263:15295   */\n      slt\n        /* \"#utility.yul\":15260:15379   */\n      iszero\n      tag_447\n      jumpi\n        /* \"#utility.yul\":15298:15377   */\n      tag_448\n      tag_225\n      jump\t// in\n    tag_448:\n        /* \"#utility.yul\":15260:15379   */\n    tag_447:\n        /* \"#utility.yul\":15418:15419   */\n      0x00\n        /* \"#utility.yul\":15443:15496   */\n      tag_449\n        /* \"#utility.yul\":15488:15495   */\n      dup6\n        /* \"#utility.yul\":15479:15485   */\n      dup3\n        /* \"#utility.yul\":15468:15477   */\n      dup7\n        /* \"#utility.yul\":15464:15486   */\n      add\n        /* \"#utility.yul\":15443:15496   */\n      tag_230\n      jump\t// in\n    tag_449:\n        /* \"#utility.yul\":15433:15496   */\n      swap3\n      pop\n        /* \"#utility.yul\":15389:15506   */\n      pop\n        /* \"#utility.yul\":15545:15547   */\n      0x20\n        /* \"#utility.yul\":15571:15624   */\n      tag_450\n        /* \"#utility.yul\":15616:15623   */\n      dup6\n        /* \"#utility.yul\":15607:15613   */\n      dup3\n        /* \"#utility.yul\":15596:15605   */\n      dup7\n        /* \"#utility.yul\":15592:15614   */\n      add\n        /* \"#utility.yul\":15571:15624   */\n      tag_230\n      jump\t// in\n    tag_450:\n        /* \"#utility.yul\":15561:15624   */\n      swap2\n      pop\n        /* \"#utility.yul\":15516:15634   */\n      pop\n        /* \"#utility.yul\":15167:15641   */\n      swap3\n      pop\n      swap3\n      swap1\n      pop\n      jump\t// out\n        /* \"#utility.yul\":15647:16736   */\n    tag_59:\n        /* \"#utility.yul\":15751:15757   */\n      0x00\n        /* \"#utility.yul\":15759:15765   */\n      dup1\n        /* \"#utility.yul\":15767:15773   */\n      0x00\n        /* \"#utility.yul\":15775:15781   */\n      dup1\n        /* \"#utility.yul\":15783:15789   */\n      0x00\n        /* \"#utility.yul\":15832:15835   */\n      0xa0\n        /* \"#utility.yul\":15820:15829   */\n      dup7\n        /* \"#utility.yul\":15811:15818   */\n      dup9\n        /* \"#utility.yul\":15807:15830   */\n      sub\n        /* \"#utility.yul\":15803:15836   */\n      slt\n        /* \"#utility.yul\":15800:15920   */\n      iszero\n      tag_452\n      jumpi\n        /* \"#utility.yul\":15839:15918   */\n      tag_453\n      tag_225\n      jump\t// in\n    tag_453:\n        /* \"#utility.yul\":15800:15920   */\n    tag_452:\n        /* \"#utility.yul\":15959:15960   */\n      0x00\n        /* \"#utility.yul\":15984:16037   */\n      tag_454\n        /* \"#utility.yul\":16029:16036   */\n      dup9\n        /* \"#utility.yul\":16020:16026   */\n      dup3\n        /* \"#utility.yul\":16009:16018   */\n      dup10\n        /* \"#utility.yul\":16005:16027   */\n      add\n        /* \"#utility.yul\":15984:16037   */\n      tag_230\n      jump\t// in\n    tag_454:\n        /* \"#utility.yul\":15974:16037   */\n      swap6\n      pop\n        /* \"#utility.yul\":15930:16047   */\n      pop\n        /* \"#utility.yul\":16086:16088   */\n      0x20\n        /* \"#utility.yul\":16112:16165   */\n      tag_455\n        /* \"#utility.yul\":16157:16164   */\n      dup9\n        /* \"#utility.yul\":16148:16154   */\n      dup3\n        /* \"#utility.yul\":16137:16146   */\n      dup10\n        /* \"#utility.yul\":16133:16155   */\n      add\n        /* \"#utility.yul\":16112:16165   */\n      tag_230\n      jump\t// in\n    tag_455:\n        /* \"#utility.yul\":16102:16165   */\n      swap5\n      pop\n        /* \"#utility.yul\":16057:16175   */\n      pop\n        /* \"#utility.yul\":16214:16216   */\n      0x40\n        /* \"#utility.yul\":16240:16293   */\n      tag_456\n        /* \"#utility.yul\":16285:16292   */\n      dup9\n        /* \"#utility.yul\":16276:16282   */\n      dup3\n        /* \"#utility.yul\":16265:16274   */\n      dup10\n        /* \"#utility.yul\":16261:16283   */\n      add\n        /* \"#utility.yul\":16240:16293   */\n      tag_233\n      jump\t// in\n    tag_456:\n        /* \"#utility.yul\":16230:16293   */\n      swap4\n      pop\n        /* \"#utility.yul\":16185:16303   */\n      pop\n        /* \"#utility.yul\":16342:16344   */\n      0x60\n        /* \"#utility.yul\":16368:16421   */\n      tag_457\n        /* \"#utility.yul\":16413:16420   */\n      dup9\n        /* \"#utility.yul\":16404:16410   */\n      dup3\n        /* \"#utility.yul\":16393:16402   */\n      dup10\n        /* \"#utility.yul\":16389:16411   */\n      add\n        /* \"#utility.yul\":16368:16421   */\n      tag_233\n      jump\t// in\n    tag_457:\n        /* \"#utility.yul\":16358:16421   */\n      swap3\n      pop\n        /* \"#utility.yul\":16313:16431   */\n      pop\n        /* \"#utility.yul\":16498:16501   */\n      0x80\n        /* \"#utility.yul\":16487:16496   */\n      dup7\n        /* \"#utility.yul\":16483:16502   */\n      add\n        /* \"#utility.yul\":16470:16503   */\n      calldataload\n        /* \"#utility.yul\":16530:16548   */\n      0xffffffffffffffff\n        /* \"#utility.yul\":16522:16528   */\n      dup2\n        /* \"#utility.yul\":16519:16549   */\n      gt\n        /* \"#utility.yul\":16516:16633   */\n      iszero\n      tag_458\n      jumpi\n        /* \"#utility.yul\":16552:16631   */\n      tag_459\n      tag_226\n      jump\t// in\n    tag_459:\n        /* \"#utility.yul\":16516:16633   */\n    tag_458:\n        /* \"#utility.yul\":16657:16719   */\n      tag_460\n        /* \"#utility.yul\":16711:16718   */\n      dup9\n        /* \"#utility.yul\":16702:16708   */\n      dup3\n        /* \"#utility.yul\":16691:16700   */\n      dup10\n        /* \"#utility.yul\":16687:16709   */\n      add\n        /* \"#utility.yul\":16657:16719   */\n      tag_256\n      jump\t// in\n    tag_460:\n        /* \"#utility.yul\":16647:16719   */\n      swap2\n      pop\n        /* \"#utility.yul\":16441:16729   */\n      pop\n        /* \"#utility.yul\":15647:16736   */\n      swap3\n      swap6\n      pop\n      swap3\n      swap6\n      swap1\n      swap4\n      pop\n      jump\t// out\n        /* \"#utility.yul\":16742:16922   */\n    tag_269:\n        /* \"#utility.yul\":16790:16867   */\n      0x4e487b7100000000000000000000000000000000000000000000000000000000\n        /* \"#utility.yul\":16787:16788   */\n      0x00\n        /* \"#utility.yul\":16780:16868   */\n      mstore\n        /* \"#utility.yul\":16887:16891   */\n      0x22\n        /* \"#utility.yul\":16884:16885   */\n      0x04\n        /* \"#utility.yul\":16877:16892   */\n      mstore\n        /* \"#utility.yul\":16911:16915   */\n      0x24\n        /* \"#utility.yul\":16908:16909   */\n      0x00\n        /* \"#utility.yul\":16901:16916   */\n      revert\n        /* \"#utility.yul\":16928:17248   */\n    tag_68:\n        /* \"#utility.yul\":16972:16978   */\n      0x00\n        /* \"#utility.yul\":17009:17010   */\n      0x02\n        /* \"#utility.yul\":17003:17007   */\n      dup3\n        /* \"#utility.yul\":16999:17011   */\n      div\n        /* \"#utility.yul\":16989:17011   */\n      swap1\n      pop\n        /* \"#utility.yul\":17056:17057   */\n      0x01\n        /* \"#utility.yul\":17050:17054   */\n      dup3\n        /* \"#utility.yul\":17046:17058   */\n      and\n        /* \"#utility.yul\":17077:17095   */\n      dup1\n        /* \"#utility.yul\":17067:17148   */\n      tag_463\n      jumpi\n        /* \"#utility.yul\":17133:17137   */\n      0x7f\n        /* \"#utility.yul\":17125:17131   */\n      dup3\n        /* \"#utility.yul\":17121:17138   */\n      and\n        /* \"#utility.yul\":17111:17138   */\n      swap2\n      pop\n        /* \"#utility.yul\":17067:17148   */\n    tag_463:\n        /* \"#utility.yul\":17195:17197   */\n      0x20\n        /* \"#utility.yul\":17187:17193   */\n      dup3\n        /* \"#utility.yul\":17184:17198   */\n      lt\n        /* \"#utility.yul\":17164:17182   */\n      dup2\n        /* \"#utility.yul\":17161:17199   */\n      sub\n        /* \"#utility.yul\":17158:17242   */\n      tag_464\n      jumpi\n        /* \"#utility.yul\":17214:17232   */\n      tag_465\n      tag_269\n      jump\t// in\n    tag_465:\n        /* \"#utility.yul\":17158:17242   */\n    tag_464:\n        /* \"#utility.yul\":16979:17248   */\n      pop\n        /* \"#utility.yul\":16928:17248   */\n      swap2\n      swap1\n      pop\n      jump\t// out\n        /* \"#utility.yul\":17254:17372   */\n    tag_270:\n        /* \"#utility.yul\":17341:17365   */\n      tag_467\n        /* \"#utility.yul\":17359:17364   */\n      dup2\n        /* \"#utility.yul\":17341:17365   */\n      tag_228\n      jump\t// in\n    tag_467:\n        /* \"#utility.yul\":17336:17339   */\n      dup3\n        /* \"#utility.yul\":17329:17366   */\n      mstore\n        /* \"#utility.yul\":17254:17372   */\n      pop\n      pop\n      jump\t// out\n        /* \"#utility.yul\":17378:17710   */\n    tag_86:\n        /* \"#utility.yul\":17499:17503   */\n      0x00\n        /* \"#utility.yul\":17537:17539   */\n      0x40\n        /* \"#utility.yul\":17526:17535   */\n      dup3\n        /* \"#utility.yul\":17522:17540   */\n      add\n        /* \"#utility.yul\":17514:17540   */\n      swap1\n      pop\n        /* \"#utility.yul\":17550:17621   */\n      tag_469\n        /* \"#utility.yul\":17618:17619   */\n      0x00\n        /* \"#utility.yul\":17607:17616   */\n      dup4\n        /* \"#utility.yul\":17603:17620   */\n      add\n        /* \"#utility.yul\":17594:17600   */\n      dup6\n        /* \"#utility.yul\":17550:17621   */\n      tag_270\n      jump\t// in\n    tag_469:\n        /* \"#utility.yul\":17631:17703   */\n      tag_470\n        /* \"#utility.yul\":17699:17701   */\n      0x20\n        /* \"#utility.yul\":17688:17697   */\n      dup4\n        /* \"#utility.yul\":17684:17702   */\n      add\n        /* \"#utility.yul\":17675:17681   */\n      dup5\n        /* \"#utility.yul\":17631:17703   */\n      tag_270\n      jump\t// in\n    tag_470:\n        /* \"#utility.yul\":17378:17710   */\n      swap4\n      swap3\n      pop\n      pop\n      pop\n      jump\t// out\n        /* \"#utility.yul\":17716:18048   */\n    tag_92:\n        /* \"#utility.yul\":17837:17841   */\n      0x00\n        /* \"#utility.yul\":17875:17877   */\n      0x40\n        /* \"#utility.yul\":17864:17873   */\n      dup3\n        /* \"#utility.yul\":17860:17878   */\n      add\n        /* \"#utility.yul\":17852:17878   */\n      swap1\n      pop\n        /* \"#utility.yul\":17888:17959   */\n      tag_472\n        /* \"#utility.yul\":17956:17957   */\n      0x00\n        /* \"#utility.yul\":17945:17954   */\n      dup4\n        /* \"#utility.yul\":17941:17958   */\n      add\n        /* \"#utility.yul\":17932:17938   */\n      dup6\n        /* \"#utility.yul\":17888:17959   */\n      tag_234\n      jump\t// in\n    tag_472:\n        /* \"#utility.yul\":17969:18041   */\n      tag_473\n        /* \"#utility.yul\":18037:18039   */\n      0x20\n        /* \"#utility.yul\":18026:18035   */\n      dup4\n        /* \"#utility.yul\":18022:18040   */\n      add\n        /* \"#utility.yul\":18013:18019   */\n      dup5\n        /* \"#utility.yul\":17969:18041   */\n      tag_234\n      jump\t// in\n    tag_473:\n        /* \"#utility.yul\":17716:18048   */\n      swap4\n      swap3\n      pop\n      pop\n      pop\n      jump\t// out\n        /* \"#utility.yul\":18054:18234   */\n    tag_107:\n        /* \"#utility.yul\":18102:18179   */\n      0x4e487b7100000000000000000000000000000000000000000000000000000000\n        /* \"#utility.yul\":18099:18100   */\n      0x00\n        /* \"#utility.yul\":18092:18180   */\n      mstore\n        /* \"#utility.yul\":18199:18203   */\n      0x32\n        /* \"#utility.yul\":18196:18197   */\n      0x04\n        /* \"#utility.yul\":18189:18204   */\n      mstore\n        /* \"#utility.yul\":18223:18227   */\n      0x24\n        /* \"#utility.yul\":18220:18221   */\n      0x00\n        /* \"#utility.yul\":18213:18228   */\n      revert\n        /* \"#utility.yul\":18240:18462   */\n    tag_131:\n        /* \"#utility.yul\":18333:18337   */\n      0x00\n        /* \"#utility.yul\":18371:18373   */\n      0x20\n        /* \"#utility.yul\":18360:18369   */\n      dup3\n        /* \"#utility.yul\":18356:18374   */\n      add\n        /* \"#utility.yul\":18348:18374   */\n      swap1\n      pop\n        /* \"#utility.yul\":18384:18455   */\n      tag_476\n        /* \"#utility.yul\":18452:18453   */\n      0x00\n        /* \"#utility.yul\":18441:18450   */\n      dup4\n        /* \"#utility.yul\":18437:18454   */\n      add\n        /* \"#utility.yul\":18428:18434   */\n      dup5\n        /* \"#utility.yul\":18384:18455   */\n      tag_270\n      jump\t// in\n    tag_476:\n        /* \"#utility.yul\":18240:18462   */\n      swap3\n      swap2\n      pop\n      pop\n      jump\t// out\n        /* \"#utility.yul\":18468:19021   */\n    tag_176:\n        /* \"#utility.yul\":18645:18649   */\n      0x00\n        /* \"#utility.yul\":18683:18686   */\n      0x80\n        /* \"#utility.yul\":18672:18681   */\n      dup3\n        /* \"#utility.yul\":18668:18687   */\n      add\n        /* \"#utility.yul\":18660:18687   */\n      swap1\n      pop\n        /* \"#utility.yul\":18697:18768   */\n      tag_478\n        /* \"#utility.yul\":18765:18766   */\n      0x00\n        /* \"#utility.yul\":18754:18763   */\n      dup4\n        /* \"#utility.yul\":18750:18767   */\n      add\n        /* \"#utility.yul\":18741:18747   */\n      dup8\n        /* \"#utility.yul\":18697:18768   */\n      tag_270\n      jump\t// in\n    tag_478:\n        /* \"#utility.yul\":18778:18850   */\n      tag_479\n        /* \"#utility.yul\":18846:18848   */\n      0x20\n        /* \"#utility.yul\":18835:18844   */\n      dup4\n        /* \"#utility.yul\":18831:18849   */\n      add\n        /* \"#utility.yul\":18822:18828   */\n      dup7\n        /* \"#utility.yul\":18778:18850   */\n      tag_234\n      jump\t// in\n    tag_479:\n        /* \"#utility.yul\":18860:18932   */\n      tag_480\n        /* \"#utility.yul\":18928:18930   */\n      0x40\n        /* \"#utility.yul\":18917:18926   */\n      dup4\n        /* \"#utility.yul\":18913:18931   */\n      add\n        /* \"#utility.yul\":18904:18910   */\n      dup6\n        /* \"#utility.yul\":18860:18932   */\n      tag_234\n      jump\t// in\n    tag_480:\n        /* \"#utility.yul\":18942:19014   */\n      tag_481\n        /* \"#utility.yul\":19010:19012   */\n      0x60\n        /* \"#utility.yul\":18999:19008   */\n      dup4\n        /* \"#utility.yul\":18995:19013   */\n      add\n        /* \"#utility.yul\":18986:18992   */\n      dup5\n        /* \"#utility.yul\":18942:19014   */\n      tag_234\n      jump\t// in\n    tag_481:\n        /* \"#utility.yul\":18468:19021   */\n      swap6\n      swap5\n      pop\n      pop\n      pop\n      pop\n      pop\n      jump\t// out\n        /* \"#utility.yul\":19027:19207   */\n    tag_271:\n        /* \"#utility.yul\":19075:19152   */\n      0x4e487b7100000000000000000000000000000000000000000000000000000000\n        /* \"#utility.yul\":19072:19073   */\n      0x00\n        /* \"#utility.yul\":19065:19153   */\n      mstore\n        /* \"#utility.yul\":19172:19176   */\n      0x11\n        /* \"#utility.yul\":19169:19170   */\n      0x04\n        /* \"#utility.yul\":19162:19177   */\n      mstore\n        /* \"#utility.yul\":19196:19200   */\n      0x24\n        /* \"#utility.yul\":19193:19194   */\n      0x00\n        /* \"#utility.yul\":19186:19201   */\n      revert\n        /* \"#utility.yul\":19213:19404   */\n    tag_179:\n        /* \"#utility.yul\":19253:19256   */\n      0x00\n        /* \"#utility.yul\":19272:19292   */\n      tag_484\n        /* \"#utility.yul\":19290:19291   */\n      dup3\n        /* \"#utility.yul\":19272:19292   */\n      tag_231\n      jump\t// in\n    tag_484:\n        /* \"#utility.yul\":19267:19292   */\n      swap2\n      pop\n        /* \"#utility.yul\":19306:19326   */\n      tag_485\n        /* \"#utility.yul\":19324:19325   */\n      dup4\n        /* \"#utility.yul\":19306:19326   */\n      tag_231\n      jump\t// in\n    tag_485:\n        /* \"#utility.yul\":19301:19326   */\n      swap3\n      pop\n        /* \"#utility.yul\":19349:19350   */\n      dup3\n        /* \"#utility.yul\":19346:19347   */\n      dup3\n        /* \"#utility.yul\":19342:19351   */\n      add\n        /* \"#utility.yul\":19335:19351   */\n      swap1\n      pop\n        /* \"#utility.yul\":19370:19373   */\n      dup1\n        /* \"#utility.yul\":19367:19368   */\n      dup3\n        /* \"#utility.yul\":19364:19374   */\n      gt\n        /* \"#utility.yul\":19361:19397   */\n      iszero\n      tag_486\n      jumpi\n        /* \"#utility.yul\":19377:19395   */\n      tag_487\n      tag_271\n      jump\t// in\n    tag_487:\n        /* \"#utility.yul\":19361:19397   */\n    tag_486:\n        /* \"#utility.yul\":19213:19404   */\n      swap3\n      swap2\n      pop\n      pop\n      jump\t// out\n        /* \"#utility.yul\":19410:20044   */\n    tag_186:\n        /* \"#utility.yul\":19631:19635   */\n      0x00\n        /* \"#utility.yul\":19669:19671   */\n      0x40\n        /* \"#utility.yul\":19658:19667   */\n      dup3\n        /* \"#utility.yul\":19654:19672   */\n      add\n        /* \"#utility.yul\":19646:19672   */\n      swap1\n      pop\n        /* \"#utility.yul\":19718:19727   */\n      dup2\n        /* \"#utility.yul\":19712:19716   */\n      dup2\n        /* \"#utility.yul\":19708:19728   */\n      sub\n        /* \"#utility.yul\":19704:19705   */\n      0x00\n        /* \"#utility.yul\":19693:19702   */\n      dup4\n        /* \"#utility.yul\":19689:19706   */\n      add\n        /* \"#utility.yul\":19682:19729   */\n      mstore\n        /* \"#utility.yul\":19746:19854   */\n      tag_489\n        /* \"#utility.yul\":19849:19853   */\n      dup2\n        /* \"#utility.yul\":19840:19846   */\n      dup6\n        /* \"#utility.yul\":19746:19854   */\n      tag_266\n      jump\t// in\n    tag_489:\n        /* \"#utility.yul\":19738:19854   */\n      swap1\n      pop\n        /* \"#utility.yul\":19901:19910   */\n      dup2\n        /* \"#utility.yul\":19895:19899   */\n      dup2\n        /* \"#utility.yul\":19891:19911   */\n      sub\n        /* \"#utility.yul\":19886:19888   */\n      0x20\n        /* \"#utility.yul\":19875:19884   */\n      dup4\n        /* \"#utility.yul\":19871:19889   */\n      add\n        /* \"#utility.yul\":19864:19912   */\n      mstore\n        /* \"#utility.yul\":19929:20037   */\n      tag_490\n        /* \"#utility.yul\":20032:20036   */\n      dup2\n        /* \"#utility.yul\":20023:20029   */\n      dup5\n        /* \"#utility.yul\":19929:20037   */\n      tag_266\n      jump\t// in\n    tag_490:\n        /* \"#utility.yul\":19921:20037   */\n      swap1\n      pop\n        /* \"#utility.yul\":19410:20044   */\n      swap4\n      swap3\n      pop\n      pop\n      pop\n      jump\t// out\n        /* \"#utility.yul\":20050:20148   */\n    tag_272:\n        /* \"#utility.yul\":20101:20107   */\n      0x00\n        /* \"#utility.yul\":20135:20140   */\n      dup2\n        /* \"#utility.yul\":20129:20141   */\n      mload\n        /* \"#utility.yul\":20119:20141   */\n      swap1\n      pop\n        /* \"#utility.yul\":20050:20148   */\n      swap2\n      swap1\n      pop\n      jump\t// out\n        /* \"#utility.yul\":20154:20322   */\n    tag_273:\n        /* \"#utility.yul\":20237:20248   */\n      0x00\n        /* \"#utility.yul\":20271:20277   */\n      dup3\n        /* \"#utility.yul\":20266:20269   */\n      dup3\n        /* \"#utility.yul\":20259:20278   */\n      mstore\n        /* \"#utility.yul\":20311:20315   */\n      0x20\n        /* \"#utility.yul\":20306:20309   */\n      dup3\n        /* \"#utility.yul\":20302:20316   */\n      add\n        /* \"#utility.yul\":20287:20316   */\n      swap1\n      pop\n        /* \"#utility.yul\":20154:20322   */\n      swap3\n      swap2\n      pop\n      pop\n      jump\t// out\n        /* \"#utility.yul\":20328:20701   */\n    tag_274:\n        /* \"#utility.yul\":20414:20417   */\n      0x00\n        /* \"#utility.yul\":20442:20480   */\n      tag_494\n        /* \"#utility.yul\":20474:20479   */\n      dup3\n        /* \"#utility.yul\":20442:20480   */\n      tag_272\n      jump\t// in\n    tag_494:\n        /* \"#utility.yul\":20496:20566   */\n      tag_495\n        /* \"#utility.yul\":20559:20565   */\n      dup2\n        /* \"#utility.yul\":20554:20557   */\n      dup6\n        /* \"#utility.yul\":20496:20566   */\n      tag_273\n      jump\t// in\n    tag_495:\n        /* \"#utility.yul\":20489:20566   */\n      swap4\n      pop\n        /* \"#utility.yul\":20575:20640   */\n      tag_496\n        /* \"#utility.yul\":20633:20639   */\n      dup2\n        /* \"#utility.yul\":20628:20631   */\n      dup6\n        /* \"#utility.yul\":20621:20625   */\n      0x20\n        /* \"#utility.yul\":20614:20619   */\n      dup7\n        /* \"#utility.yul\":20610:20626   */\n      add\n        /* \"#utility.yul\":20575:20640   */\n      tag_242\n      jump\t// in\n    tag_496:\n        /* \"#utility.yul\":20665:20694   */\n      tag_497\n        /* \"#utility.yul\":20687:20693   */\n      dup2\n        /* \"#utility.yul\":20665:20694   */\n      tag_243\n      jump\t// in\n    tag_497:\n        /* \"#utility.yul\":20660:20663   */\n      dup5\n        /* \"#utility.yul\":20656:20695   */\n      add\n        /* \"#utility.yul\":20649:20695   */\n      swap2\n      pop\n        /* \"#utility.yul\":20418:20701   */\n      pop\n        /* \"#utility.yul\":20328:20701   */\n      swap3\n      swap2\n      pop\n      pop\n      jump\t// out\n        /* \"#utility.yul\":20707:21458   */\n    tag_190:\n        /* \"#utility.yul\":20930:20934   */\n      0x00\n        /* \"#utility.yul\":20968:20971   */\n      0xa0\n        /* \"#utility.yul\":20957:20966   */\n      dup3\n        /* \"#utility.yul\":20953:20972   */\n      add\n        /* \"#utility.yul\":20945:20972   */\n      swap1\n      pop\n        /* \"#utility.yul\":20982:21053   */\n      tag_499\n        /* \"#utility.yul\":21050:21051   */\n      0x00\n        /* \"#utility.yul\":21039:21048   */\n      dup4\n        /* \"#utility.yul\":21035:21052   */\n      add\n        /* \"#utility.yul\":21026:21032   */\n      dup9\n        /* \"#utility.yul\":20982:21053   */\n      tag_270\n      jump\t// in\n    tag_499:\n        /* \"#utility.yul\":21063:21135   */\n      tag_500\n        /* \"#utility.yul\":21131:21133   */\n      0x20\n        /* \"#utility.yul\":21120:21129   */\n      dup4\n        /* \"#utility.yul\":21116:21134   */\n      add\n        /* \"#utility.yul\":21107:21113   */\n      dup8\n        /* \"#utility.yul\":21063:21135   */\n      tag_270\n      jump\t// in\n    tag_500:\n        /* \"#utility.yul\":21145:21217   */\n      tag_501\n        /* \"#utility.yul\":21213:21215   */\n      0x40\n        /* \"#utility.yul\":21202:21211   */\n      dup4\n        /* \"#utility.yul\":21198:21216   */\n      add\n        /* \"#utility.yul\":21189:21195   */\n      dup7\n        /* \"#utility.yul\":21145:21217   */\n      tag_234\n      jump\t// in\n    tag_501:\n        /* \"#utility.yul\":21227:21299   */\n      tag_502\n        /* \"#utility.yul\":21295:21297   */\n      0x60\n        /* \"#utility.yul\":21284:21293   */\n      dup4\n        /* \"#utility.yul\":21280:21298   */\n      add\n        /* \"#utility.yul\":21271:21277   */\n      dup6\n        /* \"#utility.yul\":21227:21299   */\n      tag_234\n      jump\t// in\n    tag_502:\n        /* \"#utility.yul\":21347:21356   */\n      dup2\n        /* \"#utility.yul\":21341:21345   */\n      dup2\n        /* \"#utility.yul\":21337:21357   */\n      sub\n        /* \"#utility.yul\":21331:21334   */\n      0x80\n        /* \"#utility.yul\":21320:21329   */\n      dup4\n        /* \"#utility.yul\":21316:21335   */\n      add\n        /* \"#utility.yul\":21309:21358   */\n      mstore\n        /* \"#utility.yul\":21375:21451   */\n      tag_503\n        /* \"#utility.yul\":21446:21450   */\n      dup2\n        /* \"#utility.yul\":21437:21443   */\n      dup5\n        /* \"#utility.yul\":21375:21451   */\n      tag_274\n      jump\t// in\n    tag_503:\n        /* \"#utility.yul\":21367:21451   */\n      swap1\n      pop\n        /* \"#utility.yul\":20707:21458   */\n      swap7\n      swap6\n      pop\n      pop\n      pop\n      pop\n      pop\n      pop\n      jump\t// out\n        /* \"#utility.yul\":21464:21605   */\n    tag_275:\n        /* \"#utility.yul\":21520:21525   */\n      0x00\n        /* \"#utility.yul\":21551:21557   */\n      dup2\n        /* \"#utility.yul\":21545:21558   */\n      mload\n        /* \"#utility.yul\":21536:21558   */\n      swap1\n      pop\n        /* \"#utility.yul\":21567:21599   */\n      tag_505\n        /* \"#utility.yul\":21593:21598   */\n      dup2\n        /* \"#utility.yul\":21567:21599   */\n      tag_236\n      jump\t// in\n    tag_505:\n        /* \"#utility.yul\":21464:21605   */\n      swap3\n      swap2\n      pop\n      pop\n      jump\t// out\n        /* \"#utility.yul\":21611:21960   */\n    tag_193:\n        /* \"#utility.yul\":21680:21686   */\n      0x00\n        /* \"#utility.yul\":21729:21731   */\n      0x20\n        /* \"#utility.yul\":21717:21726   */\n      dup3\n        /* \"#utility.yul\":21708:21715   */\n      dup5\n        /* \"#utility.yul\":21704:21727   */\n      sub\n        /* \"#utility.yul\":21700:21732   */\n      slt\n        /* \"#utility.yul\":21697:21816   */\n      iszero\n      tag_507\n      jumpi\n        /* \"#utility.yul\":21735:21814   */\n      tag_508\n      tag_225\n      jump\t// in\n    tag_508:\n        /* \"#utility.yul\":21697:21816   */\n    tag_507:\n        /* \"#utility.yul\":21855:21856   */\n      0x00\n        /* \"#utility.yul\":21880:21943   */\n      tag_509\n        /* \"#utility.yul\":21935:21942   */\n      dup5\n        /* \"#utility.yul\":21926:21932   */\n      dup3\n        /* \"#utility.yul\":21915:21924   */\n      dup6\n        /* \"#utility.yul\":21911:21933   */\n      add\n        /* \"#utility.yul\":21880:21943   */\n      tag_275\n      jump\t// in\n    tag_509:\n        /* \"#utility.yul\":21870:21943   */\n      swap2\n      pop\n        /* \"#utility.yul\":21826:21953   */\n      pop\n        /* \"#utility.yul\":21611:21960   */\n      swap3\n      swap2\n      pop\n      pop\n      jump\t// out\n        /* \"#utility.yul\":21966:23019   */\n    tag_209:\n        /* \"#utility.yul\":22289:22293   */\n      0x00\n        /* \"#utility.yul\":22327:22330   */\n      0xa0\n        /* \"#utility.yul\":22316:22325   */\n      dup3\n        /* \"#utility.yul\":22312:22331   */\n      add\n        /* \"#utility.yul\":22304:22331   */\n      swap1\n      pop\n        /* \"#utility.yul\":22341:22412   */\n      tag_511\n        /* \"#utility.yul\":22409:22410   */\n      0x00\n        /* \"#utility.yul\":22398:22407   */\n      dup4\n        /* \"#utility.yul\":22394:22411   */\n      add\n        /* \"#utility.yul\":22385:22391   */\n      dup9\n        /* \"#utility.yul\":22341:22412   */\n      tag_270\n      jump\t// in\n    tag_511:\n        /* \"#utility.yul\":22422:22494   */\n      tag_512\n        /* \"#utility.yul\":22490:22492   */\n      0x20\n        /* \"#utility.yul\":22479:22488   */\n      dup4\n        /* \"#utility.yul\":22475:22493   */\n      add\n        /* \"#utility.yul\":22466:22472   */\n      dup8\n        /* \"#utility.yul\":22422:22494   */\n      tag_270\n      jump\t// in\n    tag_512:\n        /* \"#utility.yul\":22541:22550   */\n      dup2\n        /* \"#utility.yul\":22535:22539   */\n      dup2\n        /* \"#utility.yul\":22531:22551   */\n      sub\n        /* \"#utility.yul\":22526:22528   */\n      0x40\n        /* \"#utility.yul\":22515:22524   */\n      dup4\n        /* \"#utility.yul\":22511:22529   */\n      add\n        /* \"#utility.yul\":22504:22552   */\n      mstore\n        /* \"#utility.yul\":22569:22677   */\n      tag_513\n        /* \"#utility.yul\":22672:22676   */\n      dup2\n        /* \"#utility.yul\":22663:22669   */\n      dup7\n        /* \"#utility.yul\":22569:22677   */\n      tag_266\n      jump\t// in\n    tag_513:\n        /* \"#utility.yul\":22561:22677   */\n      swap1\n      pop\n        /* \"#utility.yul\":22724:22733   */\n      dup2\n        /* \"#utility.yul\":22718:22722   */\n      dup2\n        /* \"#utility.yul\":22714:22734   */\n      sub\n        /* \"#utility.yul\":22709:22711   */\n      0x60\n        /* \"#utility.yul\":22698:22707   */\n      dup4\n        /* \"#utility.yul\":22694:22712   */\n      add\n        /* \"#utility.yul\":22687:22735   */\n      mstore\n        /* \"#utility.yul\":22752:22860   */\n      tag_514\n        /* \"#utility.yul\":22855:22859   */\n      dup2\n        /* \"#utility.yul\":22846:22852   */\n      dup6\n        /* \"#utility.yul\":22752:22860   */\n      tag_266\n      jump\t// in\n    tag_514:\n        /* \"#utility.yul\":22744:22860   */\n      swap1\n      pop\n        /* \"#utility.yul\":22908:22917   */\n      dup2\n        /* \"#utility.yul\":22902:22906   */\n      dup2\n        /* \"#utility.yul\":22898:22918   */\n      sub\n        /* \"#utility.yul\":22892:22895   */\n      0x80\n        /* \"#utility.yul\":22881:22890   */\n      dup4\n        /* \"#utility.yul\":22877:22896   */\n      add\n        /* \"#utility.yul\":22870:22919   */\n      mstore\n        /* \"#utility.yul\":22936:23012   */\n      tag_515\n        /* \"#utility.yul\":23007:23011   */\n      dup2\n        /* \"#utility.yul\":22998:23004   */\n      dup5\n        /* \"#utility.yul\":22936:23012   */\n      tag_274\n      jump\t// in\n    tag_515:\n        /* \"#utility.yul\":22928:23012   */\n      swap1\n      pop\n        /* \"#utility.yul\":21966:23019   */\n      swap7\n      swap6\n      pop\n      pop\n      pop\n      pop\n      pop\n      pop\n      jump\t// out\n\n    auxdata: 0xa26469706673582212200b32dbf60405ba2ea8ebe404757c765f6565a7e845a565dd88288dc03a8ce75364736f6c63430008170033\n}\n",
				"bytecode": {
					"linkReferences": {},
					"object": "608060405234801562000010575f80fd5b506040516200260138038062002601833981810160405281019062000036919062000270565b60405180602001604052805f81525062000056816200009e60201b60201c565b5083600390816200006891906200056a565b5082600490816200007a91906200056a565b5081600590816200008c91906200056a565b5080600681905550505050506200064e565b8060029081620000af91906200056a565b5050565b5f604051905090565b5f80fd5b5f80fd5b5f80fd5b5f80fd5b5f601f19601f8301169050919050565b7f4e487b71000000000000000000000000000000000000000000000000000000005f52604160045260245ffd5b6200011482620000cc565b810181811067ffffffffffffffff82111715620001365762000135620000dc565b5b80604052505050565b5f6200014a620000b3565b905062000158828262000109565b919050565b5f67ffffffffffffffff8211156200017a5762000179620000dc565b5b6200018582620000cc565b9050602081019050919050565b5f5b83811015620001b157808201518184015260208101905062000194565b5f8484015250505050565b5f620001d2620001cc846200015d565b6200013f565b905082815260208101848484011115620001f157620001f0620000c8565b5b620001fe84828562000192565b509392505050565b5f82601f8301126200021d576200021c620000c4565b5b81516200022f848260208601620001bc565b91505092915050565b5f819050919050565b6200024c8162000238565b811462000257575f80fd5b50565b5f815190506200026a8162000241565b92915050565b5f805f80608085870312156200028b576200028a620000bc565b5b5f85015167ffffffffffffffff811115620002ab57620002aa620000c0565b5b620002b98782880162000206565b945050602085015167ffffffffffffffff811115620002dd57620002dc620000c0565b5b620002eb8782880162000206565b935050604085015167ffffffffffffffff8111156200030f576200030e620000c0565b5b6200031d8782880162000206565b925050606062000330878288016200025a565b91505092959194509250565b5f81519050919050565b7f4e487b71000000000000000000000000000000000000000000000000000000005f52602260045260245ffd5b5f60028204905060018216806200038b57607f821691505b602082108103620003a157620003a062000346565b5b50919050565b5f819050815f5260205f209050919050565b5f6020601f8301049050919050565b5f82821b905092915050565b5f60088302620004057fffffffffffffffffffffffffffffffffffffffffffffffffffffffffffffffff82620003c8565b620004118683620003c8565b95508019841693508086168417925050509392505050565b5f819050919050565b5f620004526200044c620004468462000238565b62000429565b62000238565b9050919050565b5f819050919050565b6200046d8362000432565b620004856200047c8262000459565b848454620003d4565b825550505050565b5f90565b6200049b6200048d565b620004a881848462000462565b505050565b5b81811015620004cf57620004c35f8262000491565b600181019050620004ae565b5050565b601f8211156200051e57620004e881620003a7565b620004f384620003b9565b8101602085101562000503578190505b6200051b6200051285620003b9565b830182620004ad565b50505b505050565b5f82821c905092915050565b5f620005405f198460080262000523565b1980831691505092915050565b5f6200055a83836200052f565b9150826002028217905092915050565b62000575826200033c565b67ffffffffffffffff811115620005915762000590620000dc565b5b6200059d825462000373565b620005aa828285620004d3565b5f60209050601f831160018114620005e0575f8415620005cb578287015190505b620005d785826200054d565b86555062000646565b601f198416620005f086620003a7565b5f5b828110156200061957848901518255600182019150602085019450602081019050620005f2565b8683101562000639578489015162000635601f8916826200052f565b8355505b6001600288020188555050505b505050505050565b611fa5806200065c5f395ff3fe608060405234801561000f575f80fd5b506004361061009b575f3560e01c80634e1273f4116100645780634e1273f41461016957806395d89b4114610199578063a22cb465146101b7578063e985e9c5146101d3578063f242432a146102035761009b565b8062fdd58e1461009f57806301ffc9a7146100cf57806306fdde03146100ff5780630e89341c1461011d5780632eb2c2d61461014d575b5f80fd5b6100b960048036038101906100b49190611459565b61021f565b6040516100c691906114a6565b60405180910390f35b6100e960048036038101906100e49190611514565b610274565b6040516100f69190611559565b60405180910390f35b610107610355565b60405161011491906115fc565b60405180910390f35b6101376004803603810190610132919061161c565b6103e1565b60405161014491906115fc565b60405180910390f35b61016760048036038101906101629190611837565b610473565b005b610183600480360381019061017e91906119c2565b61051a565b6040516101909190611aef565b60405180910390f35b6101a1610621565b6040516101ae91906115fc565b60405180910390f35b6101d160048036038101906101cc9190611b39565b6106ad565b005b6101ed60048036038101906101e89190611b77565b6106c3565b6040516101fa9190611559565b60405180910390f35b61021d60048036038101906102189190611bb5565b610751565b005b5f805f8381526020019081526020015f205f8473ffffffffffffffffffffffffffffffffffffffff1673ffffffffffffffffffffffffffffffffffffffff1681526020019081526020015f2054905092915050565b5f7fd9b67a26000000000000000000000000000000000000000000000000000000007bffffffffffffffffffffffffffffffffffffffffffffffffffffffff1916827bffffffffffffffffffffffffffffffffffffffffffffffffffffffff1916148061033e57507f0e89341c000000000000000000000000000000000000000000000000000000007bffffffffffffffffffffffffffffffffffffffffffffffffffffffff1916827bffffffffffffffffffffffffffffffffffffffffffffffffffffffff1916145b8061034e575061034d826107f8565b5b9050919050565b6003805461036290611c75565b80601f016020809104026020016040519081016040528092919081815260200182805461038e90611c75565b80156103d95780601f106103b0576101008083540402835291602001916103d9565b820191905f5260205f20905b8154815290600101906020018083116103bc57829003601f168201915b505050505081565b6060600280546103f090611c75565b80601f016020809104026020016040519081016040528092919081815260200182805461041c90611c75565b80156104675780601f1061043e57610100808354040283529160200191610467565b820191905f5260205f20905b81548152906001019060200180831161044a57829003601f168201915b50505050509050919050565b5f61047c610861565b90508073ffffffffffffffffffffffffffffffffffffffff168673ffffffffffffffffffffffffffffffffffffffff16141580156104c157506104bf86826106c3565b155b156105055780866040517fe237d9220000000000000000000000000000000000000000000000000000000081526004016104fc929190611cb4565b60405180910390fd5b6105128686868686610868565b505050505050565b6060815183511461056657815183516040517f5b05999100000000000000000000000000000000000000000000000000000000815260040161055d929190611cdb565b60405180910390fd5b5f835167ffffffffffffffff8111156105825761058161164b565b5b6040519080825280602002602001820160405280156105b05781602001602082028036833780820191505090505b5090505f5b8451811015610616576105ec6105d4828761095c90919063ffffffff16565b6105e7838761096f90919063ffffffff16565b61021f565b8282815181106105ff576105fe611d02565b5b6020026020010181815250508060010190506105b5565b508091505092915050565b6004805461062e90611c75565b80601f016020809104026020016040519081016040528092919081815260200182805461065a90611c75565b80156106a55780601f1061067c576101008083540402835291602001916106a5565b820191905f5260205f20905b81548152906001019060200180831161068857829003601f168201915b505050505081565b6106bf6106b8610861565b8383610982565b5050565b5f60015f8473ffffffffffffffffffffffffffffffffffffffff1673ffffffffffffffffffffffffffffffffffffffff1681526020019081526020015f205f8373ffffffffffffffffffffffffffffffffffffffff1673ffffffffffffffffffffffffffffffffffffffff1681526020019081526020015f205f9054906101000a900460ff16905092915050565b5f61075a610861565b90508073ffffffffffffffffffffffffffffffffffffffff168673ffffffffffffffffffffffffffffffffffffffff161415801561079f575061079d86826106c3565b155b156107e35780866040517fe237d9220000000000000000000000000000000000000000000000000000000081526004016107da929190611cb4565b60405180910390fd5b6107f08686868686610aeb565b505050505050565b5f7f01ffc9a7000000000000000000000000000000000000000000000000000000007bffffffffffffffffffffffffffffffffffffffffffffffffffffffff1916827bffffffffffffffffffffffffffffffffffffffffffffffffffffffff1916149050919050565b5f33905090565b5f73ffffffffffffffffffffffffffffffffffffffff168473ffffffffffffffffffffffffffffffffffffffff16036108d8575f6040517f57f447ce0000000000000000000000000000000000000000000000000000000081526004016108cf9190611d2f565b60405180910390fd5b5f73ffffffffffffffffffffffffffffffffffffffff168573ffffffffffffffffffffffffffffffffffffffff1603610948575f6040517f01a8351400000000000000000000000000000000000000000000000000000000815260040161093f9190611d2f565b60405180910390fd5b6109558585858585610bf1565b5050505050565b5f60208202602084010151905092915050565b5f60208202602084010151905092915050565b5f73ffffffffffffffffffffffffffffffffffffffff168273ffffffffffffffffffffffffffffffffffffffff16036109f2575f6040517fced3e1000000000000000000000000000000000000000000000000000000000081526004016109e99190611d2f565b60405180910390fd5b8060015f8573ffffffffffffffffffffffffffffffffffffffff1673ffffffffffffffffffffffffffffffffffffffff1681526020019081526020015f205f8473ffffffffffffffffffffffffffffffffffffffff1673ffffffffffffffffffffffffffffffffffffffff1681526020019081526020015f205f6101000a81548160ff0219169083151502179055508173ffffffffffffffffffffffffffffffffffffffff168373ffffffffffffffffffffffffffffffffffffffff167f17307eab39ab6107e8899845ad3d59bd9653f200f220920489ca2b5937696c3183604051610ade9190611559565b60405180910390a3505050565b5f73ffffffffffffffffffffffffffffffffffffffff168473ffffffffffffffffffffffffffffffffffffffff1603610b5b575f6040517f57f447ce000000000000000000000000000000000000000000000000000000008152600401610b529190611d2f565b60405180910390fd5b5f73ffffffffffffffffffffffffffffffffffffffff168573ffffffffffffffffffffffffffffffffffffffff1603610bcb575f6040517f01a83514000000000000000000000000000000000000000000000000000000008152600401610bc29190611d2f565b60405180910390fd5b5f80610bd78585610c9d565b91509150610be88787848487610bf1565b50505050505050565b610bfd85858585610ccd565b5f73ffffffffffffffffffffffffffffffffffffffff168473ffffffffffffffffffffffffffffffffffffffff1614610c96575f610c39610861565b90506001845103610c85575f610c585f8661096f90919063ffffffff16565b90505f610c6e5f8661096f90919063ffffffff16565b9050610c7e83898985858961105d565b5050610c94565b610c9381878787878761120c565b5b505b5050505050565b60608060405191506001825283602083015260408201905060018152826020820152604081016040529250929050565b8051825114610d1757815181516040517f5b059991000000000000000000000000000000000000000000000000000000008152600401610d0e929190611cdb565b60405180910390fd5b5f610d20610861565b90505f5b8351811015610f1c575f610d41828661096f90919063ffffffff16565b90505f610d57838661096f90919063ffffffff16565b90505f73ffffffffffffffffffffffffffffffffffffffff168873ffffffffffffffffffffffffffffffffffffffff1614610e7a575f805f8481526020019081526020015f205f8a73ffffffffffffffffffffffffffffffffffffffff1673ffffffffffffffffffffffffffffffffffffffff1681526020019081526020015f2054905081811015610e2657888183856040517f03dee4c5000000000000000000000000000000000000000000000000000000008152600401610e1d9493929190611d48565b60405180910390fd5b8181035f808581526020019081526020015f205f8b73ffffffffffffffffffffffffffffffffffffffff1673ffffffffffffffffffffffffffffffffffffffff1681526020019081526020015f2081905550505b5f73ffffffffffffffffffffffffffffffffffffffff168773ffffffffffffffffffffffffffffffffffffffff1614610f0f57805f808481526020019081526020015f205f8973ffffffffffffffffffffffffffffffffffffffff1673ffffffffffffffffffffffffffffffffffffffff1681526020019081526020015f205f828254610f079190611db8565b925050819055505b5050806001019050610d24565b506001835103610fd7575f610f3a5f8561096f90919063ffffffff16565b90505f610f505f8561096f90919063ffffffff16565b90508573ffffffffffffffffffffffffffffffffffffffff168773ffffffffffffffffffffffffffffffffffffffff168473ffffffffffffffffffffffffffffffffffffffff167fc3d58168c5ae7397731d063d5bbf3d657854427343f4c083240f7aacaa2d0f628585604051610fc8929190611cdb565b60405180910390a45050611056565b8373ffffffffffffffffffffffffffffffffffffffff168573ffffffffffffffffffffffffffffffffffffffff168273ffffffffffffffffffffffffffffffffffffffff167f4a39dc06d4c0dbc64b70af90fd698a233a518aa5d07e595d983b8c0526c8f7fb868660405161104d929190611deb565b60405180910390a45b5050505050565b5f8473ffffffffffffffffffffffffffffffffffffffff163b1115611204578373ffffffffffffffffffffffffffffffffffffffff1663f23a6e6187878686866040518663ffffffff1660e01b81526004016110bd959493929190611e72565b6020604051808303815f875af19250505080156110f857506040513d601f19601f820116820180604052508101906110f59190611ede565b60015b611179573d805f8114611126576040519150601f19603f3d011682016040523d82523d5f602084013e61112b565b606091505b505f81510361117157846040517f57f447ce0000000000000000000000000000000000000000000000000000000081526004016111689190611d2f565b60405180910390fd5b805181602001fd5b63f23a6e6160e01b7bffffffffffffffffffffffffffffffffffffffffffffffffffffffff1916817bffffffffffffffffffffffffffffffffffffffffffffffffffffffff19161461120257846040517f57f447ce0000000000000000000000000000000000000000000000000000000081526004016111f99190611d2f565b60405180910390fd5b505b505050505050565b5f8473ffffffffffffffffffffffffffffffffffffffff163b11156113b3578373ffffffffffffffffffffffffffffffffffffffff1663bc197c8187878686866040518663ffffffff1660e01b815260040161126c959493929190611f09565b6020604051808303815f875af19250505080156112a757506040513d601f19601f820116820180604052508101906112a49190611ede565b60015b611328573d805f81146112d5576040519150601f19603f3d011682016040523d82523d5f602084013e6112da565b606091505b505f81510361132057846040517f57f447ce0000000000000000000000000000000000000000000000000000000081526004016113179190611d2f565b60405180910390fd5b805181602001fd5b63bc197c8160e01b7bffffffffffffffffffffffffffffffffffffffffffffffffffffffff1916817bffffffffffffffffffffffffffffffffffffffffffffffffffffffff1916146113b157846040517f57f447ce0000000000000000000000000000000000000000000000000000000081526004016113a89190611d2f565b60405180910390fd5b505b505050505050565b5f604051905090565b5f80fd5b5f80fd5b5f73ffffffffffffffffffffffffffffffffffffffff82169050919050565b5f6113f5826113cc565b9050919050565b611405816113eb565b811461140f575f80fd5b50565b5f81359050611420816113fc565b92915050565b5f819050919050565b61143881611426565b8114611442575f80fd5b50565b5f813590506114538161142f565b92915050565b5f806040838503121561146f5761146e6113c4565b5b5f61147c85828601611412565b925050602061148d85828601611445565b9150509250929050565b6114a081611426565b82525050565b5f6020820190506114b95f830184611497565b92915050565b5f7fffffffff0000000000000000000000000000000000000000000000000000000082169050919050565b6114f3816114bf565b81146114fd575f80fd5b50565b5f8135905061150e816114ea565b92915050565b5f60208284031215611529576115286113c4565b5b5f61153684828501611500565b91505092915050565b5f8115159050919050565b6115538161153f565b82525050565b5f60208201905061156c5f83018461154a565b92915050565b5f81519050919050565b5f82825260208201905092915050565b5f5b838110156115a957808201518184015260208101905061158e565b5f8484015250505050565b5f601f19601f8301169050919050565b5f6115ce82611572565b6115d8818561157c565b93506115e881856020860161158c565b6115f1816115b4565b840191505092915050565b5f6020820190508181035f83015261161481846115c4565b905092915050565b5f60208284031215611631576116306113c4565b5b5f61163e84828501611445565b91505092915050565b5f80fd5b7f4e487b71000000000000000000000000000000000000000000000000000000005f52604160045260245ffd5b611681826115b4565b810181811067ffffffffffffffff821117156116a05761169f61164b565b5b80604052505050565b5f6116b26113bb565b90506116be8282611678565b919050565b5f67ffffffffffffffff8211156116dd576116dc61164b565b5b602082029050602081019050919050565b5f80fd5b5f6117046116ff846116c3565b6116a9565b90508083825260208201905060208402830185811115611727576117266116ee565b5b835b81811015611750578061173c8882611445565b845260208401935050602081019050611729565b5050509392505050565b5f82601f83011261176e5761176d611647565b5b813561177e8482602086016116f2565b91505092915050565b5f80fd5b5f67ffffffffffffffff8211156117a5576117a461164b565b5b6117ae826115b4565b9050602081019050919050565b828183375f83830152505050565b5f6117db6117d68461178b565b6116a9565b9050828152602081018484840111156117f7576117f6611787565b5b6118028482856117bb565b509392505050565b5f82601f83011261181e5761181d611647565b5b813561182e8482602086016117c9565b91505092915050565b5f805f805f60a086880312156118505761184f6113c4565b5b5f61185d88828901611412565b955050602061186e88828901611412565b945050604086013567ffffffffffffffff81111561188f5761188e6113c8565b5b61189b8882890161175a565b935050606086013567ffffffffffffffff8111156118bc576118bb6113c8565b5b6118c88882890161175a565b925050608086013567ffffffffffffffff8111156118e9576118e86113c8565b5b6118f58882890161180a565b9150509295509295909350565b5f67ffffffffffffffff82111561191c5761191b61164b565b5b602082029050602081019050919050565b5f61193f61193a84611902565b6116a9565b90508083825260208201905060208402830185811115611962576119616116ee565b5b835b8181101561198b57806119778882611412565b845260208401935050602081019050611964565b5050509392505050565b5f82601f8301126119a9576119a8611647565b5b81356119b984826020860161192d565b91505092915050565b5f80604083850312156119d8576119d76113c4565b5b5f83013567ffffffffffffffff8111156119f5576119f46113c8565b5b611a0185828601611995565b925050602083013567ffffffffffffffff811115611a2257611a216113c8565b5b611a2e8582860161175a565b9150509250929050565b5f81519050919050565b5f82825260208201905092915050565b5f819050602082019050919050565b611a6a81611426565b82525050565b5f611a7b8383611a61565b60208301905092915050565b5f602082019050919050565b5f611a9d82611a38565b611aa78185611a42565b9350611ab283611a52565b805f5b83811015611ae2578151611ac98882611a70565b9750611ad483611a87565b925050600181019050611ab5565b5085935050505092915050565b5f6020820190508181035f830152611b078184611a93565b905092915050565b611b188161153f565b8114611b22575f80fd5b50565b5f81359050611b3381611b0f565b92915050565b5f8060408385031215611b4f57611b4e6113c4565b5b5f611b5c85828601611412565b9250506020611b6d85828601611b25565b9150509250929050565b5f8060408385031215611b8d57611b8c6113c4565b5b5f611b9a85828601611412565b9250506020611bab85828601611412565b9150509250929050565b5f805f805f60a08688031215611bce57611bcd6113c4565b5b5f611bdb88828901611412565b9550506020611bec88828901611412565b9450506040611bfd88828901611445565b9350506060611c0e88828901611445565b925050608086013567ffffffffffffffff811115611c2f57611c2e6113c8565b5b611c3b8882890161180a565b9150509295509295909350565b7f4e487b71000000000000000000000000000000000000000000000000000000005f52602260045260245ffd5b5f6002820490506001821680611c8c57607f821691505b602082108103611c9f57611c9e611c48565b5b50919050565b611cae816113eb565b82525050565b5f604082019050611cc75f830185611ca5565b611cd46020830184611ca5565b9392505050565b5f604082019050611cee5f830185611497565b611cfb6020830184611497565b9392505050565b7f4e487b71000000000000000000000000000000000000000000000000000000005f52603260045260245ffd5b5f602082019050611d425f830184611ca5565b92915050565b5f608082019050611d5b5f830187611ca5565b611d686020830186611497565b611d756040830185611497565b611d826060830184611497565b95945050505050565b7f4e487b71000000000000000000000000000000000000000000000000000000005f52601160045260245ffd5b5f611dc282611426565b9150611dcd83611426565b9250828201905080821115611de557611de4611d8b565b5b92915050565b5f6040820190508181035f830152611e038185611a93565b90508181036020830152611e178184611a93565b90509392505050565b5f81519050919050565b5f82825260208201905092915050565b5f611e4482611e20565b611e4e8185611e2a565b9350611e5e81856020860161158c565b611e67816115b4565b840191505092915050565b5f60a082019050611e855f830188611ca5565b611e926020830187611ca5565b611e9f6040830186611497565b611eac6060830185611497565b8181036080830152611ebe8184611e3a565b90509695505050505050565b5f81519050611ed8816114ea565b92915050565b5f60208284031215611ef357611ef26113c4565b5b5f611f0084828501611eca565b91505092915050565b5f60a082019050611f1c5f830188611ca5565b611f296020830187611ca5565b8181036040830152611f3b8186611a93565b90508181036060830152611f4f8185611a93565b90508181036080830152611f638184611e3a565b9050969550505050505056fea26469706673582212200b32dbf60405ba2ea8ebe404757c765f6565a7e845a565dd88288dc03a8ce75364736f6c63430008170033",
					"opcodes": "PUSH1 0x80 PUSH1 0x40 MSTORE CALLVALUE DUP1 ISZERO PUSH3 0x10 JUMPI PUSH0 DUP1 REVERT JUMPDEST POP PUSH1 0x40 MLOAD PUSH3 0x2601 CODESIZE SUB DUP1 PUSH3 0x2601 DUP4 CODECOPY DUP2 DUP2 ADD PUSH1 0x40 MSTORE DUP2 ADD SWAP1 PUSH3 0x36 SWAP2 SWAP1 PUSH3 0x270 JUMP JUMPDEST PUSH1 0x40 MLOAD DUP1 PUSH1 0x20 ADD PUSH1 0x40 MSTORE DUP1 PUSH0 DUP2 MSTORE POP PUSH3 0x56 DUP2 PUSH3 0x9E PUSH1 0x20 SHL PUSH1 0x20 SHR JUMP JUMPDEST POP DUP4 PUSH1 0x3 SWAP1 DUP2 PUSH3 0x68 SWAP2 SWAP1 PUSH3 0x56A JUMP JUMPDEST POP DUP3 PUSH1 0x4 SWAP1 DUP2 PUSH3 0x7A SWAP2 SWAP1 PUSH3 0x56A JUMP JUMPDEST POP DUP2 PUSH1 0x5 SWAP1 DUP2 PUSH3 0x8C SWAP2 SWAP1 PUSH3 0x56A JUMP JUMPDEST POP DUP1 PUSH1 0x6 DUP2 SWAP1 SSTORE POP POP POP POP POP PUSH3 0x64E JUMP JUMPDEST DUP1 PUSH1 0x2 SWAP1 DUP2 PUSH3 0xAF SWAP2 SWAP1 PUSH3 0x56A JUMP JUMPDEST POP POP JUMP JUMPDEST PUSH0 PUSH1 0x40 MLOAD SWAP1 POP SWAP1 JUMP JUMPDEST PUSH0 DUP1 REVERT JUMPDEST PUSH0 DUP1 REVERT JUMPDEST PUSH0 DUP1 REVERT JUMPDEST PUSH0 DUP1 REVERT JUMPDEST PUSH0 PUSH1 0x1F NOT PUSH1 0x1F DUP4 ADD AND SWAP1 POP SWAP2 SWAP1 POP JUMP JUMPDEST PUSH32 0x4E487B7100000000000000000000000000000000000000000000000000000000 PUSH0 MSTORE PUSH1 0x41 PUSH1 0x4 MSTORE PUSH1 0x24 PUSH0 REVERT JUMPDEST PUSH3 0x114 DUP3 PUSH3 0xCC JUMP JUMPDEST DUP2 ADD DUP2 DUP2 LT PUSH8 0xFFFFFFFFFFFFFFFF DUP3 GT OR ISZERO PUSH3 0x136 JUMPI PUSH3 0x135 PUSH3 0xDC JUMP JUMPDEST JUMPDEST DUP1 PUSH1 0x40 MSTORE POP POP POP JUMP JUMPDEST PUSH0 PUSH3 0x14A PUSH3 0xB3 JUMP JUMPDEST SWAP1 POP PUSH3 0x158 DUP3 DUP3 PUSH3 0x109 JUMP JUMPDEST SWAP2 SWAP1 POP JUMP JUMPDEST PUSH0 PUSH8 0xFFFFFFFFFFFFFFFF DUP3 GT ISZERO PUSH3 0x17A JUMPI PUSH3 0x179 PUSH3 0xDC JUMP JUMPDEST JUMPDEST PUSH3 0x185 DUP3 PUSH3 0xCC JUMP JUMPDEST SWAP1 POP PUSH1 0x20 DUP2 ADD SWAP1 POP SWAP2 SWAP1 POP JUMP JUMPDEST PUSH0 JUMPDEST DUP4 DUP2 LT ISZERO PUSH3 0x1B1 JUMPI DUP1 DUP3 ADD MLOAD DUP2 DUP5 ADD MSTORE PUSH1 0x20 DUP2 ADD SWAP1 POP PUSH3 0x194 JUMP JUMPDEST PUSH0 DUP5 DUP5 ADD MSTORE POP POP POP POP JUMP JUMPDEST PUSH0 PUSH3 0x1D2 PUSH3 0x1CC DUP5 PUSH3 0x15D JUMP JUMPDEST PUSH3 0x13F JUMP JUMPDEST SWAP1 POP DUP3 DUP2 MSTORE PUSH1 0x20 DUP2 ADD DUP5 DUP5 DUP5 ADD GT ISZERO PUSH3 0x1F1 JUMPI PUSH3 0x1F0 PUSH3 0xC8 JUMP JUMPDEST JUMPDEST PUSH3 0x1FE DUP5 DUP3 DUP6 PUSH3 0x192 JUMP JUMPDEST POP SWAP4 SWAP3 POP POP POP JUMP JUMPDEST PUSH0 DUP3 PUSH1 0x1F DUP4 ADD SLT PUSH3 0x21D JUMPI PUSH3 0x21C PUSH3 0xC4 JUMP JUMPDEST JUMPDEST DUP2 MLOAD PUSH3 0x22F DUP5 DUP3 PUSH1 0x20 DUP7 ADD PUSH3 0x1BC JUMP JUMPDEST SWAP2 POP POP SWAP3 SWAP2 POP POP JUMP JUMPDEST PUSH0 DUP2 SWAP1 POP SWAP2 SWAP1 POP JUMP JUMPDEST PUSH3 0x24C DUP2 PUSH3 0x238 JUMP JUMPDEST DUP2 EQ PUSH3 0x257 JUMPI PUSH0 DUP1 REVERT JUMPDEST POP JUMP JUMPDEST PUSH0 DUP2 MLOAD SWAP1 POP PUSH3 0x26A DUP2 PUSH3 0x241 JUMP JUMPDEST SWAP3 SWAP2 POP POP JUMP JUMPDEST PUSH0 DUP1 PUSH0 DUP1 PUSH1 0x80 DUP6 DUP8 SUB SLT ISZERO PUSH3 0x28B JUMPI PUSH3 0x28A PUSH3 0xBC JUMP JUMPDEST JUMPDEST PUSH0 DUP6 ADD MLOAD PUSH8 0xFFFFFFFFFFFFFFFF DUP2 GT ISZERO PUSH3 0x2AB JUMPI PUSH3 0x2AA PUSH3 0xC0 JUMP JUMPDEST JUMPDEST PUSH3 0x2B9 DUP8 DUP3 DUP9 ADD PUSH3 0x206 JUMP JUMPDEST SWAP5 POP POP PUSH1 0x20 DUP6 ADD MLOAD PUSH8 0xFFFFFFFFFFFFFFFF DUP2 GT ISZERO PUSH3 0x2DD JUMPI PUSH3 0x2DC PUSH3 0xC0 JUMP JUMPDEST JUMPDEST PUSH3 0x2EB DUP8 DUP3 DUP9 ADD PUSH3 0x206 JUMP JUMPDEST SWAP4 POP POP PUSH1 0x40 DUP6 ADD MLOAD PUSH8 0xFFFFFFFFFFFFFFFF DUP2 GT ISZERO PUSH3 0x30F JUMPI PUSH3 0x30E PUSH3 0xC0 JUMP JUMPDEST JUMPDEST PUSH3 0x31D DUP8 DUP3 DUP9 ADD PUSH3 0x206 JUMP JUMPDEST SWAP3 POP POP PUSH1 0x60 PUSH3 0x330 DUP8 DUP3 DUP9 ADD PUSH3 0x25A JUMP JUMPDEST SWAP2 POP POP SWAP3 SWAP6 SWAP2 SWAP5 POP SWAP3 POP JUMP JUMPDEST PUSH0 DUP2 MLOAD SWAP1 POP SWAP2 SWAP1 POP JUMP JUMPDEST PUSH32 0x4E487B7100000000000000000000000000000000000000000000000000000000 PUSH0 MSTORE PUSH1 0x22 PUSH1 0x4 MSTORE PUSH1 0x24 PUSH0 REVERT JUMPDEST PUSH0 PUSH1 0x2 DUP3 DIV SWAP1 POP PUSH1 0x1 DUP3 AND DUP1 PUSH3 0x38B JUMPI PUSH1 0x7F DUP3 AND SWAP2 POP JUMPDEST PUSH1 0x20 DUP3 LT DUP2 SUB PUSH3 0x3A1 JUMPI PUSH3 0x3A0 PUSH3 0x346 JUMP JUMPDEST JUMPDEST POP SWAP2 SWAP1 POP JUMP JUMPDEST PUSH0 DUP2 SWAP1 POP DUP2 PUSH0 MSTORE PUSH1 0x20 PUSH0 KECCAK256 SWAP1 POP SWAP2 SWAP1 POP JUMP JUMPDEST PUSH0 PUSH1 0x20 PUSH1 0x1F DUP4 ADD DIV SWAP1 POP SWAP2 SWAP1 POP JUMP JUMPDEST PUSH0 DUP3 DUP3 SHL SWAP1 POP SWAP3 SWAP2 POP POP JUMP JUMPDEST PUSH0 PUSH1 0x8 DUP4 MUL PUSH3 0x405 PUSH32 0xFFFFFFFFFFFFFFFFFFFFFFFFFFFFFFFFFFFFFFFFFFFFFFFFFFFFFFFFFFFFFFFF DUP3 PUSH3 0x3C8 JUMP JUMPDEST PUSH3 0x411 DUP7 DUP4 PUSH3 0x3C8 JUMP JUMPDEST SWAP6 POP DUP1 NOT DUP5 AND SWAP4 POP DUP1 DUP7 AND DUP5 OR SWAP3 POP POP POP SWAP4 SWAP3 POP POP POP JUMP JUMPDEST PUSH0 DUP2 SWAP1 POP SWAP2 SWAP1 POP JUMP JUMPDEST PUSH0 PUSH3 0x452 PUSH3 0x44C PUSH3 0x446 DUP5 PUSH3 0x238 JUMP JUMPDEST PUSH3 0x429 JUMP JUMPDEST PUSH3 0x238 JUMP JUMPDEST SWAP1 POP SWAP2 SWAP1 POP JUMP JUMPDEST PUSH0 DUP2 SWAP1 POP SWAP2 SWAP1 POP JUMP JUMPDEST PUSH3 0x46D DUP4 PUSH3 0x432 JUMP JUMPDEST PUSH3 0x485 PUSH3 0x47C DUP3 PUSH3 0x459 JUMP JUMPDEST DUP5 DUP5 SLOAD PUSH3 0x3D4 JUMP JUMPDEST DUP3 SSTORE POP POP POP POP JUMP JUMPDEST PUSH0 SWAP1 JUMP JUMPDEST PUSH3 0x49B PUSH3 0x48D JUMP JUMPDEST PUSH3 0x4A8 DUP2 DUP5 DUP5 PUSH3 0x462 JUMP JUMPDEST POP POP POP JUMP JUMPDEST JUMPDEST DUP2 DUP2 LT ISZERO PUSH3 0x4CF JUMPI PUSH3 0x4C3 PUSH0 DUP3 PUSH3 0x491 JUMP JUMPDEST PUSH1 0x1 DUP2 ADD SWAP1 POP PUSH3 0x4AE JUMP JUMPDEST POP POP JUMP JUMPDEST PUSH1 0x1F DUP3 GT ISZERO PUSH3 0x51E JUMPI PUSH3 0x4E8 DUP2 PUSH3 0x3A7 JUMP JUMPDEST PUSH3 0x4F3 DUP5 PUSH3 0x3B9 JUMP JUMPDEST DUP2 ADD PUSH1 0x20 DUP6 LT ISZERO PUSH3 0x503 JUMPI DUP2 SWAP1 POP JUMPDEST PUSH3 0x51B PUSH3 0x512 DUP6 PUSH3 0x3B9 JUMP JUMPDEST DUP4 ADD DUP3 PUSH3 0x4AD JUMP JUMPDEST POP POP JUMPDEST POP POP POP JUMP JUMPDEST PUSH0 DUP3 DUP3 SHR SWAP1 POP SWAP3 SWAP2 POP POP JUMP JUMPDEST PUSH0 PUSH3 0x540 PUSH0 NOT DUP5 PUSH1 0x8 MUL PUSH3 0x523 JUMP JUMPDEST NOT DUP1 DUP4 AND SWAP2 POP POP SWAP3 SWAP2 POP POP JUMP JUMPDEST PUSH0 PUSH3 0x55A DUP4 DUP4 PUSH3 0x52F JUMP JUMPDEST SWAP2 POP DUP3 PUSH1 0x2 MUL DUP3 OR SWAP1 POP SWAP3 SWAP2 POP POP JUMP JUMPDEST PUSH3 0x575 DUP3 PUSH3 0x33C JUMP JUMPDEST PUSH8 0xFFFFFFFFFFFFFFFF DUP2 GT ISZERO PUSH3 0x591 JUMPI PUSH3 0x590 PUSH3 0xDC JUMP JUMPDEST JUMPDEST PUSH3 0x59D DUP3 SLOAD PUSH3 0x373 JUMP JUMPDEST PUSH3 0x5AA DUP3 DUP3 DUP6 PUSH3 0x4D3 JUMP JUMPDEST PUSH0 PUSH1 0x20 SWAP1 POP PUSH1 0x1F DUP4 GT PUSH1 0x1 DUP2 EQ PUSH3 0x5E0 JUMPI PUSH0 DUP5 ISZERO PUSH3 0x5CB JUMPI DUP3 DUP8 ADD MLOAD SWAP1 POP JUMPDEST PUSH3 0x5D7 DUP6 DUP3 PUSH3 0x54D JUMP JUMPDEST DUP7 SSTORE POP PUSH3 0x646 JUMP JUMPDEST PUSH1 0x1F NOT DUP5 AND PUSH3 0x5F0 DUP7 PUSH3 0x3A7 JUMP JUMPDEST PUSH0 JUMPDEST DUP3 DUP2 LT ISZERO PUSH3 0x619 JUMPI DUP5 DUP10 ADD MLOAD DUP3 SSTORE PUSH1 0x1 DUP3 ADD SWAP2 POP PUSH1 0x20 DUP6 ADD SWAP5 POP PUSH1 0x20 DUP2 ADD SWAP1 POP PUSH3 0x5F2 JUMP JUMPDEST DUP7 DUP4 LT ISZERO PUSH3 0x639 JUMPI DUP5 DUP10 ADD MLOAD PUSH3 0x635 PUSH1 0x1F DUP10 AND DUP3 PUSH3 0x52F JUMP JUMPDEST DUP4 SSTORE POP JUMPDEST PUSH1 0x1 PUSH1 0x2 DUP9 MUL ADD DUP9 SSTORE POP POP POP JUMPDEST POP POP POP POP POP POP JUMP JUMPDEST PUSH2 0x1FA5 DUP1 PUSH3 0x65C PUSH0 CODECOPY PUSH0 RETURN INVALID PUSH1 0x80 PUSH1 0x40 MSTORE CALLVALUE DUP1 ISZERO PUSH2 0xF JUMPI PUSH0 DUP1 REVERT JUMPDEST POP PUSH1 0x4 CALLDATASIZE LT PUSH2 0x9B JUMPI PUSH0 CALLDATALOAD PUSH1 0xE0 SHR DUP1 PUSH4 0x4E1273F4 GT PUSH2 0x64 JUMPI DUP1 PUSH4 0x4E1273F4 EQ PUSH2 0x169 JUMPI DUP1 PUSH4 0x95D89B41 EQ PUSH2 0x199 JUMPI DUP1 PUSH4 0xA22CB465 EQ PUSH2 0x1B7 JUMPI DUP1 PUSH4 0xE985E9C5 EQ PUSH2 0x1D3 JUMPI DUP1 PUSH4 0xF242432A EQ PUSH2 0x203 JUMPI PUSH2 0x9B JUMP JUMPDEST DUP1 PUSH3 0xFDD58E EQ PUSH2 0x9F JUMPI DUP1 PUSH4 0x1FFC9A7 EQ PUSH2 0xCF JUMPI DUP1 PUSH4 0x6FDDE03 EQ PUSH2 0xFF JUMPI DUP1 PUSH4 0xE89341C EQ PUSH2 0x11D JUMPI DUP1 PUSH4 0x2EB2C2D6 EQ PUSH2 0x14D JUMPI JUMPDEST PUSH0 DUP1 REVERT JUMPDEST PUSH2 0xB9 PUSH1 0x4 DUP1 CALLDATASIZE SUB DUP2 ADD SWAP1 PUSH2 0xB4 SWAP2 SWAP1 PUSH2 0x1459 JUMP JUMPDEST PUSH2 0x21F JUMP JUMPDEST PUSH1 0x40 MLOAD PUSH2 0xC6 SWAP2 SWAP1 PUSH2 0x14A6 JUMP JUMPDEST PUSH1 0x40 MLOAD DUP1 SWAP2 SUB SWAP1 RETURN JUMPDEST PUSH2 0xE9 PUSH1 0x4 DUP1 CALLDATASIZE SUB DUP2 ADD SWAP1 PUSH2 0xE4 SWAP2 SWAP1 PUSH2 0x1514 JUMP JUMPDEST PUSH2 0x274 JUMP JUMPDEST PUSH1 0x40 MLOAD PUSH2 0xF6 SWAP2 SWAP1 PUSH2 0x1559 JUMP JUMPDEST PUSH1 0x40 MLOAD DUP1 SWAP2 SUB SWAP1 RETURN JUMPDEST PUSH2 0x107 PUSH2 0x355 JUMP JUMPDEST PUSH1 0x40 MLOAD PUSH2 0x114 SWAP2 SWAP1 PUSH2 0x15FC JUMP JUMPDEST PUSH1 0x40 MLOAD DUP1 SWAP2 SUB SWAP1 RETURN JUMPDEST PUSH2 0x137 PUSH1 0x4 DUP1 CALLDATASIZE SUB DUP2 ADD SWAP1 PUSH2 0x132 SWAP2 SWAP1 PUSH2 0x161C JUMP JUMPDEST PUSH2 0x3E1 JUMP JUMPDEST PUSH1 0x40 MLOAD PUSH2 0x144 SWAP2 SWAP1 PUSH2 0x15FC JUMP JUMPDEST PUSH1 0x40 MLOAD DUP1 SWAP2 SUB SWAP1 RETURN JUMPDEST PUSH2 0x167 PUSH1 0x4 DUP1 CALLDATASIZE SUB DUP2 ADD SWAP1 PUSH2 0x162 SWAP2 SWAP1 PUSH2 0x1837 JUMP JUMPDEST PUSH2 0x473 JUMP JUMPDEST STOP JUMPDEST PUSH2 0x183 PUSH1 0x4 DUP1 CALLDATASIZE SUB DUP2 ADD SWAP1 PUSH2 0x17E SWAP2 SWAP1 PUSH2 0x19C2 JUMP JUMPDEST PUSH2 0x51A JUMP JUMPDEST PUSH1 0x40 MLOAD PUSH2 0x190 SWAP2 SWAP1 PUSH2 0x1AEF JUMP JUMPDEST PUSH1 0x40 MLOAD DUP1 SWAP2 SUB SWAP1 RETURN JUMPDEST PUSH2 0x1A1 PUSH2 0x621 JUMP JUMPDEST PUSH1 0x40 MLOAD PUSH2 0x1AE SWAP2 SWAP1 PUSH2 0x15FC JUMP JUMPDEST PUSH1 0x40 MLOAD DUP1 SWAP2 SUB SWAP1 RETURN JUMPDEST PUSH2 0x1D1 PUSH1 0x4 DUP1 CALLDATASIZE SUB DUP2 ADD SWAP1 PUSH2 0x1CC SWAP2 SWAP1 PUSH2 0x1B39 JUMP JUMPDEST PUSH2 0x6AD JUMP JUMPDEST STOP JUMPDEST PUSH2 0x1ED PUSH1 0x4 DUP1 CALLDATASIZE SUB DUP2 ADD SWAP1 PUSH2 0x1E8 SWAP2 SWAP1 PUSH2 0x1B77 JUMP JUMPDEST PUSH2 0x6C3 JUMP JUMPDEST PUSH1 0x40 MLOAD PUSH2 0x1FA SWAP2 SWAP1 PUSH2 0x1559 JUMP JUMPDEST PUSH1 0x40 MLOAD DUP1 SWAP2 SUB SWAP1 RETURN JUMPDEST PUSH2 0x21D PUSH1 0x4 DUP1 CALLDATASIZE SUB DUP2 ADD SWAP1 PUSH2 0x218 SWAP2 SWAP1 PUSH2 0x1BB5 JUMP JUMPDEST PUSH2 0x751 JUMP JUMPDEST STOP JUMPDEST PUSH0 DUP1 PUSH0 DUP4 DUP2 MSTORE PUSH1 0x20 ADD SWAP1 DUP2 MSTORE PUSH1 0x20 ADD PUSH0 KECCAK256 PUSH0 DUP5 PUSH20 0xFFFFFFFFFFFFFFFFFFFFFFFFFFFFFFFFFFFFFFFF AND PUSH20 0xFFFFFFFFFFFFFFFFFFFFFFFFFFFFFFFFFFFFFFFF AND DUP2 MSTORE PUSH1 0x20 ADD SWAP1 DUP2 MSTORE PUSH1 0x20 ADD PUSH0 KECCAK256 SLOAD SWAP1 POP SWAP3 SWAP2 POP POP JUMP JUMPDEST PUSH0 PUSH32 0xD9B67A2600000000000000000000000000000000000000000000000000000000 PUSH28 0xFFFFFFFFFFFFFFFFFFFFFFFFFFFFFFFFFFFFFFFFFFFFFFFFFFFFFFFF NOT AND DUP3 PUSH28 0xFFFFFFFFFFFFFFFFFFFFFFFFFFFFFFFFFFFFFFFFFFFFFFFFFFFFFFFF NOT AND EQ DUP1 PUSH2 0x33E JUMPI POP PUSH32 0xE89341C00000000000000000000000000000000000000000000000000000000 PUSH28 0xFFFFFFFFFFFFFFFFFFFFFFFFFFFFFFFFFFFFFFFFFFFFFFFFFFFFFFFF NOT AND DUP3 PUSH28 0xFFFFFFFFFFFFFFFFFFFFFFFFFFFFFFFFFFFFFFFFFFFFFFFFFFFFFFFF NOT AND EQ JUMPDEST DUP1 PUSH2 0x34E JUMPI POP PUSH2 0x34D DUP3 PUSH2 0x7F8 JUMP JUMPDEST JUMPDEST SWAP1 POP SWAP2 SWAP1 POP JUMP JUMPDEST PUSH1 0x3 DUP1 SLOAD PUSH2 0x362 SWAP1 PUSH2 0x1C75 JUMP JUMPDEST DUP1 PUSH1 0x1F ADD PUSH1 0x20 DUP1 SWAP2 DIV MUL PUSH1 0x20 ADD PUSH1 0x40 MLOAD SWAP1 DUP2 ADD PUSH1 0x40 MSTORE DUP1 SWAP3 SWAP2 SWAP1 DUP2 DUP2 MSTORE PUSH1 0x20 ADD DUP3 DUP1 SLOAD PUSH2 0x38E SWAP1 PUSH2 0x1C75 JUMP JUMPDEST DUP1 ISZERO PUSH2 0x3D9 JUMPI DUP1 PUSH1 0x1F LT PUSH2 0x3B0 JUMPI PUSH2 0x100 DUP1 DUP4 SLOAD DIV MUL DUP4 MSTORE SWAP2 PUSH1 0x20 ADD SWAP2 PUSH2 0x3D9 JUMP JUMPDEST DUP3 ADD SWAP2 SWAP1 PUSH0 MSTORE PUSH1 0x20 PUSH0 KECCAK256 SWAP1 JUMPDEST DUP2 SLOAD DUP2 MSTORE SWAP1 PUSH1 0x1 ADD SWAP1 PUSH1 0x20 ADD DUP1 DUP4 GT PUSH2 0x3BC JUMPI DUP3 SWAP1 SUB PUSH1 0x1F AND DUP3 ADD SWAP2 JUMPDEST POP POP POP POP POP DUP2 JUMP JUMPDEST PUSH1 0x60 PUSH1 0x2 DUP1 SLOAD PUSH2 0x3F0 SWAP1 PUSH2 0x1C75 JUMP JUMPDEST DUP1 PUSH1 0x1F ADD PUSH1 0x20 DUP1 SWAP2 DIV MUL PUSH1 0x20 ADD PUSH1 0x40 MLOAD SWAP1 DUP2 ADD PUSH1 0x40 MSTORE DUP1 SWAP3 SWAP2 SWAP1 DUP2 DUP2 MSTORE PUSH1 0x20 ADD DUP3 DUP1 SLOAD PUSH2 0x41C SWAP1 PUSH2 0x1C75 JUMP JUMPDEST DUP1 ISZERO PUSH2 0x467 JUMPI DUP1 PUSH1 0x1F LT PUSH2 0x43E JUMPI PUSH2 0x100 DUP1 DUP4 SLOAD DIV MUL DUP4 MSTORE SWAP2 PUSH1 0x20 ADD SWAP2 PUSH2 0x467 JUMP JUMPDEST DUP3 ADD SWAP2 SWAP1 PUSH0 MSTORE PUSH1 0x20 PUSH0 KECCAK256 SWAP1 JUMPDEST DUP2 SLOAD DUP2 MSTORE SWAP1 PUSH1 0x1 ADD SWAP1 PUSH1 0x20 ADD DUP1 DUP4 GT PUSH2 0x44A JUMPI DUP3 SWAP1 SUB PUSH1 0x1F AND DUP3 ADD SWAP2 JUMPDEST POP POP POP POP POP SWAP1 POP SWAP2 SWAP1 POP JUMP JUMPDEST PUSH0 PUSH2 0x47C PUSH2 0x861 JUMP JUMPDEST SWAP1 POP DUP1 PUSH20 0xFFFFFFFFFFFFFFFFFFFFFFFFFFFFFFFFFFFFFFFF AND DUP7 PUSH20 0xFFFFFFFFFFFFFFFFFFFFFFFFFFFFFFFFFFFFFFFF AND EQ ISZERO DUP1 ISZERO PUSH2 0x4C1 JUMPI POP PUSH2 0x4BF DUP7 DUP3 PUSH2 0x6C3 JUMP JUMPDEST ISZERO JUMPDEST ISZERO PUSH2 0x505 JUMPI DUP1 DUP7 PUSH1 0x40 MLOAD PUSH32 0xE237D92200000000000000000000000000000000000000000000000000000000 DUP2 MSTORE PUSH1 0x4 ADD PUSH2 0x4FC SWAP3 SWAP2 SWAP1 PUSH2 0x1CB4 JUMP JUMPDEST PUSH1 0x40 MLOAD DUP1 SWAP2 SUB SWAP1 REVERT JUMPDEST PUSH2 0x512 DUP7 DUP7 DUP7 DUP7 DUP7 PUSH2 0x868 JUMP JUMPDEST POP POP POP POP POP POP JUMP JUMPDEST PUSH1 0x60 DUP2 MLOAD DUP4 MLOAD EQ PUSH2 0x566 JUMPI DUP2 MLOAD DUP4 MLOAD PUSH1 0x40 MLOAD PUSH32 0x5B05999100000000000000000000000000000000000000000000000000000000 DUP2 MSTORE PUSH1 0x4 ADD PUSH2 0x55D SWAP3 SWAP2 SWAP1 PUSH2 0x1CDB JUMP JUMPDEST PUSH1 0x40 MLOAD DUP1 SWAP2 SUB SWAP1 REVERT JUMPDEST PUSH0 DUP4 MLOAD PUSH8 0xFFFFFFFFFFFFFFFF DUP2 GT ISZERO PUSH2 0x582 JUMPI PUSH2 0x581 PUSH2 0x164B JUMP JUMPDEST JUMPDEST PUSH1 0x40 MLOAD SWAP1 DUP1 DUP3 MSTORE DUP1 PUSH1 0x20 MUL PUSH1 0x20 ADD DUP3 ADD PUSH1 0x40 MSTORE DUP1 ISZERO PUSH2 0x5B0 JUMPI DUP2 PUSH1 0x20 ADD PUSH1 0x20 DUP3 MUL DUP1 CALLDATASIZE DUP4 CALLDATACOPY DUP1 DUP3 ADD SWAP2 POP POP SWAP1 POP JUMPDEST POP SWAP1 POP PUSH0 JUMPDEST DUP5 MLOAD DUP2 LT ISZERO PUSH2 0x616 JUMPI PUSH2 0x5EC PUSH2 0x5D4 DUP3 DUP8 PUSH2 0x95C SWAP1 SWAP2 SWAP1 PUSH4 0xFFFFFFFF AND JUMP JUMPDEST PUSH2 0x5E7 DUP4 DUP8 PUSH2 0x96F SWAP1 SWAP2 SWAP1 PUSH4 0xFFFFFFFF AND JUMP JUMPDEST PUSH2 0x21F JUMP JUMPDEST DUP3 DUP3 DUP2 MLOAD DUP2 LT PUSH2 0x5FF JUMPI PUSH2 0x5FE PUSH2 0x1D02 JUMP JUMPDEST JUMPDEST PUSH1 0x20 MUL PUSH1 0x20 ADD ADD DUP2 DUP2 MSTORE POP POP DUP1 PUSH1 0x1 ADD SWAP1 POP PUSH2 0x5B5 JUMP JUMPDEST POP DUP1 SWAP2 POP POP SWAP3 SWAP2 POP POP JUMP JUMPDEST PUSH1 0x4 DUP1 SLOAD PUSH2 0x62E SWAP1 PUSH2 0x1C75 JUMP JUMPDEST DUP1 PUSH1 0x1F ADD PUSH1 0x20 DUP1 SWAP2 DIV MUL PUSH1 0x20 ADD PUSH1 0x40 MLOAD SWAP1 DUP2 ADD PUSH1 0x40 MSTORE DUP1 SWAP3 SWAP2 SWAP1 DUP2 DUP2 MSTORE PUSH1 0x20 ADD DUP3 DUP1 SLOAD PUSH2 0x65A SWAP1 PUSH2 0x1C75 JUMP JUMPDEST DUP1 ISZERO PUSH2 0x6A5 JUMPI DUP1 PUSH1 0x1F LT PUSH2 0x67C JUMPI PUSH2 0x100 DUP1 DUP4 SLOAD DIV MUL DUP4 MSTORE SWAP2 PUSH1 0x20 ADD SWAP2 PUSH2 0x6A5 JUMP JUMPDEST DUP3 ADD SWAP2 SWAP1 PUSH0 MSTORE PUSH1 0x20 PUSH0 KECCAK256 SWAP1 JUMPDEST DUP2 SLOAD DUP2 MSTORE SWAP1 PUSH1 0x1 ADD SWAP1 PUSH1 0x20 ADD DUP1 DUP4 GT PUSH2 0x688 JUMPI DUP3 SWAP1 SUB PUSH1 0x1F AND DUP3 ADD SWAP2 JUMPDEST POP POP POP POP POP DUP2 JUMP JUMPDEST PUSH2 0x6BF PUSH2 0x6B8 PUSH2 0x861 JUMP JUMPDEST DUP4 DUP4 PUSH2 0x982 JUMP JUMPDEST POP POP JUMP JUMPDEST PUSH0 PUSH1 0x1 PUSH0 DUP5 PUSH20 0xFFFFFFFFFFFFFFFFFFFFFFFFFFFFFFFFFFFFFFFF AND PUSH20 0xFFFFFFFFFFFFFFFFFFFFFFFFFFFFFFFFFFFFFFFF AND DUP2 MSTORE PUSH1 0x20 ADD SWAP1 DUP2 MSTORE PUSH1 0x20 ADD PUSH0 KECCAK256 PUSH0 DUP4 PUSH20 0xFFFFFFFFFFFFFFFFFFFFFFFFFFFFFFFFFFFFFFFF AND PUSH20 0xFFFFFFFFFFFFFFFFFFFFFFFFFFFFFFFFFFFFFFFF AND DUP2 MSTORE PUSH1 0x20 ADD SWAP1 DUP2 MSTORE PUSH1 0x20 ADD PUSH0 KECCAK256 PUSH0 SWAP1 SLOAD SWAP1 PUSH2 0x100 EXP SWAP1 DIV PUSH1 0xFF AND SWAP1 POP SWAP3 SWAP2 POP POP JUMP JUMPDEST PUSH0 PUSH2 0x75A PUSH2 0x861 JUMP JUMPDEST SWAP1 POP DUP1 PUSH20 0xFFFFFFFFFFFFFFFFFFFFFFFFFFFFFFFFFFFFFFFF AND DUP7 PUSH20 0xFFFFFFFFFFFFFFFFFFFFFFFFFFFFFFFFFFFFFFFF AND EQ ISZERO DUP1 ISZERO PUSH2 0x79F JUMPI POP PUSH2 0x79D DUP7 DUP3 PUSH2 0x6C3 JUMP JUMPDEST ISZERO JUMPDEST ISZERO PUSH2 0x7E3 JUMPI DUP1 DUP7 PUSH1 0x40 MLOAD PUSH32 0xE237D92200000000000000000000000000000000000000000000000000000000 DUP2 MSTORE PUSH1 0x4 ADD PUSH2 0x7DA SWAP3 SWAP2 SWAP1 PUSH2 0x1CB4 JUMP JUMPDEST PUSH1 0x40 MLOAD DUP1 SWAP2 SUB SWAP1 REVERT JUMPDEST PUSH2 0x7F0 DUP7 DUP7 DUP7 DUP7 DUP7 PUSH2 0xAEB JUMP JUMPDEST POP POP POP POP POP POP JUMP JUMPDEST PUSH0 PUSH32 0x1FFC9A700000000000000000000000000000000000000000000000000000000 PUSH28 0xFFFFFFFFFFFFFFFFFFFFFFFFFFFFFFFFFFFFFFFFFFFFFFFFFFFFFFFF NOT AND DUP3 PUSH28 0xFFFFFFFFFFFFFFFFFFFFFFFFFFFFFFFFFFFFFFFFFFFFFFFFFFFFFFFF NOT AND EQ SWAP1 POP SWAP2 SWAP1 POP JUMP JUMPDEST PUSH0 CALLER SWAP1 POP SWAP1 JUMP JUMPDEST PUSH0 PUSH20 0xFFFFFFFFFFFFFFFFFFFFFFFFFFFFFFFFFFFFFFFF AND DUP5 PUSH20 0xFFFFFFFFFFFFFFFFFFFFFFFFFFFFFFFFFFFFFFFF AND SUB PUSH2 0x8D8 JUMPI PUSH0 PUSH1 0x40 MLOAD PUSH32 0x57F447CE00000000000000000000000000000000000000000000000000000000 DUP2 MSTORE PUSH1 0x4 ADD PUSH2 0x8CF SWAP2 SWAP1 PUSH2 0x1D2F JUMP JUMPDEST PUSH1 0x40 MLOAD DUP1 SWAP2 SUB SWAP1 REVERT JUMPDEST PUSH0 PUSH20 0xFFFFFFFFFFFFFFFFFFFFFFFFFFFFFFFFFFFFFFFF AND DUP6 PUSH20 0xFFFFFFFFFFFFFFFFFFFFFFFFFFFFFFFFFFFFFFFF AND SUB PUSH2 0x948 JUMPI PUSH0 PUSH1 0x40 MLOAD PUSH32 0x1A8351400000000000000000000000000000000000000000000000000000000 DUP2 MSTORE PUSH1 0x4 ADD PUSH2 0x93F SWAP2 SWAP1 PUSH2 0x1D2F JUMP JUMPDEST PUSH1 0x40 MLOAD DUP1 SWAP2 SUB SWAP1 REVERT JUMPDEST PUSH2 0x955 DUP6 DUP6 DUP6 DUP6 DUP6 PUSH2 0xBF1 JUMP JUMPDEST POP POP POP POP POP JUMP JUMPDEST PUSH0 PUSH1 0x20 DUP3 MUL PUSH1 0x20 DUP5 ADD ADD MLOAD SWAP1 POP SWAP3 SWAP2 POP POP JUMP JUMPDEST PUSH0 PUSH1 0x20 DUP3 MUL PUSH1 0x20 DUP5 ADD ADD MLOAD SWAP1 POP SWAP3 SWAP2 POP POP JUMP JUMPDEST PUSH0 PUSH20 0xFFFFFFFFFFFFFFFFFFFFFFFFFFFFFFFFFFFFFFFF AND DUP3 PUSH20 0xFFFFFFFFFFFFFFFFFFFFFFFFFFFFFFFFFFFFFFFF AND SUB PUSH2 0x9F2 JUMPI PUSH0 PUSH1 0x40 MLOAD PUSH32 0xCED3E10000000000000000000000000000000000000000000000000000000000 DUP2 MSTORE PUSH1 0x4 ADD PUSH2 0x9E9 SWAP2 SWAP1 PUSH2 0x1D2F JUMP JUMPDEST PUSH1 0x40 MLOAD DUP1 SWAP2 SUB SWAP1 REVERT JUMPDEST DUP1 PUSH1 0x1 PUSH0 DUP6 PUSH20 0xFFFFFFFFFFFFFFFFFFFFFFFFFFFFFFFFFFFFFFFF AND PUSH20 0xFFFFFFFFFFFFFFFFFFFFFFFFFFFFFFFFFFFFFFFF AND DUP2 MSTORE PUSH1 0x20 ADD SWAP1 DUP2 MSTORE PUSH1 0x20 ADD PUSH0 KECCAK256 PUSH0 DUP5 PUSH20 0xFFFFFFFFFFFFFFFFFFFFFFFFFFFFFFFFFFFFFFFF AND PUSH20 0xFFFFFFFFFFFFFFFFFFFFFFFFFFFFFFFFFFFFFFFF AND DUP2 MSTORE PUSH1 0x20 ADD SWAP1 DUP2 MSTORE PUSH1 0x20 ADD PUSH0 KECCAK256 PUSH0 PUSH2 0x100 EXP DUP2 SLOAD DUP2 PUSH1 0xFF MUL NOT AND SWAP1 DUP4 ISZERO ISZERO MUL OR SWAP1 SSTORE POP DUP2 PUSH20 0xFFFFFFFFFFFFFFFFFFFFFFFFFFFFFFFFFFFFFFFF AND DUP4 PUSH20 0xFFFFFFFFFFFFFFFFFFFFFFFFFFFFFFFFFFFFFFFF AND PUSH32 0x17307EAB39AB6107E8899845AD3D59BD9653F200F220920489CA2B5937696C31 DUP4 PUSH1 0x40 MLOAD PUSH2 0xADE SWAP2 SWAP1 PUSH2 0x1559 JUMP JUMPDEST PUSH1 0x40 MLOAD DUP1 SWAP2 SUB SWAP1 LOG3 POP POP POP JUMP JUMPDEST PUSH0 PUSH20 0xFFFFFFFFFFFFFFFFFFFFFFFFFFFFFFFFFFFFFFFF AND DUP5 PUSH20 0xFFFFFFFFFFFFFFFFFFFFFFFFFFFFFFFFFFFFFFFF AND SUB PUSH2 0xB5B JUMPI PUSH0 PUSH1 0x40 MLOAD PUSH32 0x57F447CE00000000000000000000000000000000000000000000000000000000 DUP2 MSTORE PUSH1 0x4 ADD PUSH2 0xB52 SWAP2 SWAP1 PUSH2 0x1D2F JUMP JUMPDEST PUSH1 0x40 MLOAD DUP1 SWAP2 SUB SWAP1 REVERT JUMPDEST PUSH0 PUSH20 0xFFFFFFFFFFFFFFFFFFFFFFFFFFFFFFFFFFFFFFFF AND DUP6 PUSH20 0xFFFFFFFFFFFFFFFFFFFFFFFFFFFFFFFFFFFFFFFF AND SUB PUSH2 0xBCB JUMPI PUSH0 PUSH1 0x40 MLOAD PUSH32 0x1A8351400000000000000000000000000000000000000000000000000000000 DUP2 MSTORE PUSH1 0x4 ADD PUSH2 0xBC2 SWAP2 SWAP1 PUSH2 0x1D2F JUMP JUMPDEST PUSH1 0x40 MLOAD DUP1 SWAP2 SUB SWAP1 REVERT JUMPDEST PUSH0 DUP1 PUSH2 0xBD7 DUP6 DUP6 PUSH2 0xC9D JUMP JUMPDEST SWAP2 POP SWAP2 POP PUSH2 0xBE8 DUP8 DUP8 DUP5 DUP5 DUP8 PUSH2 0xBF1 JUMP JUMPDEST POP POP POP POP POP POP POP JUMP JUMPDEST PUSH2 0xBFD DUP6 DUP6 DUP6 DUP6 PUSH2 0xCCD JUMP JUMPDEST PUSH0 PUSH20 0xFFFFFFFFFFFFFFFFFFFFFFFFFFFFFFFFFFFFFFFF AND DUP5 PUSH20 0xFFFFFFFFFFFFFFFFFFFFFFFFFFFFFFFFFFFFFFFF AND EQ PUSH2 0xC96 JUMPI PUSH0 PUSH2 0xC39 PUSH2 0x861 JUMP JUMPDEST SWAP1 POP PUSH1 0x1 DUP5 MLOAD SUB PUSH2 0xC85 JUMPI PUSH0 PUSH2 0xC58 PUSH0 DUP7 PUSH2 0x96F SWAP1 SWAP2 SWAP1 PUSH4 0xFFFFFFFF AND JUMP JUMPDEST SWAP1 POP PUSH0 PUSH2 0xC6E PUSH0 DUP7 PUSH2 0x96F SWAP1 SWAP2 SWAP1 PUSH4 0xFFFFFFFF AND JUMP JUMPDEST SWAP1 POP PUSH2 0xC7E DUP4 DUP10 DUP10 DUP6 DUP6 DUP10 PUSH2 0x105D JUMP JUMPDEST POP POP PUSH2 0xC94 JUMP JUMPDEST PUSH2 0xC93 DUP2 DUP8 DUP8 DUP8 DUP8 DUP8 PUSH2 0x120C JUMP JUMPDEST JUMPDEST POP JUMPDEST POP POP POP POP POP JUMP JUMPDEST PUSH1 0x60 DUP1 PUSH1 0x40 MLOAD SWAP2 POP PUSH1 0x1 DUP3 MSTORE DUP4 PUSH1 0x20 DUP4 ADD MSTORE PUSH1 0x40 DUP3 ADD SWAP1 POP PUSH1 0x1 DUP2 MSTORE DUP3 PUSH1 0x20 DUP3 ADD MSTORE PUSH1 0x40 DUP2 ADD PUSH1 0x40 MSTORE SWAP3 POP SWAP3 SWAP1 POP JUMP JUMPDEST DUP1 MLOAD DUP3 MLOAD EQ PUSH2 0xD17 JUMPI DUP2 MLOAD DUP2 MLOAD PUSH1 0x40 MLOAD PUSH32 0x5B05999100000000000000000000000000000000000000000000000000000000 DUP2 MSTORE PUSH1 0x4 ADD PUSH2 0xD0E SWAP3 SWAP2 SWAP1 PUSH2 0x1CDB JUMP JUMPDEST PUSH1 0x40 MLOAD DUP1 SWAP2 SUB SWAP1 REVERT JUMPDEST PUSH0 PUSH2 0xD20 PUSH2 0x861 JUMP JUMPDEST SWAP1 POP PUSH0 JUMPDEST DUP4 MLOAD DUP2 LT ISZERO PUSH2 0xF1C JUMPI PUSH0 PUSH2 0xD41 DUP3 DUP7 PUSH2 0x96F SWAP1 SWAP2 SWAP1 PUSH4 0xFFFFFFFF AND JUMP JUMPDEST SWAP1 POP PUSH0 PUSH2 0xD57 DUP4 DUP7 PUSH2 0x96F SWAP1 SWAP2 SWAP1 PUSH4 0xFFFFFFFF AND JUMP JUMPDEST SWAP1 POP PUSH0 PUSH20 0xFFFFFFFFFFFFFFFFFFFFFFFFFFFFFFFFFFFFFFFF AND DUP9 PUSH20 0xFFFFFFFFFFFFFFFFFFFFFFFFFFFFFFFFFFFFFFFF AND EQ PUSH2 0xE7A JUMPI PUSH0 DUP1 PUSH0 DUP5 DUP2 MSTORE PUSH1 0x20 ADD SWAP1 DUP2 MSTORE PUSH1 0x20 ADD PUSH0 KECCAK256 PUSH0 DUP11 PUSH20 0xFFFFFFFFFFFFFFFFFFFFFFFFFFFFFFFFFFFFFFFF AND PUSH20 0xFFFFFFFFFFFFFFFFFFFFFFFFFFFFFFFFFFFFFFFF AND DUP2 MSTORE PUSH1 0x20 ADD SWAP1 DUP2 MSTORE PUSH1 0x20 ADD PUSH0 KECCAK256 SLOAD SWAP1 POP DUP2 DUP2 LT ISZERO PUSH2 0xE26 JUMPI DUP9 DUP2 DUP4 DUP6 PUSH1 0x40 MLOAD PUSH32 0x3DEE4C500000000000000000000000000000000000000000000000000000000 DUP2 MSTORE PUSH1 0x4 ADD PUSH2 0xE1D SWAP5 SWAP4 SWAP3 SWAP2 SWAP1 PUSH2 0x1D48 JUMP JUMPDEST PUSH1 0x40 MLOAD DUP1 SWAP2 SUB SWAP1 REVERT JUMPDEST DUP2 DUP2 SUB PUSH0 DUP1 DUP6 DUP2 MSTORE PUSH1 0x20 ADD SWAP1 DUP2 MSTORE PUSH1 0x20 ADD PUSH0 KECCAK256 PUSH0 DUP12 PUSH20 0xFFFFFFFFFFFFFFFFFFFFFFFFFFFFFFFFFFFFFFFF AND PUSH20 0xFFFFFFFFFFFFFFFFFFFFFFFFFFFFFFFFFFFFFFFF AND DUP2 MSTORE PUSH1 0x20 ADD SWAP1 DUP2 MSTORE PUSH1 0x20 ADD PUSH0 KECCAK256 DUP2 SWAP1 SSTORE POP POP JUMPDEST PUSH0 PUSH20 0xFFFFFFFFFFFFFFFFFFFFFFFFFFFFFFFFFFFFFFFF AND DUP8 PUSH20 0xFFFFFFFFFFFFFFFFFFFFFFFFFFFFFFFFFFFFFFFF AND EQ PUSH2 0xF0F JUMPI DUP1 PUSH0 DUP1 DUP5 DUP2 MSTORE PUSH1 0x20 ADD SWAP1 DUP2 MSTORE PUSH1 0x20 ADD PUSH0 KECCAK256 PUSH0 DUP10 PUSH20 0xFFFFFFFFFFFFFFFFFFFFFFFFFFFFFFFFFFFFFFFF AND PUSH20 0xFFFFFFFFFFFFFFFFFFFFFFFFFFFFFFFFFFFFFFFF AND DUP2 MSTORE PUSH1 0x20 ADD SWAP1 DUP2 MSTORE PUSH1 0x20 ADD PUSH0 KECCAK256 PUSH0 DUP3 DUP3 SLOAD PUSH2 0xF07 SWAP2 SWAP1 PUSH2 0x1DB8 JUMP JUMPDEST SWAP3 POP POP DUP2 SWAP1 SSTORE POP JUMPDEST POP POP DUP1 PUSH1 0x1 ADD SWAP1 POP PUSH2 0xD24 JUMP JUMPDEST POP PUSH1 0x1 DUP4 MLOAD SUB PUSH2 0xFD7 JUMPI PUSH0 PUSH2 0xF3A PUSH0 DUP6 PUSH2 0x96F SWAP1 SWAP2 SWAP1 PUSH4 0xFFFFFFFF AND JUMP JUMPDEST SWAP1 POP PUSH0 PUSH2 0xF50 PUSH0 DUP6 PUSH2 0x96F SWAP1 SWAP2 SWAP1 PUSH4 0xFFFFFFFF AND JUMP JUMPDEST SWAP1 POP DUP6 PUSH20 0xFFFFFFFFFFFFFFFFFFFFFFFFFFFFFFFFFFFFFFFF AND DUP8 PUSH20 0xFFFFFFFFFFFFFFFFFFFFFFFFFFFFFFFFFFFFFFFF AND DUP5 PUSH20 0xFFFFFFFFFFFFFFFFFFFFFFFFFFFFFFFFFFFFFFFF AND PUSH32 0xC3D58168C5AE7397731D063D5BBF3D657854427343F4C083240F7AACAA2D0F62 DUP6 DUP6 PUSH1 0x40 MLOAD PUSH2 0xFC8 SWAP3 SWAP2 SWAP1 PUSH2 0x1CDB JUMP JUMPDEST PUSH1 0x40 MLOAD DUP1 SWAP2 SUB SWAP1 LOG4 POP POP PUSH2 0x1056 JUMP JUMPDEST DUP4 PUSH20 0xFFFFFFFFFFFFFFFFFFFFFFFFFFFFFFFFFFFFFFFF AND DUP6 PUSH20 0xFFFFFFFFFFFFFFFFFFFFFFFFFFFFFFFFFFFFFFFF AND DUP3 PUSH20 0xFFFFFFFFFFFFFFFFFFFFFFFFFFFFFFFFFFFFFFFF AND PUSH32 0x4A39DC06D4C0DBC64B70AF90FD698A233A518AA5D07E595D983B8C0526C8F7FB DUP7 DUP7 PUSH1 0x40 MLOAD PUSH2 0x104D SWAP3 SWAP2 SWAP1 PUSH2 0x1DEB JUMP JUMPDEST PUSH1 0x40 MLOAD DUP1 SWAP2 SUB SWAP1 LOG4 JUMPDEST POP POP POP POP POP JUMP JUMPDEST PUSH0 DUP5 PUSH20 0xFFFFFFFFFFFFFFFFFFFFFFFFFFFFFFFFFFFFFFFF AND EXTCODESIZE GT ISZERO PUSH2 0x1204 JUMPI DUP4 PUSH20 0xFFFFFFFFFFFFFFFFFFFFFFFFFFFFFFFFFFFFFFFF AND PUSH4 0xF23A6E61 DUP8 DUP8 DUP7 DUP7 DUP7 PUSH1 0x40 MLOAD DUP7 PUSH4 0xFFFFFFFF AND PUSH1 0xE0 SHL DUP2 MSTORE PUSH1 0x4 ADD PUSH2 0x10BD SWAP6 SWAP5 SWAP4 SWAP3 SWAP2 SWAP1 PUSH2 0x1E72 JUMP JUMPDEST PUSH1 0x20 PUSH1 0x40 MLOAD DUP1 DUP4 SUB DUP2 PUSH0 DUP8 GAS CALL SWAP3 POP POP POP DUP1 ISZERO PUSH2 0x10F8 JUMPI POP PUSH1 0x40 MLOAD RETURNDATASIZE PUSH1 0x1F NOT PUSH1 0x1F DUP3 ADD AND DUP3 ADD DUP1 PUSH1 0x40 MSTORE POP DUP2 ADD SWAP1 PUSH2 0x10F5 SWAP2 SWAP1 PUSH2 0x1EDE JUMP JUMPDEST PUSH1 0x1 JUMPDEST PUSH2 0x1179 JUMPI RETURNDATASIZE DUP1 PUSH0 DUP2 EQ PUSH2 0x1126 JUMPI PUSH1 0x40 MLOAD SWAP2 POP PUSH1 0x1F NOT PUSH1 0x3F RETURNDATASIZE ADD AND DUP3 ADD PUSH1 0x40 MSTORE RETURNDATASIZE DUP3 MSTORE RETURNDATASIZE PUSH0 PUSH1 0x20 DUP5 ADD RETURNDATACOPY PUSH2 0x112B JUMP JUMPDEST PUSH1 0x60 SWAP2 POP JUMPDEST POP PUSH0 DUP2 MLOAD SUB PUSH2 0x1171 JUMPI DUP5 PUSH1 0x40 MLOAD PUSH32 0x57F447CE00000000000000000000000000000000000000000000000000000000 DUP2 MSTORE PUSH1 0x4 ADD PUSH2 0x1168 SWAP2 SWAP1 PUSH2 0x1D2F JUMP JUMPDEST PUSH1 0x40 MLOAD DUP1 SWAP2 SUB SWAP1 REVERT JUMPDEST DUP1 MLOAD DUP2 PUSH1 0x20 ADD REVERT JUMPDEST PUSH4 0xF23A6E61 PUSH1 0xE0 SHL PUSH28 0xFFFFFFFFFFFFFFFFFFFFFFFFFFFFFFFFFFFFFFFFFFFFFFFFFFFFFFFF NOT AND DUP2 PUSH28 0xFFFFFFFFFFFFFFFFFFFFFFFFFFFFFFFFFFFFFFFFFFFFFFFFFFFFFFFF NOT AND EQ PUSH2 0x1202 JUMPI DUP5 PUSH1 0x40 MLOAD PUSH32 0x57F447CE00000000000000000000000000000000000000000000000000000000 DUP2 MSTORE PUSH1 0x4 ADD PUSH2 0x11F9 SWAP2 SWAP1 PUSH2 0x1D2F JUMP JUMPDEST PUSH1 0x40 MLOAD DUP1 SWAP2 SUB SWAP1 REVERT JUMPDEST POP JUMPDEST POP POP POP POP POP POP JUMP JUMPDEST PUSH0 DUP5 PUSH20 0xFFFFFFFFFFFFFFFFFFFFFFFFFFFFFFFFFFFFFFFF AND EXTCODESIZE GT ISZERO PUSH2 0x13B3 JUMPI DUP4 PUSH20 0xFFFFFFFFFFFFFFFFFFFFFFFFFFFFFFFFFFFFFFFF AND PUSH4 0xBC197C81 DUP8 DUP8 DUP7 DUP7 DUP7 PUSH1 0x40 MLOAD DUP7 PUSH4 0xFFFFFFFF AND PUSH1 0xE0 SHL DUP2 MSTORE PUSH1 0x4 ADD PUSH2 0x126C SWAP6 SWAP5 SWAP4 SWAP3 SWAP2 SWAP1 PUSH2 0x1F09 JUMP JUMPDEST PUSH1 0x20 PUSH1 0x40 MLOAD DUP1 DUP4 SUB DUP2 PUSH0 DUP8 GAS CALL SWAP3 POP POP POP DUP1 ISZERO PUSH2 0x12A7 JUMPI POP PUSH1 0x40 MLOAD RETURNDATASIZE PUSH1 0x1F NOT PUSH1 0x1F DUP3 ADD AND DUP3 ADD DUP1 PUSH1 0x40 MSTORE POP DUP2 ADD SWAP1 PUSH2 0x12A4 SWAP2 SWAP1 PUSH2 0x1EDE JUMP JUMPDEST PUSH1 0x1 JUMPDEST PUSH2 0x1328 JUMPI RETURNDATASIZE DUP1 PUSH0 DUP2 EQ PUSH2 0x12D5 JUMPI PUSH1 0x40 MLOAD SWAP2 POP PUSH1 0x1F NOT PUSH1 0x3F RETURNDATASIZE ADD AND DUP3 ADD PUSH1 0x40 MSTORE RETURNDATASIZE DUP3 MSTORE RETURNDATASIZE PUSH0 PUSH1 0x20 DUP5 ADD RETURNDATACOPY PUSH2 0x12DA JUMP JUMPDEST PUSH1 0x60 SWAP2 POP JUMPDEST POP PUSH0 DUP2 MLOAD SUB PUSH2 0x1320 JUMPI DUP5 PUSH1 0x40 MLOAD PUSH32 0x57F447CE00000000000000000000000000000000000000000000000000000000 DUP2 MSTORE PUSH1 0x4 ADD PUSH2 0x1317 SWAP2 SWAP1 PUSH2 0x1D2F JUMP JUMPDEST PUSH1 0x40 MLOAD DUP1 SWAP2 SUB SWAP1 REVERT JUMPDEST DUP1 MLOAD DUP2 PUSH1 0x20 ADD REVERT JUMPDEST PUSH4 0xBC197C81 PUSH1 0xE0 SHL PUSH28 0xFFFFFFFFFFFFFFFFFFFFFFFFFFFFFFFFFFFFFFFFFFFFFFFFFFFFFFFF NOT AND DUP2 PUSH28 0xFFFFFFFFFFFFFFFFFFFFFFFFFFFFFFFFFFFFFFFFFFFFFFFFFFFFFFFF NOT AND EQ PUSH2 0x13B1 JUMPI DUP5 PUSH1 0x40 MLOAD PUSH32 0x57F447CE00000000000000000000000000000000000000000000000000000000 DUP2 MSTORE PUSH1 0x4 ADD PUSH2 0x13A8 SWAP2 SWAP1 PUSH2 0x1D2F JUMP JUMPDEST PUSH1 0x40 MLOAD DUP1 SWAP2 SUB SWAP1 REVERT JUMPDEST POP JUMPDEST POP POP POP POP POP POP JUMP JUMPDEST PUSH0 PUSH1 0x40 MLOAD SWAP1 POP SWAP1 JUMP JUMPDEST PUSH0 DUP1 REVERT JUMPDEST PUSH0 DUP1 REVERT JUMPDEST PUSH0 PUSH20 0xFFFFFFFFFFFFFFFFFFFFFFFFFFFFFFFFFFFFFFFF DUP3 AND SWAP1 POP SWAP2 SWAP1 POP JUMP JUMPDEST PUSH0 PUSH2 0x13F5 DUP3 PUSH2 0x13CC JUMP JUMPDEST SWAP1 POP SWAP2 SWAP1 POP JUMP JUMPDEST PUSH2 0x1405 DUP2 PUSH2 0x13EB JUMP JUMPDEST DUP2 EQ PUSH2 0x140F JUMPI PUSH0 DUP1 REVERT JUMPDEST POP JUMP JUMPDEST PUSH0 DUP2 CALLDATALOAD SWAP1 POP PUSH2 0x1420 DUP2 PUSH2 0x13FC JUMP JUMPDEST SWAP3 SWAP2 POP POP JUMP JUMPDEST PUSH0 DUP2 SWAP1 POP SWAP2 SWAP1 POP JUMP JUMPDEST PUSH2 0x1438 DUP2 PUSH2 0x1426 JUMP JUMPDEST DUP2 EQ PUSH2 0x1442 JUMPI PUSH0 DUP1 REVERT JUMPDEST POP JUMP JUMPDEST PUSH0 DUP2 CALLDATALOAD SWAP1 POP PUSH2 0x1453 DUP2 PUSH2 0x142F JUMP JUMPDEST SWAP3 SWAP2 POP POP JUMP JUMPDEST PUSH0 DUP1 PUSH1 0x40 DUP4 DUP6 SUB SLT ISZERO PUSH2 0x146F JUMPI PUSH2 0x146E PUSH2 0x13C4 JUMP JUMPDEST JUMPDEST PUSH0 PUSH2 0x147C DUP6 DUP3 DUP7 ADD PUSH2 0x1412 JUMP JUMPDEST SWAP3 POP POP PUSH1 0x20 PUSH2 0x148D DUP6 DUP3 DUP7 ADD PUSH2 0x1445 JUMP JUMPDEST SWAP2 POP POP SWAP3 POP SWAP3 SWAP1 POP JUMP JUMPDEST PUSH2 0x14A0 DUP2 PUSH2 0x1426 JUMP JUMPDEST DUP3 MSTORE POP POP JUMP JUMPDEST PUSH0 PUSH1 0x20 DUP3 ADD SWAP1 POP PUSH2 0x14B9 PUSH0 DUP4 ADD DUP5 PUSH2 0x1497 JUMP JUMPDEST SWAP3 SWAP2 POP POP JUMP JUMPDEST PUSH0 PUSH32 0xFFFFFFFF00000000000000000000000000000000000000000000000000000000 DUP3 AND SWAP1 POP SWAP2 SWAP1 POP JUMP JUMPDEST PUSH2 0x14F3 DUP2 PUSH2 0x14BF JUMP JUMPDEST DUP2 EQ PUSH2 0x14FD JUMPI PUSH0 DUP1 REVERT JUMPDEST POP JUMP JUMPDEST PUSH0 DUP2 CALLDATALOAD SWAP1 POP PUSH2 0x150E DUP2 PUSH2 0x14EA JUMP JUMPDEST SWAP3 SWAP2 POP POP JUMP JUMPDEST PUSH0 PUSH1 0x20 DUP3 DUP5 SUB SLT ISZERO PUSH2 0x1529 JUMPI PUSH2 0x1528 PUSH2 0x13C4 JUMP JUMPDEST JUMPDEST PUSH0 PUSH2 0x1536 DUP5 DUP3 DUP6 ADD PUSH2 0x1500 JUMP JUMPDEST SWAP2 POP POP SWAP3 SWAP2 POP POP JUMP JUMPDEST PUSH0 DUP2 ISZERO ISZERO SWAP1 POP SWAP2 SWAP1 POP JUMP JUMPDEST PUSH2 0x1553 DUP2 PUSH2 0x153F JUMP JUMPDEST DUP3 MSTORE POP POP JUMP JUMPDEST PUSH0 PUSH1 0x20 DUP3 ADD SWAP1 POP PUSH2 0x156C PUSH0 DUP4 ADD DUP5 PUSH2 0x154A JUMP JUMPDEST SWAP3 SWAP2 POP POP JUMP JUMPDEST PUSH0 DUP2 MLOAD SWAP1 POP SWAP2 SWAP1 POP JUMP JUMPDEST PUSH0 DUP3 DUP3 MSTORE PUSH1 0x20 DUP3 ADD SWAP1 POP SWAP3 SWAP2 POP POP JUMP JUMPDEST PUSH0 JUMPDEST DUP4 DUP2 LT ISZERO PUSH2 0x15A9 JUMPI DUP1 DUP3 ADD MLOAD DUP2 DUP5 ADD MSTORE PUSH1 0x20 DUP2 ADD SWAP1 POP PUSH2 0x158E JUMP JUMPDEST PUSH0 DUP5 DUP5 ADD MSTORE POP POP POP POP JUMP JUMPDEST PUSH0 PUSH1 0x1F NOT PUSH1 0x1F DUP4 ADD AND SWAP1 POP SWAP2 SWAP1 POP JUMP JUMPDEST PUSH0 PUSH2 0x15CE DUP3 PUSH2 0x1572 JUMP JUMPDEST PUSH2 0x15D8 DUP2 DUP6 PUSH2 0x157C JUMP JUMPDEST SWAP4 POP PUSH2 0x15E8 DUP2 DUP6 PUSH1 0x20 DUP7 ADD PUSH2 0x158C JUMP JUMPDEST PUSH2 0x15F1 DUP2 PUSH2 0x15B4 JUMP JUMPDEST DUP5 ADD SWAP2 POP POP SWAP3 SWAP2 POP POP JUMP JUMPDEST PUSH0 PUSH1 0x20 DUP3 ADD SWAP1 POP DUP2 DUP2 SUB PUSH0 DUP4 ADD MSTORE PUSH2 0x1614 DUP2 DUP5 PUSH2 0x15C4 JUMP JUMPDEST SWAP1 POP SWAP3 SWAP2 POP POP JUMP JUMPDEST PUSH0 PUSH1 0x20 DUP3 DUP5 SUB SLT ISZERO PUSH2 0x1631 JUMPI PUSH2 0x1630 PUSH2 0x13C4 JUMP JUMPDEST JUMPDEST PUSH0 PUSH2 0x163E DUP5 DUP3 DUP6 ADD PUSH2 0x1445 JUMP JUMPDEST SWAP2 POP POP SWAP3 SWAP2 POP POP JUMP JUMPDEST PUSH0 DUP1 REVERT JUMPDEST PUSH32 0x4E487B7100000000000000000000000000000000000000000000000000000000 PUSH0 MSTORE PUSH1 0x41 PUSH1 0x4 MSTORE PUSH1 0x24 PUSH0 REVERT JUMPDEST PUSH2 0x1681 DUP3 PUSH2 0x15B4 JUMP JUMPDEST DUP2 ADD DUP2 DUP2 LT PUSH8 0xFFFFFFFFFFFFFFFF DUP3 GT OR ISZERO PUSH2 0x16A0 JUMPI PUSH2 0x169F PUSH2 0x164B JUMP JUMPDEST JUMPDEST DUP1 PUSH1 0x40 MSTORE POP POP POP JUMP JUMPDEST PUSH0 PUSH2 0x16B2 PUSH2 0x13BB JUMP JUMPDEST SWAP1 POP PUSH2 0x16BE DUP3 DUP3 PUSH2 0x1678 JUMP JUMPDEST SWAP2 SWAP1 POP JUMP JUMPDEST PUSH0 PUSH8 0xFFFFFFFFFFFFFFFF DUP3 GT ISZERO PUSH2 0x16DD JUMPI PUSH2 0x16DC PUSH2 0x164B JUMP JUMPDEST JUMPDEST PUSH1 0x20 DUP3 MUL SWAP1 POP PUSH1 0x20 DUP2 ADD SWAP1 POP SWAP2 SWAP1 POP JUMP JUMPDEST PUSH0 DUP1 REVERT JUMPDEST PUSH0 PUSH2 0x1704 PUSH2 0x16FF DUP5 PUSH2 0x16C3 JUMP JUMPDEST PUSH2 0x16A9 JUMP JUMPDEST SWAP1 POP DUP1 DUP4 DUP3 MSTORE PUSH1 0x20 DUP3 ADD SWAP1 POP PUSH1 0x20 DUP5 MUL DUP4 ADD DUP6 DUP2 GT ISZERO PUSH2 0x1727 JUMPI PUSH2 0x1726 PUSH2 0x16EE JUMP JUMPDEST JUMPDEST DUP4 JUMPDEST DUP2 DUP2 LT ISZERO PUSH2 0x1750 JUMPI DUP1 PUSH2 0x173C DUP9 DUP3 PUSH2 0x1445 JUMP JUMPDEST DUP5 MSTORE PUSH1 0x20 DUP5 ADD SWAP4 POP POP PUSH1 0x20 DUP2 ADD SWAP1 POP PUSH2 0x1729 JUMP JUMPDEST POP POP POP SWAP4 SWAP3 POP POP POP JUMP JUMPDEST PUSH0 DUP3 PUSH1 0x1F DUP4 ADD SLT PUSH2 0x176E JUMPI PUSH2 0x176D PUSH2 0x1647 JUMP JUMPDEST JUMPDEST DUP2 CALLDATALOAD PUSH2 0x177E DUP5 DUP3 PUSH1 0x20 DUP7 ADD PUSH2 0x16F2 JUMP JUMPDEST SWAP2 POP POP SWAP3 SWAP2 POP POP JUMP JUMPDEST PUSH0 DUP1 REVERT JUMPDEST PUSH0 PUSH8 0xFFFFFFFFFFFFFFFF DUP3 GT ISZERO PUSH2 0x17A5 JUMPI PUSH2 0x17A4 PUSH2 0x164B JUMP JUMPDEST JUMPDEST PUSH2 0x17AE DUP3 PUSH2 0x15B4 JUMP JUMPDEST SWAP1 POP PUSH1 0x20 DUP2 ADD SWAP1 POP SWAP2 SWAP1 POP JUMP JUMPDEST DUP3 DUP2 DUP4 CALLDATACOPY PUSH0 DUP4 DUP4 ADD MSTORE POP POP POP JUMP JUMPDEST PUSH0 PUSH2 0x17DB PUSH2 0x17D6 DUP5 PUSH2 0x178B JUMP JUMPDEST PUSH2 0x16A9 JUMP JUMPDEST SWAP1 POP DUP3 DUP2 MSTORE PUSH1 0x20 DUP2 ADD DUP5 DUP5 DUP5 ADD GT ISZERO PUSH2 0x17F7 JUMPI PUSH2 0x17F6 PUSH2 0x1787 JUMP JUMPDEST JUMPDEST PUSH2 0x1802 DUP5 DUP3 DUP6 PUSH2 0x17BB JUMP JUMPDEST POP SWAP4 SWAP3 POP POP POP JUMP JUMPDEST PUSH0 DUP3 PUSH1 0x1F DUP4 ADD SLT PUSH2 0x181E JUMPI PUSH2 0x181D PUSH2 0x1647 JUMP JUMPDEST JUMPDEST DUP2 CALLDATALOAD PUSH2 0x182E DUP5 DUP3 PUSH1 0x20 DUP7 ADD PUSH2 0x17C9 JUMP JUMPDEST SWAP2 POP POP SWAP3 SWAP2 POP POP JUMP JUMPDEST PUSH0 DUP1 PUSH0 DUP1 PUSH0 PUSH1 0xA0 DUP7 DUP9 SUB SLT ISZERO PUSH2 0x1850 JUMPI PUSH2 0x184F PUSH2 0x13C4 JUMP JUMPDEST JUMPDEST PUSH0 PUSH2 0x185D DUP9 DUP3 DUP10 ADD PUSH2 0x1412 JUMP JUMPDEST SWAP6 POP POP PUSH1 0x20 PUSH2 0x186E DUP9 DUP3 DUP10 ADD PUSH2 0x1412 JUMP JUMPDEST SWAP5 POP POP PUSH1 0x40 DUP7 ADD CALLDATALOAD PUSH8 0xFFFFFFFFFFFFFFFF DUP2 GT ISZERO PUSH2 0x188F JUMPI PUSH2 0x188E PUSH2 0x13C8 JUMP JUMPDEST JUMPDEST PUSH2 0x189B DUP9 DUP3 DUP10 ADD PUSH2 0x175A JUMP JUMPDEST SWAP4 POP POP PUSH1 0x60 DUP7 ADD CALLDATALOAD PUSH8 0xFFFFFFFFFFFFFFFF DUP2 GT ISZERO PUSH2 0x18BC JUMPI PUSH2 0x18BB PUSH2 0x13C8 JUMP JUMPDEST JUMPDEST PUSH2 0x18C8 DUP9 DUP3 DUP10 ADD PUSH2 0x175A JUMP JUMPDEST SWAP3 POP POP PUSH1 0x80 DUP7 ADD CALLDATALOAD PUSH8 0xFFFFFFFFFFFFFFFF DUP2 GT ISZERO PUSH2 0x18E9 JUMPI PUSH2 0x18E8 PUSH2 0x13C8 JUMP JUMPDEST JUMPDEST PUSH2 0x18F5 DUP9 DUP3 DUP10 ADD PUSH2 0x180A JUMP JUMPDEST SWAP2 POP POP SWAP3 SWAP6 POP SWAP3 SWAP6 SWAP1 SWAP4 POP JUMP JUMPDEST PUSH0 PUSH8 0xFFFFFFFFFFFFFFFF DUP3 GT ISZERO PUSH2 0x191C JUMPI PUSH2 0x191B PUSH2 0x164B JUMP JUMPDEST JUMPDEST PUSH1 0x20 DUP3 MUL SWAP1 POP PUSH1 0x20 DUP2 ADD SWAP1 POP SWAP2 SWAP1 POP JUMP JUMPDEST PUSH0 PUSH2 0x193F PUSH2 0x193A DUP5 PUSH2 0x1902 JUMP JUMPDEST PUSH2 0x16A9 JUMP JUMPDEST SWAP1 POP DUP1 DUP4 DUP3 MSTORE PUSH1 0x20 DUP3 ADD SWAP1 POP PUSH1 0x20 DUP5 MUL DUP4 ADD DUP6 DUP2 GT ISZERO PUSH2 0x1962 JUMPI PUSH2 0x1961 PUSH2 0x16EE JUMP JUMPDEST JUMPDEST DUP4 JUMPDEST DUP2 DUP2 LT ISZERO PUSH2 0x198B JUMPI DUP1 PUSH2 0x1977 DUP9 DUP3 PUSH2 0x1412 JUMP JUMPDEST DUP5 MSTORE PUSH1 0x20 DUP5 ADD SWAP4 POP POP PUSH1 0x20 DUP2 ADD SWAP1 POP PUSH2 0x1964 JUMP JUMPDEST POP POP POP SWAP4 SWAP3 POP POP POP JUMP JUMPDEST PUSH0 DUP3 PUSH1 0x1F DUP4 ADD SLT PUSH2 0x19A9 JUMPI PUSH2 0x19A8 PUSH2 0x1647 JUMP JUMPDEST JUMPDEST DUP2 CALLDATALOAD PUSH2 0x19B9 DUP5 DUP3 PUSH1 0x20 DUP7 ADD PUSH2 0x192D JUMP JUMPDEST SWAP2 POP POP SWAP3 SWAP2 POP POP JUMP JUMPDEST PUSH0 DUP1 PUSH1 0x40 DUP4 DUP6 SUB SLT ISZERO PUSH2 0x19D8 JUMPI PUSH2 0x19D7 PUSH2 0x13C4 JUMP JUMPDEST JUMPDEST PUSH0 DUP4 ADD CALLDATALOAD PUSH8 0xFFFFFFFFFFFFFFFF DUP2 GT ISZERO PUSH2 0x19F5 JUMPI PUSH2 0x19F4 PUSH2 0x13C8 JUMP JUMPDEST JUMPDEST PUSH2 0x1A01 DUP6 DUP3 DUP7 ADD PUSH2 0x1995 JUMP JUMPDEST SWAP3 POP POP PUSH1 0x20 DUP4 ADD CALLDATALOAD PUSH8 0xFFFFFFFFFFFFFFFF DUP2 GT ISZERO PUSH2 0x1A22 JUMPI PUSH2 0x1A21 PUSH2 0x13C8 JUMP JUMPDEST JUMPDEST PUSH2 0x1A2E DUP6 DUP3 DUP7 ADD PUSH2 0x175A JUMP JUMPDEST SWAP2 POP POP SWAP3 POP SWAP3 SWAP1 POP JUMP JUMPDEST PUSH0 DUP2 MLOAD SWAP1 POP SWAP2 SWAP1 POP JUMP JUMPDEST PUSH0 DUP3 DUP3 MSTORE PUSH1 0x20 DUP3 ADD SWAP1 POP SWAP3 SWAP2 POP POP JUMP JUMPDEST PUSH0 DUP2 SWAP1 POP PUSH1 0x20 DUP3 ADD SWAP1 POP SWAP2 SWAP1 POP JUMP JUMPDEST PUSH2 0x1A6A DUP2 PUSH2 0x1426 JUMP JUMPDEST DUP3 MSTORE POP POP JUMP JUMPDEST PUSH0 PUSH2 0x1A7B DUP4 DUP4 PUSH2 0x1A61 JUMP JUMPDEST PUSH1 0x20 DUP4 ADD SWAP1 POP SWAP3 SWAP2 POP POP JUMP JUMPDEST PUSH0 PUSH1 0x20 DUP3 ADD SWAP1 POP SWAP2 SWAP1 POP JUMP JUMPDEST PUSH0 PUSH2 0x1A9D DUP3 PUSH2 0x1A38 JUMP JUMPDEST PUSH2 0x1AA7 DUP2 DUP6 PUSH2 0x1A42 JUMP JUMPDEST SWAP4 POP PUSH2 0x1AB2 DUP4 PUSH2 0x1A52 JUMP JUMPDEST DUP1 PUSH0 JUMPDEST DUP4 DUP2 LT ISZERO PUSH2 0x1AE2 JUMPI DUP2 MLOAD PUSH2 0x1AC9 DUP9 DUP3 PUSH2 0x1A70 JUMP JUMPDEST SWAP8 POP PUSH2 0x1AD4 DUP4 PUSH2 0x1A87 JUMP JUMPDEST SWAP3 POP POP PUSH1 0x1 DUP2 ADD SWAP1 POP PUSH2 0x1AB5 JUMP JUMPDEST POP DUP6 SWAP4 POP POP POP POP SWAP3 SWAP2 POP POP JUMP JUMPDEST PUSH0 PUSH1 0x20 DUP3 ADD SWAP1 POP DUP2 DUP2 SUB PUSH0 DUP4 ADD MSTORE PUSH2 0x1B07 DUP2 DUP5 PUSH2 0x1A93 JUMP JUMPDEST SWAP1 POP SWAP3 SWAP2 POP POP JUMP JUMPDEST PUSH2 0x1B18 DUP2 PUSH2 0x153F JUMP JUMPDEST DUP2 EQ PUSH2 0x1B22 JUMPI PUSH0 DUP1 REVERT JUMPDEST POP JUMP JUMPDEST PUSH0 DUP2 CALLDATALOAD SWAP1 POP PUSH2 0x1B33 DUP2 PUSH2 0x1B0F JUMP JUMPDEST SWAP3 SWAP2 POP POP JUMP JUMPDEST PUSH0 DUP1 PUSH1 0x40 DUP4 DUP6 SUB SLT ISZERO PUSH2 0x1B4F JUMPI PUSH2 0x1B4E PUSH2 0x13C4 JUMP JUMPDEST JUMPDEST PUSH0 PUSH2 0x1B5C DUP6 DUP3 DUP7 ADD PUSH2 0x1412 JUMP JUMPDEST SWAP3 POP POP PUSH1 0x20 PUSH2 0x1B6D DUP6 DUP3 DUP7 ADD PUSH2 0x1B25 JUMP JUMPDEST SWAP2 POP POP SWAP3 POP SWAP3 SWAP1 POP JUMP JUMPDEST PUSH0 DUP1 PUSH1 0x40 DUP4 DUP6 SUB SLT ISZERO PUSH2 0x1B8D JUMPI PUSH2 0x1B8C PUSH2 0x13C4 JUMP JUMPDEST JUMPDEST PUSH0 PUSH2 0x1B9A DUP6 DUP3 DUP7 ADD PUSH2 0x1412 JUMP JUMPDEST SWAP3 POP POP PUSH1 0x20 PUSH2 0x1BAB DUP6 DUP3 DUP7 ADD PUSH2 0x1412 JUMP JUMPDEST SWAP2 POP POP SWAP3 POP SWAP3 SWAP1 POP JUMP JUMPDEST PUSH0 DUP1 PUSH0 DUP1 PUSH0 PUSH1 0xA0 DUP7 DUP9 SUB SLT ISZERO PUSH2 0x1BCE JUMPI PUSH2 0x1BCD PUSH2 0x13C4 JUMP JUMPDEST JUMPDEST PUSH0 PUSH2 0x1BDB DUP9 DUP3 DUP10 ADD PUSH2 0x1412 JUMP JUMPDEST SWAP6 POP POP PUSH1 0x20 PUSH2 0x1BEC DUP9 DUP3 DUP10 ADD PUSH2 0x1412 JUMP JUMPDEST SWAP5 POP POP PUSH1 0x40 PUSH2 0x1BFD DUP9 DUP3 DUP10 ADD PUSH2 0x1445 JUMP JUMPDEST SWAP4 POP POP PUSH1 0x60 PUSH2 0x1C0E DUP9 DUP3 DUP10 ADD PUSH2 0x1445 JUMP JUMPDEST SWAP3 POP POP PUSH1 0x80 DUP7 ADD CALLDATALOAD PUSH8 0xFFFFFFFFFFFFFFFF DUP2 GT ISZERO PUSH2 0x1C2F JUMPI PUSH2 0x1C2E PUSH2 0x13C8 JUMP JUMPDEST JUMPDEST PUSH2 0x1C3B DUP9 DUP3 DUP10 ADD PUSH2 0x180A JUMP JUMPDEST SWAP2 POP POP SWAP3 SWAP6 POP SWAP3 SWAP6 SWAP1 SWAP4 POP JUMP JUMPDEST PUSH32 0x4E487B7100000000000000000000000000000000000000000000000000000000 PUSH0 MSTORE PUSH1 0x22 PUSH1 0x4 MSTORE PUSH1 0x24 PUSH0 REVERT JUMPDEST PUSH0 PUSH1 0x2 DUP3 DIV SWAP1 POP PUSH1 0x1 DUP3 AND DUP1 PUSH2 0x1C8C JUMPI PUSH1 0x7F DUP3 AND SWAP2 POP JUMPDEST PUSH1 0x20 DUP3 LT DUP2 SUB PUSH2 0x1C9F JUMPI PUSH2 0x1C9E PUSH2 0x1C48 JUMP JUMPDEST JUMPDEST POP SWAP2 SWAP1 POP JUMP JUMPDEST PUSH2 0x1CAE DUP2 PUSH2 0x13EB JUMP JUMPDEST DUP3 MSTORE POP POP JUMP JUMPDEST PUSH0 PUSH1 0x40 DUP3 ADD SWAP1 POP PUSH2 0x1CC7 PUSH0 DUP4 ADD DUP6 PUSH2 0x1CA5 JUMP JUMPDEST PUSH2 0x1CD4 PUSH1 0x20 DUP4 ADD DUP5 PUSH2 0x1CA5 JUMP JUMPDEST SWAP4 SWAP3 POP POP POP JUMP JUMPDEST PUSH0 PUSH1 0x40 DUP3 ADD SWAP1 POP PUSH2 0x1CEE PUSH0 DUP4 ADD DUP6 PUSH2 0x1497 JUMP JUMPDEST PUSH2 0x1CFB PUSH1 0x20 DUP4 ADD DUP5 PUSH2 0x1497 JUMP JUMPDEST SWAP4 SWAP3 POP POP POP JUMP JUMPDEST PUSH32 0x4E487B7100000000000000000000000000000000000000000000000000000000 PUSH0 MSTORE PUSH1 0x32 PUSH1 0x4 MSTORE PUSH1 0x24 PUSH0 REVERT JUMPDEST PUSH0 PUSH1 0x20 DUP3 ADD SWAP1 POP PUSH2 0x1D42 PUSH0 DUP4 ADD DUP5 PUSH2 0x1CA5 JUMP JUMPDEST SWAP3 SWAP2 POP POP JUMP JUMPDEST PUSH0 PUSH1 0x80 DUP3 ADD SWAP1 POP PUSH2 0x1D5B PUSH0 DUP4 ADD DUP8 PUSH2 0x1CA5 JUMP JUMPDEST PUSH2 0x1D68 PUSH1 0x20 DUP4 ADD DUP7 PUSH2 0x1497 JUMP JUMPDEST PUSH2 0x1D75 PUSH1 0x40 DUP4 ADD DUP6 PUSH2 0x1497 JUMP JUMPDEST PUSH2 0x1D82 PUSH1 0x60 DUP4 ADD DUP5 PUSH2 0x1497 JUMP JUMPDEST SWAP6 SWAP5 POP POP POP POP POP JUMP JUMPDEST PUSH32 0x4E487B7100000000000000000000000000000000000000000000000000000000 PUSH0 MSTORE PUSH1 0x11 PUSH1 0x4 MSTORE PUSH1 0x24 PUSH0 REVERT JUMPDEST PUSH0 PUSH2 0x1DC2 DUP3 PUSH2 0x1426 JUMP JUMPDEST SWAP2 POP PUSH2 0x1DCD DUP4 PUSH2 0x1426 JUMP JUMPDEST SWAP3 POP DUP3 DUP3 ADD SWAP1 POP DUP1 DUP3 GT ISZERO PUSH2 0x1DE5 JUMPI PUSH2 0x1DE4 PUSH2 0x1D8B JUMP JUMPDEST JUMPDEST SWAP3 SWAP2 POP POP JUMP JUMPDEST PUSH0 PUSH1 0x40 DUP3 ADD SWAP1 POP DUP2 DUP2 SUB PUSH0 DUP4 ADD MSTORE PUSH2 0x1E03 DUP2 DUP6 PUSH2 0x1A93 JUMP JUMPDEST SWAP1 POP DUP2 DUP2 SUB PUSH1 0x20 DUP4 ADD MSTORE PUSH2 0x1E17 DUP2 DUP5 PUSH2 0x1A93 JUMP JUMPDEST SWAP1 POP SWAP4 SWAP3 POP POP POP JUMP JUMPDEST PUSH0 DUP2 MLOAD SWAP1 POP SWAP2 SWAP1 POP JUMP JUMPDEST PUSH0 DUP3 DUP3 MSTORE PUSH1 0x20 DUP3 ADD SWAP1 POP SWAP3 SWAP2 POP POP JUMP JUMPDEST PUSH0 PUSH2 0x1E44 DUP3 PUSH2 0x1E20 JUMP JUMPDEST PUSH2 0x1E4E DUP2 DUP6 PUSH2 0x1E2A JUMP JUMPDEST SWAP4 POP PUSH2 0x1E5E DUP2 DUP6 PUSH1 0x20 DUP7 ADD PUSH2 0x158C JUMP JUMPDEST PUSH2 0x1E67 DUP2 PUSH2 0x15B4 JUMP JUMPDEST DUP5 ADD SWAP2 POP POP SWAP3 SWAP2 POP POP JUMP JUMPDEST PUSH0 PUSH1 0xA0 DUP3 ADD SWAP1 POP PUSH2 0x1E85 PUSH0 DUP4 ADD DUP9 PUSH2 0x1CA5 JUMP JUMPDEST PUSH2 0x1E92 PUSH1 0x20 DUP4 ADD DUP8 PUSH2 0x1CA5 JUMP JUMPDEST PUSH2 0x1E9F PUSH1 0x40 DUP4 ADD DUP7 PUSH2 0x1497 JUMP JUMPDEST PUSH2 0x1EAC PUSH1 0x60 DUP4 ADD DUP6 PUSH2 0x1497 JUMP JUMPDEST DUP2 DUP2 SUB PUSH1 0x80 DUP4 ADD MSTORE PUSH2 0x1EBE DUP2 DUP5 PUSH2 0x1E3A JUMP JUMPDEST SWAP1 POP SWAP7 SWAP6 POP POP POP POP POP POP JUMP JUMPDEST PUSH0 DUP2 MLOAD SWAP1 POP PUSH2 0x1ED8 DUP2 PUSH2 0x14EA JUMP JUMPDEST SWAP3 SWAP2 POP POP JUMP JUMPDEST PUSH0 PUSH1 0x20 DUP3 DUP5 SUB SLT ISZERO PUSH2 0x1EF3 JUMPI PUSH2 0x1EF2 PUSH2 0x13C4 JUMP JUMPDEST JUMPDEST PUSH0 PUSH2 0x1F00 DUP5 DUP3 DUP6 ADD PUSH2 0x1ECA JUMP JUMPDEST SWAP2 POP POP SWAP3 SWAP2 POP POP JUMP JUMPDEST PUSH0 PUSH1 0xA0 DUP3 ADD SWAP1 POP PUSH2 0x1F1C PUSH0 DUP4 ADD DUP9 PUSH2 0x1CA5 JUMP JUMPDEST PUSH2 0x1F29 PUSH1 0x20 DUP4 ADD DUP8 PUSH2 0x1CA5 JUMP JUMPDEST DUP2 DUP2 SUB PUSH1 0x40 DUP4 ADD MSTORE PUSH2 0x1F3B DUP2 DUP7 PUSH2 0x1A93 JUMP JUMPDEST SWAP1 POP DUP2 DUP2 SUB PUSH1 0x60 DUP4 ADD MSTORE PUSH2 0x1F4F DUP2 DUP6 PUSH2 0x1A93 JUMP JUMPDEST SWAP1 POP DUP2 DUP2 SUB PUSH1 0x80 DUP4 ADD MSTORE PUSH2 0x1F63 DUP2 DUP5 PUSH2 0x1E3A JUMP JUMPDEST SWAP1 POP SWAP7 SWAP6 POP POP POP POP POP POP JUMP INVALID LOG2 PUSH5 0x6970667358 0x22 SLT KECCAK256 SIGNEXTEND ORIGIN 0xDB 0xF6 DIV SDIV 0xBA 0x2E 0xA8 0xEB 0xE4 DIV PUSH22 0x7C765F6565A7E845A565DD88288DC03A8CE75364736F PUSH13 0x63430008170033000000000000 "
				},
				"gasEstimates": {
					"creation": {
						"codeDepositCost": "1620200",
						"executionCost": "infinite",
						"totalCost": "infinite"
					},
					"external": {
						"balanceOf(address,uint256)": "infinite",
						"balanceOfBatch(address[],uint256[])": "infinite",
						"isApprovedForAll(address,address)": "infinite",
						"name()": "infinite",
						"safeBatchTransferFrom(address,address,uint256[],uint256[],bytes)": "infinite",
						"safeTransferFrom(address,address,uint256,uint256,bytes)": "infinite",
						"setApprovalForAll(address,bool)": "infinite",
						"supportsInterface(bytes4)": "786",
						"symbol()": "infinite",
						"uri(uint256)": "infinite"
					}
				},
				"methodIdentifiers": {
					"balanceOf(address,uint256)": "00fdd58e",
					"balanceOfBatch(address[],uint256[])": "4e1273f4",
					"isApprovedForAll(address,address)": "e985e9c5",
					"name()": "06fdde03",
					"safeBatchTransferFrom(address,address,uint256[],uint256[],bytes)": "2eb2c2d6",
					"safeTransferFrom(address,address,uint256,uint256,bytes)": "f242432a",
					"setApprovalForAll(address,bool)": "a22cb465",
					"supportsInterface(bytes4)": "01ffc9a7",
					"symbol()": "95d89b41",
					"uri(uint256)": "0e89341c"
				}
			},
			"storageLayout": {
				"storage": [
					{
						"astId": 178,
						"contract": "MintNFT.sol:MintNFT",
						"label": "_balances",
						"offset": 0,
						"slot": "0",
						"type": "t_mapping(t_uint256,t_mapping(t_address,t_uint256))"
					},
					{
						"astId": 184,
						"contract": "MintNFT.sol:MintNFT",
						"label": "_operatorApprovals",
						"offset": 0,
						"slot": "1",
						"type": "t_mapping(t_address,t_mapping(t_address,t_bool))"
					},
					{
						"astId": 186,
						"contract": "MintNFT.sol:MintNFT",
						"label": "_uri",
						"offset": 0,
						"slot": "2",
						"type": "t_string_storage"
					},
					{
						"astId": 2780,
						"contract": "MintNFT.sol:MintNFT",
						"label": "name",
						"offset": 0,
						"slot": "3",
						"type": "t_string_storage"
					},
					{
						"astId": 2782,
						"contract": "MintNFT.sol:MintNFT",
						"label": "symbol",
						"offset": 0,
						"slot": "4",
						"type": "t_string_storage"
					},
					{
						"astId": 2784,
						"contract": "MintNFT.sol:MintNFT",
						"label": "metadataURI",
						"offset": 0,
						"slot": "5",
						"type": "t_string_storage"
					},
					{
						"astId": 2786,
						"contract": "MintNFT.sol:MintNFT",
						"label": "maxSupply",
						"offset": 0,
						"slot": "6",
						"type": "t_uint256"
					}
				],
				"types": {
					"t_address": {
						"encoding": "inplace",
						"label": "address",
						"numberOfBytes": "20"
					},
					"t_bool": {
						"encoding": "inplace",
						"label": "bool",
						"numberOfBytes": "1"
					},
					"t_mapping(t_address,t_bool)": {
						"encoding": "mapping",
						"key": "t_address",
						"label": "mapping(address => bool)",
						"numberOfBytes": "32",
						"value": "t_bool"
					},
					"t_mapping(t_address,t_mapping(t_address,t_bool))": {
						"encoding": "mapping",
						"key": "t_address",
						"label": "mapping(address => mapping(address => bool))",
						"numberOfBytes": "32",
						"value": "t_mapping(t_address,t_bool)"
					},
					"t_mapping(t_address,t_uint256)": {
						"encoding": "mapping",
						"key": "t_address",
						"label": "mapping(address => uint256)",
						"numberOfBytes": "32",
						"value": "t_uint256"
					},
					"t_mapping(t_uint256,t_mapping(t_address,t_uint256))": {
						"encoding": "mapping",
						"key": "t_uint256",
						"label": "mapping(uint256 => mapping(address => uint256))",
						"numberOfBytes": "32",
						"value": "t_mapping(t_address,t_uint256)"
					},
					"t_string_storage": {
						"encoding": "bytes",
						"label": "string",
						"numberOfBytes": "32"
					},
					"t_uint256": {
						"encoding": "inplace",
						"label": "uint256",
						"numberOfBytes": "32"
					}
				}
			},
			"userdoc": {
				"kind": "user",
				"methods": {},
				"version": 1
			}
		}
	}
}